{
  "_format": "hh-sol-artifact-1",
  "contractName": "DisputeCourt",
  "sourceName": "contracts/DisputeCourt.sol",
  "abi": [
    {
      "inputs": [
        {
          "internalType": "address",
          "name": "_workEscrow",
          "type": "address"
        },
        {
          "internalType": "address",
          "name": "_jobRegistry",
          "type": "address"
        }
      ],
      "stateMutability": "nonpayable",
      "type": "constructor"
    },
    {
      "inputs": [
        {
          "internalType": "address",
          "name": "owner",
          "type": "address"
        }
      ],
      "name": "OwnableInvalidOwner",
      "type": "error"
    },
    {
      "inputs": [
        {
          "internalType": "address",
          "name": "account",
          "type": "address"
        }
      ],
      "name": "OwnableUnauthorizedAccount",
      "type": "error"
    },
    {
      "inputs": [],
      "name": "ReentrancyGuardReentrantCall",
      "type": "error"
    },
    {
      "anonymous": false,
      "inputs": [
        {
          "indexed": true,
          "internalType": "bytes32",
          "name": "disputeId",
          "type": "bytes32"
        },
        {
          "indexed": true,
          "internalType": "bytes32",
          "name": "jobId",
          "type": "bytes32"
        },
        {
          "indexed": false,
          "internalType": "address",
          "name": "opener",
          "type": "address"
        },
        {
          "indexed": false,
          "internalType": "string",
          "name": "reason",
          "type": "string"
        }
      ],
      "name": "DisputeOpened",
      "type": "event"
    },
    {
      "anonymous": false,
      "inputs": [
        {
          "indexed": true,
          "internalType": "bytes32",
          "name": "disputeId",
          "type": "bytes32"
        },
        {
          "indexed": true,
          "internalType": "bytes32",
          "name": "jobId",
          "type": "bytes32"
        },
        {
          "indexed": false,
          "internalType": "string",
          "name": "resolution",
          "type": "string"
        }
      ],
      "name": "DisputeResolved",
      "type": "event"
    },
    {
      "anonymous": false,
      "inputs": [
        {
          "indexed": true,
          "internalType": "address",
          "name": "judge",
          "type": "address"
        }
      ],
      "name": "JudgeVerified",
      "type": "event"
    },
    {
      "anonymous": false,
      "inputs": [
        {
          "indexed": true,
          "internalType": "address",
          "name": "previousOwner",
          "type": "address"
        },
        {
          "indexed": true,
          "internalType": "address",
          "name": "newOwner",
          "type": "address"
        }
      ],
      "name": "OwnershipTransferred",
      "type": "event"
    },
    {
      "anonymous": false,
      "inputs": [
        {
          "indexed": true,
          "internalType": "bytes32",
          "name": "disputeId",
          "type": "bytes32"
        },
        {
          "indexed": true,
          "internalType": "address",
          "name": "judge",
          "type": "address"
        },
        {
          "indexed": false,
          "internalType": "string",
          "name": "decision",
          "type": "string"
        }
      ],
      "name": "RulingSubmitted",
      "type": "event"
    },
    {
      "inputs": [
        {
          "internalType": "bytes32",
          "name": "",
          "type": "bytes32"
        },
        {
          "internalType": "uint256",
          "name": "",
          "type": "uint256"
        }
      ],
      "name": "disputeJudges",
      "outputs": [
        {
          "internalType": "address",
          "name": "",
          "type": "address"
        }
      ],
      "stateMutability": "view",
      "type": "function"
    },
    {
      "inputs": [
        {
          "internalType": "bytes32",
          "name": "",
          "type": "bytes32"
        }
      ],
      "name": "disputes",
      "outputs": [
        {
          "internalType": "bytes32",
          "name": "disputeId",
          "type": "bytes32"
        },
        {
          "internalType": "bytes32",
          "name": "jobId",
          "type": "bytes32"
        },
        {
          "internalType": "address",
          "name": "opener",
          "type": "address"
        },
        {
          "internalType": "string",
          "name": "reason",
          "type": "string"
        },
        {
          "internalType": "string",
          "name": "openedBy",
          "type": "string"
        },
        {
          "internalType": "bool",
          "name": "resolved",
          "type": "bool"
        },
        {
          "internalType": "string",
          "name": "resolution",
          "type": "string"
        },
        {
          "internalType": "uint256",
          "name": "createdAt",
          "type": "uint256"
        },
        {
          "internalType": "uint256",
          "name": "resolvedAt",
          "type": "uint256"
        }
      ],
      "stateMutability": "view",
      "type": "function"
    },
    {
      "inputs": [
        {
          "internalType": "bytes32",
          "name": "disputeId",
          "type": "bytes32"
        }
      ],
      "name": "getDispute",
      "outputs": [
        {
          "components": [
            {
              "internalType": "bytes32",
              "name": "disputeId",
              "type": "bytes32"
            },
            {
              "internalType": "bytes32",
              "name": "jobId",
              "type": "bytes32"
            },
            {
              "internalType": "address",
              "name": "opener",
              "type": "address"
            },
            {
              "internalType": "string",
              "name": "reason",
              "type": "string"
            },
            {
              "internalType": "string",
              "name": "openedBy",
              "type": "string"
            },
            {
              "internalType": "bool",
              "name": "resolved",
              "type": "bool"
            },
            {
              "internalType": "string",
              "name": "resolution",
              "type": "string"
            },
            {
              "internalType": "uint256",
              "name": "createdAt",
              "type": "uint256"
            },
            {
              "internalType": "uint256",
              "name": "resolvedAt",
              "type": "uint256"
            }
          ],
          "internalType": "struct DisputeCourt.Dispute",
          "name": "",
          "type": "tuple"
        }
      ],
      "stateMutability": "view",
      "type": "function"
    },
    {
      "inputs": [
        {
          "internalType": "bytes32",
          "name": "disputeId",
          "type": "bytes32"
        }
      ],
      "name": "getDisputeJudges",
      "outputs": [
        {
          "internalType": "address[]",
          "name": "",
          "type": "address[]"
        }
      ],
      "stateMutability": "view",
      "type": "function"
    },
    {
      "inputs": [
        {
          "internalType": "bytes32",
          "name": "disputeId",
          "type": "bytes32"
        },
        {
          "internalType": "address",
          "name": "judge",
          "type": "address"
        }
      ],
      "name": "getRuling",
      "outputs": [
        {
          "components": [
            {
              "internalType": "address",
              "name": "judge",
              "type": "address"
            },
            {
              "internalType": "bool",
              "name": "hasRuled",
              "type": "bool"
            },
            {
              "internalType": "string",
              "name": "decision",
              "type": "string"
            }
          ],
          "internalType": "struct DisputeCourt.Ruling",
          "name": "",
          "type": "tuple"
        }
      ],
      "stateMutability": "view",
      "type": "function"
    },
    {
      "inputs": [
        {
          "internalType": "address",
          "name": "judge",
          "type": "address"
        }
      ],
      "name": "isJudgeVerified",
      "outputs": [
        {
          "internalType": "bool",
          "name": "",
          "type": "bool"
        }
      ],
      "stateMutability": "view",
      "type": "function"
    },
    {
      "inputs": [],
      "name": "jobRegistry",
      "outputs": [
        {
          "internalType": "contract IJobRegistry",
          "name": "",
          "type": "address"
        }
      ],
      "stateMutability": "view",
      "type": "function"
    },
    {
      "inputs": [
        {
          "internalType": "bytes32",
          "name": "jobId",
          "type": "bytes32"
        },
        {
          "internalType": "string",
          "name": "reason",
          "type": "string"
        },
        {
          "internalType": "string",
          "name": "openedBy",
          "type": "string"
        }
      ],
      "name": "openDispute",
      "outputs": [
        {
          "internalType": "bytes32",
          "name": "",
          "type": "bytes32"
        }
      ],
      "stateMutability": "nonpayable",
      "type": "function"
    },
    {
      "inputs": [],
      "name": "owner",
      "outputs": [
        {
          "internalType": "address",
          "name": "",
          "type": "address"
        }
      ],
      "stateMutability": "view",
      "type": "function"
    },
    {
      "inputs": [
        {
          "internalType": "address",
          "name": "judge",
          "type": "address"
        }
      ],
      "name": "registerJudge",
      "outputs": [],
      "stateMutability": "nonpayable",
      "type": "function"
    },
    {
      "inputs": [],
      "name": "renounceOwnership",
      "outputs": [],
      "stateMutability": "nonpayable",
      "type": "function"
    },
    {
      "inputs": [
        {
          "internalType": "bytes32",
          "name": "",
          "type": "bytes32"
        },
        {
          "internalType": "address",
          "name": "",
          "type": "address"
        }
      ],
      "name": "rulings",
      "outputs": [
        {
          "internalType": "address",
          "name": "judge",
          "type": "address"
        },
        {
          "internalType": "bool",
          "name": "hasRuled",
          "type": "bool"
        },
        {
          "internalType": "string",
          "name": "decision",
          "type": "string"
        }
      ],
      "stateMutability": "view",
      "type": "function"
    },
    {
      "inputs": [
        {
          "internalType": "bytes32",
          "name": "disputeId",
          "type": "bytes32"
        },
        {
          "internalType": "string",
          "name": "decision",
          "type": "string"
        }
      ],
      "name": "submitRuling",
      "outputs": [],
      "stateMutability": "nonpayable",
      "type": "function"
    },
    {
      "inputs": [],
      "name": "totalDisputes",
      "outputs": [
        {
          "internalType": "uint256",
          "name": "",
          "type": "uint256"
        }
      ],
      "stateMutability": "view",
      "type": "function"
    },
    {
      "inputs": [
        {
          "internalType": "address",
          "name": "newOwner",
          "type": "address"
        }
      ],
      "name": "transferOwnership",
      "outputs": [],
      "stateMutability": "nonpayable",
      "type": "function"
    },
    {
      "inputs": [
        {
          "internalType": "address",
          "name": "",
          "type": "address"
        }
      ],
      "name": "verifiedJudges",
      "outputs": [
        {
          "internalType": "bool",
          "name": "",
          "type": "bool"
        }
      ],
      "stateMutability": "view",
      "type": "function"
    },
    {
      "inputs": [],
      "name": "workEscrow",
      "outputs": [
        {
          "internalType": "contract IWorkEscrow",
          "name": "",
          "type": "address"
        }
      ],
      "stateMutability": "view",
      "type": "function"
    }
  ],
  "bytecode": "0x608060405260006007553480156200001657600080fd5b5060405162001f2438038062001f2483398101604081905262000039916200012f565b33806200006057604051631e4fbdf760e01b81526000600482015260240160405180910390fd5b6200006b81620000c2565b5060017f9b779b17422d0df92223018b32b4d1fa46e071723d6817e2486d003becc55f0055600180546001600160a01b039384166001600160a01b0319918216179091556002805492909316911617905562000167565b600080546001600160a01b038381166001600160a01b0319831681178455604051919092169283917f8be0079c531659141344cd1fd0a4f28419497f9722a3daafe3b4186f6b6457e09190a35050565b80516001600160a01b03811681146200012a57600080fd5b919050565b600080604083850312156200014357600080fd5b6200014e8362000112565b91506200015e6020840162000112565b90509250929050565b611dad80620001776000396000f3fe608060405234801561001057600080fd5b506004361061010b5760003560e01c80635dcdef88116100a2578063a352453911610071578063a352453914610276578063c5e4ccc414610296578063dd43b73f1461029f578063e567bc27146102cb578063f2fde38b146102de57600080fd5b80635dcdef8814610237578063715018a61461024a5780637e598805146102525780638da5cb5b1461026557600080fd5b806327290bd8116100de57806327290bd8146101ac5780632eefb40b146101c157806337a0ca3e146101f457806355297f741461021657600080fd5b806305a23e381461011057806311be199714610139578063136ba6aa1461016157806323682c4714610181575b600080fd5b61012361011e36600461160d565b6102f1565b604051610130919061168d565b60405180910390f35b61014c6101473660046116ce565b6103f2565b604051610130999897969594939291906116e7565b61017461016f3660046116ce565b6105e6565b6040516101309190611763565b600254610194906001600160a01b031681565b6040516001600160a01b039091168152602001610130565b6101bf6101ba366004611822565b610853565b005b6101e46101cf366004611822565b60036020526000908152604090205460ff1681565b6040519015158152602001610130565b61020761020236600461160d565b6108f2565b60405161013093929190611846565b6102296102243660046118c4565b6109b8565b604051908152602001610130565b61019461024536600461193e565b610caf565b6101bf610ce7565b6101bf610260366004611960565b610cfb565b6000546001600160a01b0316610194565b6102896102843660046116ce565b610efb565b60405161013091906119ac565b61022960075481565b6101e46102ad366004611822565b6001600160a01b031660009081526003602052604090205460ff1690565b600154610194906001600160a01b031681565b6101bf6102ec366004611822565b610f67565b6040805160608082018352600080835260208301529181019190915260008381526006602090815260408083206001600160a01b03868116855290835292819020815160608101835281549485168152600160a01b90940460ff1615159284019290925260018201805491840191610368906119f9565b80601f0160208091040260200160405190810160405280929190818152602001828054610394906119f9565b80156103e15780601f106103b6576101008083540402835291602001916103e1565b820191906000526020600020905b8154815290600101906020018083116103c457829003601f168201915b505050505081525050905092915050565b6004602052600090815260409020805460018201546002830154600384018054939492936001600160a01b03909216929161042c906119f9565b80601f0160208091040260200160405190810160405280929190818152602001828054610458906119f9565b80156104a55780601f1061047a576101008083540402835291602001916104a5565b820191906000526020600020905b81548152906001019060200180831161048857829003601f168201915b5050505050908060040180546104ba906119f9565b80601f01602080910402602001604051908101604052809291908181526020018280546104e6906119f9565b80156105335780601f1061050857610100808354040283529160200191610533565b820191906000526020600020905b81548152906001019060200180831161051657829003601f168201915b5050506005840154600685018054949560ff909216949193509150610557906119f9565b80601f0160208091040260200160405190810160405280929190818152602001828054610583906119f9565b80156105d05780601f106105a5576101008083540402835291602001916105d0565b820191906000526020600020905b8154815290600101906020018083116105b357829003601f168201915b5050505050908060070154908060080154905089565b6040805161012080820183526000808352602080840182905283850182905260608085018190526080850181905260a0850183905260c0850181905260e0850183905261010085018390528683526004825291859020855193840186528054845260018101549184019190915260028101546001600160a01b031694830194909452600384018054939492939184019161067f906119f9565b80601f01602080910402602001604051908101604052809291908181526020018280546106ab906119f9565b80156106f85780601f106106cd576101008083540402835291602001916106f8565b820191906000526020600020905b8154815290600101906020018083116106db57829003601f168201915b50505050508152602001600482018054610711906119f9565b80601f016020809104026020016040519081016040528092919081815260200182805461073d906119f9565b801561078a5780601f1061075f5761010080835404028352916020019161078a565b820191906000526020600020905b81548152906001019060200180831161076d57829003601f168201915b5050509183525050600582015460ff16151560208201526006820180546040909201916107b6906119f9565b80601f01602080910402602001604051908101604052809291908181526020018280546107e2906119f9565b801561082f5780601f106108045761010080835404028352916020019161082f565b820191906000526020600020905b81548152906001019060200180831161081257829003601f168201915b50505050508152602001600782015481526020016008820154815250509050919050565b61085b610fa5565b6001600160a01b0381166108a65760405162461bcd60e51b815260206004820152600d60248201526c496e76616c6964206a7564676560981b60448201526064015b60405180910390fd5b6001600160a01b038116600081815260036020526040808220805460ff19166001179055517f68890463d3d0b807e70013783a20379c749ad85cc45538410019d8d52970d5be9190a250565b6006602090815260009283526040808420909152908252902080546001820180546001600160a01b03831693600160a01b90930460ff16929190610935906119f9565b80601f0160208091040260200160405190810160405280929190818152602001828054610961906119f9565b80156109ae5780601f10610983576101008083540402835291602001916109ae565b820191906000526020600020905b81548152906001019060200180831161099157829003601f168201915b5050505050905083565b604051653bb7b935b2b960d11b60208201526000906026016040516020818303038152906040528051906020012083836040516020016109f9929190611a33565b604051602081830303815290604052805190602001201480610a6e57506040516732b6b83637bcb2b960c11b6020820152602801604051602081830303815290604052805190602001208383604051602001610a56929190611a33565b60405160208183030381529060405280519060200120145b610aab5760405162461bcd60e51b815260206004820152600e60248201526d24b73b30b634b21037b832b732b960911b604482015260640161089d565b60408051602081018890526bffffffffffffffffffffffff193360601b169181019190915242605482015260009060740160408051601f198184030181528282528051602091820120610120840183528084528382018b905233848401528251601f8a0183900483028101830190935288835293506060830191908990899081908401838280828437600092019190915250505090825250604080516020601f8801819004810282018101909252868152918101919087908790819084018382808284376000920182905250938552505050602080830182905260408051808301825283815281850152426060808601919091526080909401839052858352600482529182902084518155908401516001820155908301516002820180546001600160a01b0319166001600160a01b03909216919091179055908201516003820190610bf79082611aa9565b5060808201516004820190610c0c9082611aa9565b5060a082015160058201805460ff191691151591909117905560c08201516006820190610c399082611aa9565b5060e0820151600780830191909155610100909201516008909101558054906000610c6383611b69565b919050555086817f8b8ed6684ff2efcb9e5067826a5d5ee78c76198756f203117b56e1363a62c4ce338989604051610c9d93929190611bb9565b60405180910390a39695505050505050565b60056020528160005260406000208181548110610ccb57600080fd5b6000918252602090912001546001600160a01b03169150829050565b610cef610fa5565b610cf96000610fd2565b565b610d03611022565b3360009081526003602052604090205460ff16610d595760405162461bcd60e51b81526020600482015260146024820152734e6f742061207665726966696564206a7564676560601b604482015260640161089d565b6000838152600460205260409020600581015460ff1615610dbc5760405162461bcd60e51b815260206004820152601860248201527f4469737075746520616c7265616479207265736f6c7665640000000000000000604482015260640161089d565b600084815260066020908152604080832033845290915290208054600160a01b900460ff1615610e245760405162461bcd60e51b8152602060048201526013602482015272129d5919d948185b1c9958591e481c9d5b1959606a1b604482015260640161089d565b805460ff60a01b1933166001600160a81b031990911617600160a01b17815560018101610e52848683611bde565b5060008581526005602090815260408083208054600181018255908452919092200180546001600160a01b03191633908117909155905186907f4a02274e718b8d5c530552586c70487f5230ae656cb4504a9ceed61b167728cb90610eba9088908890611c9e565b60405180910390a3610ecb85611050565b5050610ef660017f9b779b17422d0df92223018b32b4d1fa46e071723d6817e2486d003becc55f0055565b505050565b600081815260056020908152604091829020805483518184028101840190945280845260609392830182828015610f5b57602002820191906000526020600020905b81546001600160a01b03168152600190910190602001808311610f3d575b50505050509050919050565b610f6f610fa5565b6001600160a01b038116610f9957604051631e4fbdf760e01b81526000600482015260240161089d565b610fa281610fd2565b50565b6000546001600160a01b03163314610cf95760405163118cdaa760e01b815233600482015260240161089d565b600080546001600160a01b038381166001600160a01b0319831681178455604051919092169283917f8be0079c531659141344cd1fd0a4f28419497f9722a3daafe3b4186f6b6457e09190a35050565b61102a61137c565b60027f9b779b17422d0df92223018b32b4d1fa46e071723d6817e2486d003becc55f0055565b6000818152600460205260409020600581015460ff16156110a65760405162461bcd60e51b815260206004820152601060248201526f105b1c9958591e481c995cdbdb1d995960821b604482015260640161089d565b60008281526005602090815260408083208054825181850281018501909352808352919290919083018282801561110657602002820191906000526020600020905b81546001600160a01b031681526001909101906020018083116110e8575b5050505050905060028151101561111c57505050565b60008060005b83518110156112e55760008681526006602052604081208551829087908590811061114f5761114f611cb2565b60200260200101516001600160a01b03166001600160a01b031681526020019081526020016000206001018054611185906119f9565b80601f01602080910402602001604051908101604052809291908181526020018280546111b1906119f9565b80156111fe5780601f106111d3576101008083540402835291602001916111fe565b820191906000526020600020905b8154815290600101906020018083116111e157829003601f168201915b5050505050905060405160200161122190653bb7b935b2b960d11b815260060190565b60405160208183030381529060405280519060200120816040516020016112489190611cc8565b6040516020818303038152906040528051906020012003611275578361126d81611b69565b9450506112dc565b6040516732b6b83637bcb2b960c11b602082015260280160405160208183030381529060405280519060200120816040516020016112b39190611cc8565b60405160208183030381529060405280519060200120036112dc57826112d881611b69565b9350505b50600101611122565b50600282101580156112f657508082115b1561132d57611328856040518060400160405280600b81526020016a1ddbdc9ad95c97dc185a5960aa1b8152506113be565b611375565b6002811015801561133d57508181115b15611375576113758560405180604001604052806011815260200170195b5c1b1bde595c97dc99599d5b991959607a1b8152506113be565b5050505050565b7f9b779b17422d0df92223018b32b4d1fa46e071723d6817e2486d003becc55f0054600203610cf957604051633ee5aeb560e01b815260040160405180910390fd5b600082815260046020526040902060058101805460ff19166001179055600681016113e98382611aa9565b50426008820155600180549082015460405163f023b81160e01b81526004810191909152600091829182916001600160a01b03169063f023b8119060240160c060405180830381865afa158015611444573d6000803e3d6000fd5b505050506040513d601f19601f820116820180604052508101906114689190611cf9565b505050925092509250604051602001611492906a1ddbdc9ad95c97dc185a5960aa1b8152600b0190565b60405160208183030381529060405280519060200120856040516020016114b99190611cc8565b6040516020818303038152906040528051906020012003611549576001805490850154604051635ae8df2960e01b81526001600160a01b0390921691635ae8df2991611512918790600401918252602082015260400190565b600060405180830381600087803b15801561152c57600080fd5b505af1158015611540573d6000803e3d6000fd5b505050506115b3565b6001805490850154604051635f04fe6d60e11b81526001600160a01b039092169163be09fcda916115809160040190815260200190565b600060405180830381600087803b15801561159a57600080fd5b505af11580156115ae573d6000803e3d6000fd5b505050505b8360010154867f08f60392c366acc3b3575e4dfe27e80b7ffb1df6935d0023358e131ffe71c468876040516115e89190611d64565b60405180910390a3505050505050565b6001600160a01b0381168114610fa257600080fd5b6000806040838503121561162057600080fd5b823591506020830135611632816115f8565b809150509250929050565b60005b83811015611658578181015183820152602001611640565b50506000910152565b6000815180845261167981602086016020860161163d565b601f01601f19169290920160200192915050565b6020815260018060a01b038251166020820152602082015115156040820152600060408301516060808401526116c66080840182611661565b949350505050565b6000602082840312156116e057600080fd5b5035919050565b898152602081018990526001600160a01b0388166040820152610120606082018190526000906117198382018a611661565b9050828103608084015261172d8189611661565b905086151560a084015282810360c08401526117498187611661565b60e084019590955250506101000152979650505050505050565b6020815281516020820152602082015160408201526000604083015161179460608401826001600160a01b03169052565b5060608301516101208060808501526117b1610140850183611661565b91506080850151601f19808685030160a08701526117cf8483611661565b935060a087015191506117e660c087018315159052565b60c08701519150808685030160e0870152506118028382611661565b60e087015161010087810191909152909601519190940152509192915050565b60006020828403121561183457600080fd5b813561183f816115f8565b9392505050565b6001600160a01b0384168152821515602082015260606040820181905260009061187290830184611661565b95945050505050565b60008083601f84011261188d57600080fd5b50813567ffffffffffffffff8111156118a557600080fd5b6020830191508360208285010111156118bd57600080fd5b9250929050565b6000806000806000606086880312156118dc57600080fd5b85359450602086013567ffffffffffffffff808211156118fb57600080fd5b61190789838a0161187b565b9096509450604088013591508082111561192057600080fd5b5061192d8882890161187b565b969995985093965092949392505050565b6000806040838503121561195157600080fd5b50508035926020909101359150565b60008060006040848603121561197557600080fd5b83359250602084013567ffffffffffffffff81111561199357600080fd5b61199f8682870161187b565b9497909650939450505050565b6020808252825182820181905260009190848201906040850190845b818110156119ed5783516001600160a01b0316835292840192918401916001016119c8565b50909695505050505050565b600181811c90821680611a0d57607f821691505b602082108103611a2d57634e487b7160e01b600052602260045260246000fd5b50919050565b8183823760009101908152919050565b634e487b7160e01b600052604160045260246000fd5b601f821115610ef6576000816000526020600020601f850160051c81016020861015611a825750805b601f850160051c820191505b81811015611aa157828155600101611a8e565b505050505050565b815167ffffffffffffffff811115611ac357611ac3611a43565b611ad781611ad184546119f9565b84611a59565b602080601f831160018114611b0c5760008415611af45750858301515b600019600386901b1c1916600185901b178555611aa1565b600085815260208120601f198616915b82811015611b3b57888601518255948401946001909101908401611b1c565b5085821015611b595787850151600019600388901b60f8161c191681555b5050505050600190811b01905550565b600060018201611b8957634e487b7160e01b600052601160045260246000fd5b5060010190565b81835281816020850137506000828201602090810191909152601f909101601f19169091010190565b6001600160a01b03841681526040602082018190526000906118729083018486611b90565b67ffffffffffffffff831115611bf657611bf6611a43565b611c0a83611c0483546119f9565b83611a59565b6000601f841160018114611c3e5760008515611c265750838201355b600019600387901b1c1916600186901b178355611375565b600083815260209020601f19861690835b82811015611c6f5786850135825560209485019460019092019101611c4f565b5086821015611c8c5760001960f88860031b161c19848701351681555b505060018560011b0183555050505050565b6020815260006116c6602083018486611b90565b634e487b7160e01b600052603260045260246000fd5b60008251611cda81846020870161163d565b9190910192915050565b80518015158114611cf457600080fd5b919050565b60008060008060008060c08789031215611d1257600080fd5b865195506020870151611d24816115f8565b6040880151909550611d35816115f8565b9350611d4360608801611ce4565b9250611d5160808801611ce4565b915060a087015190509295509295509295565b60208152600061183f602083018461166156fea26469706673582212203c551378f703f0da453ea9ed0c5869c1174511748b21d33ba940934ce8e2183664736f6c63430008180033",
  "linkReferences": {},
  "deployedLinkReferences": {}
}