{
  "_format": "hh-sol-artifact-1",
  "contractName": "JobRegistry",
  "sourceName": "contracts/JobRegistry.sol",
  "abi": [
    {
      "inputs": [],
      "stateMutability": "nonpayable",
      "type": "constructor"
    },
    {
      "inputs": [
        {
          "internalType": "address",
          "name": "owner",
          "type": "address"
        }
      ],
      "name": "OwnableInvalidOwner",
      "type": "error"
    },
    {
      "inputs": [
        {
          "internalType": "address",
          "name": "account",
          "type": "address"
        }
      ],
      "name": "OwnableUnauthorizedAccount",
      "type": "error"
    },
    {
      "inputs": [],
      "name": "ReentrancyGuardReentrantCall",
      "type": "error"
    },
    {
      "anonymous": false,
      "inputs": [
        {
          "indexed": true,
          "internalType": "address",
          "name": "employer",
          "type": "address"
        }
      ],
      "name": "EmployerVerified",
      "type": "event"
    },
    {
      "anonymous": false,
      "inputs": [
        {
          "indexed": true,
          "internalType": "bytes32",
          "name": "jobId",
          "type": "bytes32"
        }
      ],
      "name": "JobCanceled",
      "type": "event"
    },
    {
      "anonymous": false,
      "inputs": [
        {
          "indexed": true,
          "internalType": "bytes32",
          "name": "jobId",
          "type": "bytes32"
        },
        {
          "indexed": true,
          "internalType": "address",
          "name": "worker",
          "type": "address"
        }
      ],
      "name": "JobCompleted",
      "type": "event"
    },
    {
      "anonymous": false,
      "inputs": [
        {
          "indexed": true,
          "internalType": "bytes32",
          "name": "jobId",
          "type": "bytes32"
        },
        {
          "indexed": true,
          "internalType": "address",
          "name": "employer",
          "type": "address"
        },
        {
          "indexed": false,
          "internalType": "uint256",
          "name": "dailyRate",
          "type": "uint256"
        },
        {
          "indexed": false,
          "internalType": "string",
          "name": "location",
          "type": "string"
        },
        {
          "indexed": false,
          "internalType": "uint256",
          "name": "startDate",
          "type": "uint256"
        },
        {
          "indexed": false,
          "internalType": "uint256",
          "name": "endDate",
          "type": "uint256"
        }
      ],
      "name": "JobCreated",
      "type": "event"
    },
    {
      "anonymous": false,
      "inputs": [
        {
          "indexed": true,
          "internalType": "address",
          "name": "previousOwner",
          "type": "address"
        },
        {
          "indexed": true,
          "internalType": "address",
          "name": "newOwner",
          "type": "address"
        }
      ],
      "name": "OwnershipTransferred",
      "type": "event"
    },
    {
      "anonymous": false,
      "inputs": [
        {
          "indexed": true,
          "internalType": "bytes32",
          "name": "jobId",
          "type": "bytes32"
        },
        {
          "indexed": true,
          "internalType": "address",
          "name": "worker",
          "type": "address"
        }
      ],
      "name": "WorkerAssigned",
      "type": "event"
    },
    {
      "inputs": [
        {
          "internalType": "bytes32",
          "name": "jobId",
          "type": "bytes32"
        },
        {
          "internalType": "address",
          "name": "worker",
          "type": "address"
        }
      ],
      "name": "assignWorker",
      "outputs": [],
      "stateMutability": "nonpayable",
      "type": "function"
    },
    {
      "inputs": [
        {
          "internalType": "bytes32",
          "name": "jobId",
          "type": "bytes32"
        }
      ],
      "name": "cancelJob",
      "outputs": [],
      "stateMutability": "nonpayable",
      "type": "function"
    },
    {
      "inputs": [
        {
          "internalType": "bytes32",
          "name": "jobId",
          "type": "bytes32"
        }
      ],
      "name": "completeJob",
      "outputs": [],
      "stateMutability": "nonpayable",
      "type": "function"
    },
    {
      "inputs": [
        {
          "internalType": "uint256",
          "name": "dailyRateUSDC",
          "type": "uint256"
        },
        {
          "internalType": "uint256",
          "name": "startDate",
          "type": "uint256"
        },
        {
          "internalType": "uint256",
          "name": "endDate",
          "type": "uint256"
        },
        {
          "internalType": "string",
          "name": "location",
          "type": "string"
        }
      ],
      "name": "createJob",
      "outputs": [
        {
          "internalType": "bytes32",
          "name": "",
          "type": "bytes32"
        }
      ],
      "stateMutability": "nonpayable",
      "type": "function"
    },
    {
      "inputs": [
        {
          "internalType": "address",
          "name": "",
          "type": "address"
        },
        {
          "internalType": "uint256",
          "name": "",
          "type": "uint256"
        }
      ],
      "name": "employerJobs",
      "outputs": [
        {
          "internalType": "bytes32",
          "name": "",
          "type": "bytes32"
        }
      ],
      "stateMutability": "view",
      "type": "function"
    },
    {
      "inputs": [
        {
          "internalType": "address",
          "name": "employer",
          "type": "address"
        }
      ],
      "name": "getEmployerJobs",
      "outputs": [
        {
          "internalType": "bytes32[]",
          "name": "",
          "type": "bytes32[]"
        }
      ],
      "stateMutability": "view",
      "type": "function"
    },
    {
      "inputs": [
        {
          "internalType": "bytes32",
          "name": "jobId",
          "type": "bytes32"
        }
      ],
      "name": "getJob",
      "outputs": [
        {
          "components": [
            {
              "internalType": "bytes32",
              "name": "jobId",
              "type": "bytes32"
            },
            {
              "internalType": "address",
              "name": "employer",
              "type": "address"
            },
            {
              "internalType": "address",
              "name": "worker",
              "type": "address"
            },
            {
              "internalType": "uint256",
              "name": "dailyRateUSDC",
              "type": "uint256"
            },
            {
              "internalType": "uint256",
              "name": "startDate",
              "type": "uint256"
            },
            {
              "internalType": "uint256",
              "name": "endDate",
              "type": "uint256"
            },
            {
              "internalType": "bool",
              "name": "active",
              "type": "bool"
            },
            {
              "internalType": "string",
              "name": "hederaTopicId",
              "type": "string"
            },
            {
              "internalType": "string",
              "name": "location",
              "type": "string"
            },
            {
              "internalType": "uint256",
              "name": "createdAt",
              "type": "uint256"
            }
          ],
          "internalType": "struct JobRegistry.Job",
          "name": "",
          "type": "tuple"
        }
      ],
      "stateMutability": "view",
      "type": "function"
    },
    {
      "inputs": [
        {
          "internalType": "address",
          "name": "worker",
          "type": "address"
        }
      ],
      "name": "getWorkerJobs",
      "outputs": [
        {
          "internalType": "bytes32[]",
          "name": "",
          "type": "bytes32[]"
        }
      ],
      "stateMutability": "view",
      "type": "function"
    },
    {
      "inputs": [
        {
          "internalType": "address",
          "name": "employer",
          "type": "address"
        }
      ],
      "name": "isEmployerVerified",
      "outputs": [
        {
          "internalType": "bool",
          "name": "",
          "type": "bool"
        }
      ],
      "stateMutability": "view",
      "type": "function"
    },
    {
      "inputs": [
        {
          "internalType": "bytes32",
          "name": "",
          "type": "bytes32"
        }
      ],
      "name": "jobs",
      "outputs": [
        {
          "internalType": "bytes32",
          "name": "jobId",
          "type": "bytes32"
        },
        {
          "internalType": "address",
          "name": "employer",
          "type": "address"
        },
        {
          "internalType": "address",
          "name": "worker",
          "type": "address"
        },
        {
          "internalType": "uint256",
          "name": "dailyRateUSDC",
          "type": "uint256"
        },
        {
          "internalType": "uint256",
          "name": "startDate",
          "type": "uint256"
        },
        {
          "internalType": "uint256",
          "name": "endDate",
          "type": "uint256"
        },
        {
          "internalType": "bool",
          "name": "active",
          "type": "bool"
        },
        {
          "internalType": "string",
          "name": "hederaTopicId",
          "type": "string"
        },
        {
          "internalType": "string",
          "name": "location",
          "type": "string"
        },
        {
          "internalType": "uint256",
          "name": "createdAt",
          "type": "uint256"
        }
      ],
      "stateMutability": "view",
      "type": "function"
    },
    {
      "inputs": [],
      "name": "owner",
      "outputs": [
        {
          "internalType": "address",
          "name": "",
          "type": "address"
        }
      ],
      "stateMutability": "view",
      "type": "function"
    },
    {
      "inputs": [],
      "name": "renounceOwnership",
      "outputs": [],
      "stateMutability": "nonpayable",
      "type": "function"
    },
    {
      "inputs": [
        {
          "internalType": "address",
          "name": "employer",
          "type": "address"
        }
      ],
      "name": "setEmployerVerified",
      "outputs": [],
      "stateMutability": "nonpayable",
      "type": "function"
    },
    {
      "inputs": [
        {
          "internalType": "bytes32",
          "name": "jobId",
          "type": "bytes32"
        },
        {
          "internalType": "string",
          "name": "topicId",
          "type": "string"
        }
      ],
      "name": "setHederaTopic",
      "outputs": [],
      "stateMutability": "nonpayable",
      "type": "function"
    },
    {
      "inputs": [
        {
          "internalType": "address",
          "name": "newOwner",
          "type": "address"
        }
      ],
      "name": "transferOwnership",
      "outputs": [],
      "stateMutability": "nonpayable",
      "type": "function"
    },
    {
      "inputs": [
        {
          "internalType": "address",
          "name": "",
          "type": "address"
        }
      ],
      "name": "verifiedEmployers",
      "outputs": [
        {
          "internalType": "bool",
          "name": "",
          "type": "bool"
        }
      ],
      "stateMutability": "view",
      "type": "function"
    },
    {
      "inputs": [
        {
          "internalType": "address",
          "name": "",
          "type": "address"
        },
        {
          "internalType": "uint256",
          "name": "",
          "type": "uint256"
        }
      ],
      "name": "workerJobs",
      "outputs": [
        {
          "internalType": "bytes32",
          "name": "",
          "type": "bytes32"
        }
      ],
      "stateMutability": "view",
      "type": "function"
    }
  ],
  "bytecode": "0x608060405234801561001057600080fd5b50338061003757604051631e4fbdf760e01b81526000600482015260240160405180910390fd5b6100408161006a565b5060017f9b779b17422d0df92223018b32b4d1fa46e071723d6817e2486d003becc55f00556100ba565b600080546001600160a01b038381166001600160a01b0319831681178455604051919092169283917f8be0079c531659141344cd1fd0a4f28419497f9722a3daafe3b4186f6b6457e09190a35050565b611600806100c96000396000f3fe608060405234801561001057600080fd5b506004361061010b5760003560e01c8063715018a6116100a2578063b3cc221d11610071578063b3cc221d14610266578063d6316d7814610279578063f2fde38b1461028c578063f729cf0d1461029f578063fc736cde146102bf57600080fd5b8063715018a6146102045780638da5cb5b1461020c578063991e013914610227578063b12b05411461023a57600080fd5b80635fae1450116100de5780635fae14501461018a5780636204045e1461019d5780636c0f1cf3146101b05780636e59ef7a146101e357600080fd5b806306d004ef14610110578063260a81e01461013957806338ed7cfc1461014e5780635f58cb4f14610177575b600080fd5b61012361011e366004610fee565b6102d2565b6040516101309190611010565b60405180910390f35b61014c61014736600461109d565b61033e565b005b61016161015c3660046110e9565b6103c9565b6040516101309a99989796959493929190611148565b610123610185366004610fee565b61053c565b61014c6101983660046110e9565b6105a6565b61014c6101ab3660046111c6565b610671565b6101d36101be366004610fee565b60026020526000908152604090205460ff1681565b6040519015158152602001610130565b6101f66101f13660046111f2565b6107b8565b604051908152602001610130565b61014c6107e9565b6000546040516001600160a01b039091168152602001610130565b61014c6102353660046110e9565b6107fd565b6101d3610248366004610fee565b6001600160a01b031660009081526002602052604090205460ff1690565b61014c610274366004610fee565b610926565b6101f661028736600461121c565b6109d0565b61014c61029a366004610fee565b610cfd565b6102b26102ad3660046110e9565b610d3b565b604051610130919061127d565b6101f66102cd3660046111f2565b610f39565b6001600160a01b03811660009081526004602090815260409182902080548351818402810184019094528084526060939283018282801561033257602002820191906000526020600020905b81548152602001906001019080831161031e575b50505050509050919050565b6000838152600160208190526040909120908101546001600160a01b031633148061037357506000546001600160a01b031633145b6103b35760405162461bcd60e51b815260206004820152600c60248201526b155b985d5d1a1bdc9a5e995960a21b60448201526064015b60405180910390fd5b600781016103c28385836113db565b5050505050565b6001602081905260009182526040909120805491810154600282015460038301546004840154600585015460068601546007870180546001600160a01b0397881698969097169694959394929360ff9092169261042590611350565b80601f016020809104026020016040519081016040528092919081815260200182805461045190611350565b801561049e5780601f106104735761010080835404028352916020019161049e565b820191906000526020600020905b81548152906001019060200180831161048157829003601f168201915b5050505050908060080180546104b390611350565b80601f01602080910402602001604051908101604052809291908181526020018280546104df90611350565b801561052c5780601f106105015761010080835404028352916020019161052c565b820191906000526020600020905b81548152906001019060200180831161050f57829003601f168201915b505050505090806009015490508a565b6001600160a01b038116600090815260036020908152604091829020805483518184028101840190945280845260609392830182828015610332576020028201919060005260206000209081548152602001906001019080831161031e5750505050509050919050565b6000818152600160208190526040909120908101546001600160a01b031633146106125760405162461bcd60e51b815260206004820152601860248201527f4f6e6c7920656d706c6f7965722063616e2063616e63656c000000000000000060448201526064016103aa565b600681015460ff166106365760405162461bcd60e51b81526004016103aa9061149b565b60068101805460ff1916905560405182907fa740eee78ea8ce39a4c0ffd07410706b007d1275b57d0650f937117596a1694f90600090a25050565b6000828152600160208190526040909120908101546001600160a01b031633146106dd5760405162461bcd60e51b815260206004820152601860248201527f4f6e6c7920656d706c6f7965722063616e2061737369676e000000000000000060448201526064016103aa565b600681015460ff166107015760405162461bcd60e51b81526004016103aa9061149b565b6001600160a01b0382166107485760405162461bcd60e51b815260206004820152600e60248201526d24b73b30b634b2103bb7b935b2b960911b60448201526064016103aa565b6002810180546001600160a01b0319166001600160a01b038416908117909155600081815260046020908152604080832080546001810182559084529183209091018690555185917f99c30ec3de7646217b730979671a5ace0c1d7153dfa864b3dfe61b298d86790d91a3505050565b600460205281600052604060002081815481106107d457600080fd5b90600052602060002001600091509150505481565b6107f1610f55565b6107fb6000610f82565b565b6000818152600160205260409020600681015460ff1661082f5760405162461bcd60e51b81526004016103aa9061149b565b60018101546001600160a01b0316331461088b5760405162461bcd60e51b815260206004820152601a60248201527f4f6e6c7920656d706c6f7965722063616e20636f6d706c65746500000000000060448201526064016103aa565b60028101546001600160a01b03166108da5760405162461bcd60e51b8152602060048201526012602482015271139bc81ddbdc9ad95c88185cdcda59db995960721b60448201526064016103aa565b60068101805460ff1916905560028101546040516001600160a01b039091169083907f2eb232e6016c02184be27a83e4de89963f9a5503522a4f7899aad0fd26f9338390600090a35050565b61092e610f55565b6001600160a01b0381166109845760405162461bcd60e51b815260206004820152601860248201527f496e76616c696420656d706c6f7965722061646472657373000000000000000060448201526064016103aa565b6001600160a01b038116600081815260026020526040808220805460ff19166001179055517fb22cb4b7847577ada45791c29742b76fcf48b4878f409d060ca78414ba93d70d9190a250565b3360008181526002602052604081205490919060ff16610a3c5760405162461bcd60e51b815260206004820152602160248201527f456d706c6f796572206e6f7420766572696669656420627920576f726c6420496044820152601160fa1b60648201526084016103aa565b60008711610a7f5760405162461bcd60e51b815260206004820152601060248201526f052617465206d757374206265203e20360841b60448201526064016103aa565b848610610abe5760405162461bcd60e51b815260206004820152600d60248201526c496e76616c696420646174657360981b60448201526064016103aa565b42861015610b0e5760405162461bcd60e51b815260206004820152601c60248201527f53746172742064617465206d75737420626520696e206675747572650000000060448201526064016103aa565b6040516bffffffffffffffffffffffff193360601b16602082015242603482015243605482015260009060740160408051601f1981840301815282825280516020918201206101408401835280845233848301526000848401819052606085018d9052608085018c905260a085018b9052600160c08601528351808401855290815260e08501528251601f890183900483028101830190935287835293506101008301919088908890819084018382808284376000920182905250938552505042602093840152508381526001808352604091829020845181559284015190830180546001600160a01b03199081166001600160a01b0393841617909155918401516002840180549093169116179055606082015160038201556080820151600482015560a0820151600582015560c082015160068201805460ff191691151591909117905560e08201516007820190610c6890826114c3565b506101008201516008820190610c7e90826114c3565b506101209190910151600990910155336000818152600360209081526040808320805460018101825590845291909220018390555182907f5751b608c1d4830abffbe9077411a3ba61291c6142ae2f670ec055d90fa5d28290610cea908c908a908a908e908e90611583565b60405180910390a3979650505050505050565b610d05610f55565b6001600160a01b038116610d2f57604051631e4fbdf760e01b8152600060048201526024016103aa565b610d3881610f82565b50565b604080516101408101825260008082526020820181905291810182905260608082018390526080820183905260a0820183905260c0820183905260e0820181905261010082015261012081019190915260008281526001602081815260409283902083516101408101855281548152928101546001600160a01b03908116928401929092526002810154909116928201929092526003820154606082015260048201546080820152600582015460a0820152600682015460ff16151560c082015260078201805491929160e084019190610e1490611350565b80601f0160208091040260200160405190810160405280929190818152602001828054610e4090611350565b8015610e8d5780601f10610e6257610100808354040283529160200191610e8d565b820191906000526020600020905b815481529060010190602001808311610e7057829003601f168201915b50505050508152602001600882018054610ea690611350565b80601f0160208091040260200160405190810160405280929190818152602001828054610ed290611350565b8015610f1f5780601f10610ef457610100808354040283529160200191610f1f565b820191906000526020600020905b815481529060010190602001808311610f0257829003601f168201915b505050505081526020016009820154815250509050919050565b600360205281600052604060002081815481106107d457600080fd5b6000546001600160a01b031633146107fb5760405163118cdaa760e01b81523360048201526024016103aa565b600080546001600160a01b038381166001600160a01b0319831681178455604051919092169283917f8be0079c531659141344cd1fd0a4f28419497f9722a3daafe3b4186f6b6457e09190a35050565b80356001600160a01b0381168114610fe957600080fd5b919050565b60006020828403121561100057600080fd5b61100982610fd2565b9392505050565b6020808252825182820181905260009190848201906040850190845b818110156110485783518352928401929184019160010161102c565b50909695505050505050565b60008083601f84011261106657600080fd5b50813567ffffffffffffffff81111561107e57600080fd5b60208301915083602082850101111561109657600080fd5b9250929050565b6000806000604084860312156110b257600080fd5b83359250602084013567ffffffffffffffff8111156110d057600080fd5b6110dc86828701611054565b9497909650939450505050565b6000602082840312156110fb57600080fd5b5035919050565b6000815180845260005b818110156111285760208185018101518683018201520161110c565b506000602082860101526020601f19601f83011685010191505092915050565b8a81526001600160a01b038a8116602083015289166040820152606081018890526080810187905260a0810186905284151560c082015261014060e0820181905260009061119883820187611102565b90508281036101008401526111ad8186611102565b915050826101208301529b9a5050505050505050505050565b600080604083850312156111d957600080fd5b823591506111e960208401610fd2565b90509250929050565b6000806040838503121561120557600080fd5b61120e83610fd2565b946020939093013593505050565b60008060008060006080868803121561123457600080fd5b853594506020860135935060408601359250606086013567ffffffffffffffff81111561126057600080fd5b61126c88828901611054565b969995985093965092949392505050565b6020815281516020820152600060208301516112a460408401826001600160a01b03169052565b5060408301516001600160a01b03811660608401525060608301516080830152608083015160a083015260a083015160c083015260c08301516112eb60e084018215159052565b5060e0830151610140610100818186015261130a610160860184611102565b9250808601519050610120601f19868503018187015261132a8483611102565b9601519190940152509192915050565b634e487b7160e01b600052604160045260246000fd5b600181811c9082168061136457607f821691505b60208210810361138457634e487b7160e01b600052602260045260246000fd5b50919050565b601f8211156113d6576000816000526020600020601f850160051c810160208610156113b35750805b601f850160051c820191505b818110156113d2578281556001016113bf565b5050505b505050565b67ffffffffffffffff8311156113f3576113f361133a565b611407836114018354611350565b8361138a565b6000601f84116001811461143b57600085156114235750838201355b600019600387901b1c1916600186901b1783556103c2565b600083815260209020601f19861690835b8281101561146c578685013582556020948501946001909201910161144c565b50868210156114895760001960f88860031b161c19848701351681555b505060018560011b0183555050505050565b6020808252600e908201526d4a6f62206e6f742061637469766560901b604082015260600190565b815167ffffffffffffffff8111156114dd576114dd61133a565b6114f1816114eb8454611350565b8461138a565b602080601f831160018114611526576000841561150e5750858301515b600019600386901b1c1916600185901b1785556113d2565b600085815260208120601f198616915b8281101561155557888601518255948401946001909101908401611536565b50858210156115735787850151600019600388901b60f8161c191681555b5050505050600190811b01905550565b85815260806020820152836080820152838560a0830137600060a08583010152600060a0601f19601f8701168301019050836040830152826060830152969550505050505056fea2646970667358221220413d19eedd608cd04b7ebb68829c184f05654e6be96d8b1e5f7cf0a23257cdee64736f6c63430008180033",
  "linkReferences": {},
  "deployedLinkReferences": {}
}