{"contracts/DisputeCourt.sol":{"DisputeCourt":{"abi":[{"inputs":[{"internalType":"address","name":"_workEscrow","type":"address"},{"internalType":"address","name":"_jobRegistry","type":"address"}],"stateMutability":"nonpayable","type":"constructor"},{"inputs":[{"internalType":"address","name":"owner","type":"address"}],"name":"OwnableInvalidOwner","type":"error"},{"inputs":[{"internalType":"address","name":"account","type":"address"}],"name":"OwnableUnauthorizedAccount","type":"error"},{"inputs":[],"name":"ReentrancyGuardReentrantCall","type":"error"},{"anonymous":false,"inputs":[{"indexed":true,"internalType":"bytes32","name":"disputeId","type":"bytes32"},{"indexed":true,"internalType":"bytes32","name":"jobId","type":"bytes32"},{"indexed":false,"internalType":"address","name":"opener","type":"address"},{"indexed":false,"internalType":"string","name":"reason","type":"string"}],"name":"DisputeOpened","type":"event"},{"anonymous":false,"inputs":[{"indexed":true,"internalType":"bytes32","name":"disputeId","type":"bytes32"},{"indexed":true,"internalType":"bytes32","name":"jobId","type":"bytes32"},{"indexed":false,"internalType":"string","name":"resolution","type":"string"}],"name":"DisputeResolved","type":"event"},{"anonymous":false,"inputs":[{"indexed":true,"internalType":"address","name":"judge","type":"address"}],"name":"JudgeVerified","type":"event"},{"anonymous":false,"inputs":[{"indexed":true,"internalType":"address","name":"previousOwner","type":"address"},{"indexed":true,"internalType":"address","name":"newOwner","type":"address"}],"name":"OwnershipTransferred","type":"event"},{"anonymous":false,"inputs":[{"indexed":true,"internalType":"bytes32","name":"disputeId","type":"bytes32"},{"indexed":true,"internalType":"address","name":"judge","type":"address"},{"indexed":false,"internalType":"string","name":"decision","type":"string"}],"name":"RulingSubmitted","type":"event"},{"inputs":[{"internalType":"bytes32","name":"","type":"bytes32"},{"internalType":"uint256","name":"","type":"uint256"}],"name":"disputeJudges","outputs":[{"internalType":"address","name":"","type":"address"}],"stateMutability":"view","type":"function"},{"inputs":[{"internalType":"bytes32","name":"","type":"bytes32"}],"name":"disputes","outputs":[{"internalType":"bytes32","name":"disputeId","type":"bytes32"},{"internalType":"bytes32","name":"jobId","type":"bytes32"},{"internalType":"address","name":"opener","type":"address"},{"internalType":"string","name":"reason","type":"string"},{"internalType":"string","name":"openedBy","type":"string"},{"internalType":"bool","name":"resolved","type":"bool"},{"internalType":"string","name":"resolution","type":"string"},{"internalType":"uint256","name":"createdAt","type":"uint256"},{"internalType":"uint256","name":"resolvedAt","type":"uint256"}],"stateMutability":"view","type":"function"},{"inputs":[{"internalType":"bytes32","name":"disputeId","type":"bytes32"}],"name":"getDispute","outputs":[{"components":[{"internalType":"bytes32","name":"disputeId","type":"bytes32"},{"internalType":"bytes32","name":"jobId","type":"bytes32"},{"internalType":"address","name":"opener","type":"address"},{"internalType":"string","name":"reason","type":"string"},{"internalType":"string","name":"openedBy","type":"string"},{"internalType":"bool","name":"resolved","type":"bool"},{"internalType":"string","name":"resolution","type":"string"},{"internalType":"uint256","name":"createdAt","type":"uint256"},{"internalType":"uint256","name":"resolvedAt","type":"uint256"}],"internalType":"struct DisputeCourt.Dispute","name":"","type":"tuple"}],"stateMutability":"view","type":"function"},{"inputs":[{"internalType":"bytes32","name":"disputeId","type":"bytes32"}],"name":"getDisputeJudges","outputs":[{"internalType":"address[]","name":"","type":"address[]"}],"stateMutability":"view","type":"function"},{"inputs":[{"internalType":"bytes32","name":"disputeId","type":"bytes32"},{"internalType":"address","name":"judge","type":"address"}],"name":"getRuling","outputs":[{"components":[{"internalType":"address","name":"judge","type":"address"},{"internalType":"bool","name":"hasRuled","type":"bool"},{"internalType":"string","name":"decision","type":"string"}],"internalType":"struct DisputeCourt.Ruling","name":"","type":"tuple"}],"stateMutability":"view","type":"function"},{"inputs":[{"internalType":"address","name":"judge","type":"address"}],"name":"isJudgeVerified","outputs":[{"internalType":"bool","name":"","type":"bool"}],"stateMutability":"view","type":"function"},{"inputs":[],"name":"jobRegistry","outputs":[{"internalType":"contract IJobRegistry","name":"","type":"address"}],"stateMutability":"view","type":"function"},{"inputs":[{"internalType":"bytes32","name":"jobId","type":"bytes32"},{"internalType":"string","name":"reason","type":"string"},{"internalType":"string","name":"openedBy","type":"string"}],"name":"openDispute","outputs":[{"internalType":"bytes32","name":"","type":"bytes32"}],"stateMutability":"nonpayable","type":"function"},{"inputs":[],"name":"owner","outputs":[{"internalType":"address","name":"","type":"address"}],"stateMutability":"view","type":"function"},{"inputs":[{"internalType":"address","name":"judge","type":"address"}],"name":"registerJudge","outputs":[],"stateMutability":"nonpayable","type":"function"},{"inputs":[],"name":"renounceOwnership","outputs":[],"stateMutability":"nonpayable","type":"function"},{"inputs":[{"internalType":"bytes32","name":"","type":"bytes32"},{"internalType":"address","name":"","type":"address"}],"name":"rulings","outputs":[{"internalType":"address","name":"judge","type":"address"},{"internalType":"bool","name":"hasRuled","type":"bool"},{"internalType":"string","name":"decision","type":"string"}],"stateMutability":"view","type":"function"},{"inputs":[{"internalType":"bytes32","name":"disputeId","type":"bytes32"},{"internalType":"string","name":"decision","type":"string"}],"name":"submitRuling","outputs":[],"stateMutability":"nonpayable","type":"function"},{"inputs":[],"name":"totalDisputes","outputs":[{"internalType":"uint256","name":"","type":"uint256"}],"stateMutability":"view","type":"function"},{"inputs":[{"internalType":"address","name":"newOwner","type":"address"}],"name":"transferOwnership","outputs":[],"stateMutability":"nonpayable","type":"function"},{"inputs":[{"internalType":"address","name":"","type":"address"}],"name":"verifiedJudges","outputs":[{"internalType":"bool","name":"","type":"bool"}],"stateMutability":"view","type":"function"},{"inputs":[],"name":"workEscrow","outputs":[{"internalType":"contract IWorkEscrow","name":"","type":"address"}],"stateMutability":"view","type":"function"}],"evm":{"bytecode":{"linkReferences":{},"object":"608060405260006007553480156200001657600080fd5b5060405162001f2438038062001f2483398101604081905262000039916200012f565b33806200006057604051631e4fbdf760e01b81526000600482015260240160405180910390fd5b6200006b81620000c2565b5060017f9b779b17422d0df92223018b32b4d1fa46e071723d6817e2486d003becc55f0055600180546001600160a01b039384166001600160a01b0319918216179091556002805492909316911617905562000167565b600080546001600160a01b038381166001600160a01b0319831681178455604051919092169283917f8be0079c531659141344cd1fd0a4f28419497f9722a3daafe3b4186f6b6457e09190a35050565b80516001600160a01b03811681146200012a57600080fd5b919050565b600080604083850312156200014357600080fd5b6200014e8362000112565b91506200015e6020840162000112565b90509250929050565b611dad80620001776000396000f3fe608060405234801561001057600080fd5b506004361061010b5760003560e01c80635dcdef88116100a2578063a352453911610071578063a352453914610276578063c5e4ccc414610296578063dd43b73f1461029f578063e567bc27146102cb578063f2fde38b146102de57600080fd5b80635dcdef8814610237578063715018a61461024a5780637e598805146102525780638da5cb5b1461026557600080fd5b806327290bd8116100de57806327290bd8146101ac5780632eefb40b146101c157806337a0ca3e146101f457806355297f741461021657600080fd5b806305a23e381461011057806311be199714610139578063136ba6aa1461016157806323682c4714610181575b600080fd5b61012361011e36600461160d565b6102f1565b604051610130919061168d565b60405180910390f35b61014c6101473660046116ce565b6103f2565b604051610130999897969594939291906116e7565b61017461016f3660046116ce565b6105e6565b6040516101309190611763565b600254610194906001600160a01b031681565b6040516001600160a01b039091168152602001610130565b6101bf6101ba366004611822565b610853565b005b6101e46101cf366004611822565b60036020526000908152604090205460ff1681565b6040519015158152602001610130565b61020761020236600461160d565b6108f2565b60405161013093929190611846565b6102296102243660046118c4565b6109b8565b604051908152602001610130565b61019461024536600461193e565b610caf565b6101bf610ce7565b6101bf610260366004611960565b610cfb565b6000546001600160a01b0316610194565b6102896102843660046116ce565b610efb565b60405161013091906119ac565b61022960075481565b6101e46102ad366004611822565b6001600160a01b031660009081526003602052604090205460ff1690565b600154610194906001600160a01b031681565b6101bf6102ec366004611822565b610f67565b6040805160608082018352600080835260208301529181019190915260008381526006602090815260408083206001600160a01b03868116855290835292819020815160608101835281549485168152600160a01b90940460ff1615159284019290925260018201805491840191610368906119f9565b80601f0160208091040260200160405190810160405280929190818152602001828054610394906119f9565b80156103e15780601f106103b6576101008083540402835291602001916103e1565b820191906000526020600020905b8154815290600101906020018083116103c457829003601f168201915b505050505081525050905092915050565b6004602052600090815260409020805460018201546002830154600384018054939492936001600160a01b03909216929161042c906119f9565b80601f0160208091040260200160405190810160405280929190818152602001828054610458906119f9565b80156104a55780601f1061047a576101008083540402835291602001916104a5565b820191906000526020600020905b81548152906001019060200180831161048857829003601f168201915b5050505050908060040180546104ba906119f9565b80601f01602080910402602001604051908101604052809291908181526020018280546104e6906119f9565b80156105335780601f1061050857610100808354040283529160200191610533565b820191906000526020600020905b81548152906001019060200180831161051657829003601f168201915b5050506005840154600685018054949560ff909216949193509150610557906119f9565b80601f0160208091040260200160405190810160405280929190818152602001828054610583906119f9565b80156105d05780601f106105a5576101008083540402835291602001916105d0565b820191906000526020600020905b8154815290600101906020018083116105b357829003601f168201915b5050505050908060070154908060080154905089565b6040805161012080820183526000808352602080840182905283850182905260608085018190526080850181905260a0850183905260c0850181905260e0850183905261010085018390528683526004825291859020855193840186528054845260018101549184019190915260028101546001600160a01b031694830194909452600384018054939492939184019161067f906119f9565b80601f01602080910402602001604051908101604052809291908181526020018280546106ab906119f9565b80156106f85780601f106106cd576101008083540402835291602001916106f8565b820191906000526020600020905b8154815290600101906020018083116106db57829003601f168201915b50505050508152602001600482018054610711906119f9565b80601f016020809104026020016040519081016040528092919081815260200182805461073d906119f9565b801561078a5780601f1061075f5761010080835404028352916020019161078a565b820191906000526020600020905b81548152906001019060200180831161076d57829003601f168201915b5050509183525050600582015460ff16151560208201526006820180546040909201916107b6906119f9565b80601f01602080910402602001604051908101604052809291908181526020018280546107e2906119f9565b801561082f5780601f106108045761010080835404028352916020019161082f565b820191906000526020600020905b81548152906001019060200180831161081257829003601f168201915b50505050508152602001600782015481526020016008820154815250509050919050565b61085b610fa5565b6001600160a01b0381166108a65760405162461bcd60e51b815260206004820152600d60248201526c496e76616c6964206a7564676560981b60448201526064015b60405180910390fd5b6001600160a01b038116600081815260036020526040808220805460ff19166001179055517f68890463d3d0b807e70013783a20379c749ad85cc45538410019d8d52970d5be9190a250565b6006602090815260009283526040808420909152908252902080546001820180546001600160a01b03831693600160a01b90930460ff16929190610935906119f9565b80601f0160208091040260200160405190810160405280929190818152602001828054610961906119f9565b80156109ae5780601f10610983576101008083540402835291602001916109ae565b820191906000526020600020905b81548152906001019060200180831161099157829003601f168201915b5050505050905083565b604051653bb7b935b2b960d11b60208201526000906026016040516020818303038152906040528051906020012083836040516020016109f9929190611a33565b604051602081830303815290604052805190602001201480610a6e57506040516732b6b83637bcb2b960c11b6020820152602801604051602081830303815290604052805190602001208383604051602001610a56929190611a33565b60405160208183030381529060405280519060200120145b610aab5760405162461bcd60e51b815260206004820152600e60248201526d24b73b30b634b21037b832b732b960911b604482015260640161089d565b60408051602081018890526bffffffffffffffffffffffff193360601b169181019190915242605482015260009060740160408051601f198184030181528282528051602091820120610120840183528084528382018b905233848401528251601f8a0183900483028101830190935288835293506060830191908990899081908401838280828437600092019190915250505090825250604080516020601f8801819004810282018101909252868152918101919087908790819084018382808284376000920182905250938552505050602080830182905260408051808301825283815281850152426060808601919091526080909401839052858352600482529182902084518155908401516001820155908301516002820180546001600160a01b0319166001600160a01b03909216919091179055908201516003820190610bf79082611aa9565b5060808201516004820190610c0c9082611aa9565b5060a082015160058201805460ff191691151591909117905560c08201516006820190610c399082611aa9565b5060e0820151600780830191909155610100909201516008909101558054906000610c6383611b69565b919050555086817f8b8ed6684ff2efcb9e5067826a5d5ee78c76198756f203117b56e1363a62c4ce338989604051610c9d93929190611bb9565b60405180910390a39695505050505050565b60056020528160005260406000208181548110610ccb57600080fd5b6000918252602090912001546001600160a01b03169150829050565b610cef610fa5565b610cf96000610fd2565b565b610d03611022565b3360009081526003602052604090205460ff16610d595760405162461bcd60e51b81526020600482015260146024820152734e6f742061207665726966696564206a7564676560601b604482015260640161089d565b6000838152600460205260409020600581015460ff1615610dbc5760405162461bcd60e51b815260206004820152601860248201527f4469737075746520616c7265616479207265736f6c7665640000000000000000604482015260640161089d565b600084815260066020908152604080832033845290915290208054600160a01b900460ff1615610e245760405162461bcd60e51b8152602060048201526013602482015272129d5919d948185b1c9958591e481c9d5b1959606a1b604482015260640161089d565b805460ff60a01b1933166001600160a81b031990911617600160a01b17815560018101610e52848683611bde565b5060008581526005602090815260408083208054600181018255908452919092200180546001600160a01b03191633908117909155905186907f4a02274e718b8d5c530552586c70487f5230ae656cb4504a9ceed61b167728cb90610eba9088908890611c9e565b60405180910390a3610ecb85611050565b5050610ef660017f9b779b17422d0df92223018b32b4d1fa46e071723d6817e2486d003becc55f0055565b505050565b600081815260056020908152604091829020805483518184028101840190945280845260609392830182828015610f5b57602002820191906000526020600020905b81546001600160a01b03168152600190910190602001808311610f3d575b50505050509050919050565b610f6f610fa5565b6001600160a01b038116610f9957604051631e4fbdf760e01b81526000600482015260240161089d565b610fa281610fd2565b50565b6000546001600160a01b03163314610cf95760405163118cdaa760e01b815233600482015260240161089d565b600080546001600160a01b038381166001600160a01b0319831681178455604051919092169283917f8be0079c531659141344cd1fd0a4f28419497f9722a3daafe3b4186f6b6457e09190a35050565b61102a61137c565b60027f9b779b17422d0df92223018b32b4d1fa46e071723d6817e2486d003becc55f0055565b6000818152600460205260409020600581015460ff16156110a65760405162461bcd60e51b815260206004820152601060248201526f105b1c9958591e481c995cdbdb1d995960821b604482015260640161089d565b60008281526005602090815260408083208054825181850281018501909352808352919290919083018282801561110657602002820191906000526020600020905b81546001600160a01b031681526001909101906020018083116110e8575b5050505050905060028151101561111c57505050565b60008060005b83518110156112e55760008681526006602052604081208551829087908590811061114f5761114f611cb2565b60200260200101516001600160a01b03166001600160a01b031681526020019081526020016000206001018054611185906119f9565b80601f01602080910402602001604051908101604052809291908181526020018280546111b1906119f9565b80156111fe5780601f106111d3576101008083540402835291602001916111fe565b820191906000526020600020905b8154815290600101906020018083116111e157829003601f168201915b5050505050905060405160200161122190653bb7b935b2b960d11b815260060190565b60405160208183030381529060405280519060200120816040516020016112489190611cc8565b6040516020818303038152906040528051906020012003611275578361126d81611b69565b9450506112dc565b6040516732b6b83637bcb2b960c11b602082015260280160405160208183030381529060405280519060200120816040516020016112b39190611cc8565b60405160208183030381529060405280519060200120036112dc57826112d881611b69565b9350505b50600101611122565b50600282101580156112f657508082115b1561132d57611328856040518060400160405280600b81526020016a1ddbdc9ad95c97dc185a5960aa1b8152506113be565b611375565b6002811015801561133d57508181115b15611375576113758560405180604001604052806011815260200170195b5c1b1bde595c97dc99599d5b991959607a1b8152506113be565b5050505050565b7f9b779b17422d0df92223018b32b4d1fa46e071723d6817e2486d003becc55f0054600203610cf957604051633ee5aeb560e01b815260040160405180910390fd5b600082815260046020526040902060058101805460ff19166001179055600681016113e98382611aa9565b50426008820155600180549082015460405163f023b81160e01b81526004810191909152600091829182916001600160a01b03169063f023b8119060240160c060405180830381865afa158015611444573d6000803e3d6000fd5b505050506040513d601f19601f820116820180604052508101906114689190611cf9565b505050925092509250604051602001611492906a1ddbdc9ad95c97dc185a5960aa1b8152600b0190565b60405160208183030381529060405280519060200120856040516020016114b99190611cc8565b6040516020818303038152906040528051906020012003611549576001805490850154604051635ae8df2960e01b81526001600160a01b0390921691635ae8df2991611512918790600401918252602082015260400190565b600060405180830381600087803b15801561152c57600080fd5b505af1158015611540573d6000803e3d6000fd5b505050506115b3565b6001805490850154604051635f04fe6d60e11b81526001600160a01b039092169163be09fcda916115809160040190815260200190565b600060405180830381600087803b15801561159a57600080fd5b505af11580156115ae573d6000803e3d6000fd5b505050505b8360010154867f08f60392c366acc3b3575e4dfe27e80b7ffb1df6935d0023358e131ffe71c468876040516115e89190611d64565b60405180910390a3505050505050565b6001600160a01b0381168114610fa257600080fd5b6000806040838503121561162057600080fd5b823591506020830135611632816115f8565b809150509250929050565b60005b83811015611658578181015183820152602001611640565b50506000910152565b6000815180845261167981602086016020860161163d565b601f01601f19169290920160200192915050565b6020815260018060a01b038251166020820152602082015115156040820152600060408301516060808401526116c66080840182611661565b949350505050565b6000602082840312156116e057600080fd5b5035919050565b898152602081018990526001600160a01b0388166040820152610120606082018190526000906117198382018a611661565b9050828103608084015261172d8189611661565b905086151560a084015282810360c08401526117498187611661565b60e084019590955250506101000152979650505050505050565b6020815281516020820152602082015160408201526000604083015161179460608401826001600160a01b03169052565b5060608301516101208060808501526117b1610140850183611661565b91506080850151601f19808685030160a08701526117cf8483611661565b935060a087015191506117e660c087018315159052565b60c08701519150808685030160e0870152506118028382611661565b60e087015161010087810191909152909601519190940152509192915050565b60006020828403121561183457600080fd5b813561183f816115f8565b9392505050565b6001600160a01b0384168152821515602082015260606040820181905260009061187290830184611661565b95945050505050565b60008083601f84011261188d57600080fd5b50813567ffffffffffffffff8111156118a557600080fd5b6020830191508360208285010111156118bd57600080fd5b9250929050565b6000806000806000606086880312156118dc57600080fd5b85359450602086013567ffffffffffffffff808211156118fb57600080fd5b61190789838a0161187b565b9096509450604088013591508082111561192057600080fd5b5061192d8882890161187b565b969995985093965092949392505050565b6000806040838503121561195157600080fd5b50508035926020909101359150565b60008060006040848603121561197557600080fd5b83359250602084013567ffffffffffffffff81111561199357600080fd5b61199f8682870161187b565b9497909650939450505050565b6020808252825182820181905260009190848201906040850190845b818110156119ed5783516001600160a01b0316835292840192918401916001016119c8565b50909695505050505050565b600181811c90821680611a0d57607f821691505b602082108103611a2d57634e487b7160e01b600052602260045260246000fd5b50919050565b8183823760009101908152919050565b634e487b7160e01b600052604160045260246000fd5b601f821115610ef6576000816000526020600020601f850160051c81016020861015611a825750805b601f850160051c820191505b81811015611aa157828155600101611a8e565b505050505050565b815167ffffffffffffffff811115611ac357611ac3611a43565b611ad781611ad184546119f9565b84611a59565b602080601f831160018114611b0c5760008415611af45750858301515b600019600386901b1c1916600185901b178555611aa1565b600085815260208120601f198616915b82811015611b3b57888601518255948401946001909101908401611b1c565b5085821015611b595787850151600019600388901b60f8161c191681555b5050505050600190811b01905550565b600060018201611b8957634e487b7160e01b600052601160045260246000fd5b5060010190565b81835281816020850137506000828201602090810191909152601f909101601f19169091010190565b6001600160a01b03841681526040602082018190526000906118729083018486611b90565b67ffffffffffffffff831115611bf657611bf6611a43565b611c0a83611c0483546119f9565b83611a59565b6000601f841160018114611c3e5760008515611c265750838201355b600019600387901b1c1916600186901b178355611375565b600083815260209020601f19861690835b82811015611c6f5786850135825560209485019460019092019101611c4f565b5086821015611c8c5760001960f88860031b161c19848701351681555b505060018560011b0183555050505050565b6020815260006116c6602083018486611b90565b634e487b7160e01b600052603260045260246000fd5b60008251611cda81846020870161163d565b9190910192915050565b80518015158114611cf457600080fd5b919050565b60008060008060008060c08789031215611d1257600080fd5b865195506020870151611d24816115f8565b6040880151909550611d35816115f8565b9350611d4360608801611ce4565b9250611d5160808801611ce4565b915060a087015190509295509295509295565b60208152600061183f602083018461166156fea26469706673582212203c551378f703f0da453ea9ed0c5869c1174511748b21d33ba940934ce8e2183664736f6c63430008180033","opcodes":"PUSH1 0x80 PUSH1 0x40 MSTORE PUSH1 0x0 PUSH1 0x7 SSTORE CALLVALUE DUP1 ISZERO PUSH3 0x16 JUMPI PUSH1 0x0 DUP1 REVERT JUMPDEST POP PUSH1 0x40 MLOAD PUSH3 0x1F24 CODESIZE SUB DUP1 PUSH3 0x1F24 DUP4 CODECOPY DUP2 ADD PUSH1 0x40 DUP2 SWAP1 MSTORE PUSH3 0x39 SWAP2 PUSH3 0x12F JUMP JUMPDEST CALLER DUP1 PUSH3 0x60 JUMPI PUSH1 0x40 MLOAD PUSH4 0x1E4FBDF7 PUSH1 0xE0 SHL DUP2 MSTORE PUSH1 0x0 PUSH1 0x4 DUP3 ADD MSTORE PUSH1 0x24 ADD PUSH1 0x40 MLOAD DUP1 SWAP2 SUB SWAP1 REVERT JUMPDEST PUSH3 0x6B DUP2 PUSH3 0xC2 JUMP JUMPDEST POP PUSH1 0x1 PUSH32 0x9B779B17422D0DF92223018B32B4D1FA46E071723D6817E2486D003BECC55F00 SSTORE PUSH1 0x1 DUP1 SLOAD PUSH1 0x1 PUSH1 0x1 PUSH1 0xA0 SHL SUB SWAP4 DUP5 AND PUSH1 0x1 PUSH1 0x1 PUSH1 0xA0 SHL SUB NOT SWAP2 DUP3 AND OR SWAP1 SWAP2 SSTORE PUSH1 0x2 DUP1 SLOAD SWAP3 SWAP1 SWAP4 AND SWAP2 AND OR SWAP1 SSTORE PUSH3 0x167 JUMP JUMPDEST PUSH1 0x0 DUP1 SLOAD PUSH1 0x1 PUSH1 0x1 PUSH1 0xA0 SHL SUB DUP4 DUP2 AND PUSH1 0x1 PUSH1 0x1 PUSH1 0xA0 SHL SUB NOT DUP4 AND DUP2 OR DUP5 SSTORE PUSH1 0x40 MLOAD SWAP2 SWAP1 SWAP3 AND SWAP3 DUP4 SWAP2 PUSH32 0x8BE0079C531659141344CD1FD0A4F28419497F9722A3DAAFE3B4186F6B6457E0 SWAP2 SWAP1 LOG3 POP POP JUMP JUMPDEST DUP1 MLOAD PUSH1 0x1 PUSH1 0x1 PUSH1 0xA0 SHL SUB DUP2 AND DUP2 EQ PUSH3 0x12A JUMPI PUSH1 0x0 DUP1 REVERT JUMPDEST SWAP2 SWAP1 POP JUMP JUMPDEST PUSH1 0x0 DUP1 PUSH1 0x40 DUP4 DUP6 SUB SLT ISZERO PUSH3 0x143 JUMPI PUSH1 0x0 DUP1 REVERT JUMPDEST PUSH3 0x14E DUP4 PUSH3 0x112 JUMP JUMPDEST SWAP2 POP PUSH3 0x15E PUSH1 0x20 DUP5 ADD PUSH3 0x112 JUMP JUMPDEST SWAP1 POP SWAP3 POP SWAP3 SWAP1 POP JUMP JUMPDEST PUSH2 0x1DAD DUP1 PUSH3 0x177 PUSH1 0x0 CODECOPY PUSH1 0x0 RETURN INVALID PUSH1 0x80 PUSH1 0x40 MSTORE CALLVALUE DUP1 ISZERO PUSH2 0x10 JUMPI PUSH1 0x0 DUP1 REVERT JUMPDEST POP PUSH1 0x4 CALLDATASIZE LT PUSH2 0x10B JUMPI PUSH1 0x0 CALLDATALOAD PUSH1 0xE0 SHR DUP1 PUSH4 0x5DCDEF88 GT PUSH2 0xA2 JUMPI DUP1 PUSH4 0xA3524539 GT PUSH2 0x71 JUMPI DUP1 PUSH4 0xA3524539 EQ PUSH2 0x276 JUMPI DUP1 PUSH4 0xC5E4CCC4 EQ PUSH2 0x296 JUMPI DUP1 PUSH4 0xDD43B73F EQ PUSH2 0x29F JUMPI DUP1 PUSH4 0xE567BC27 EQ PUSH2 0x2CB JUMPI DUP1 PUSH4 0xF2FDE38B EQ PUSH2 0x2DE JUMPI PUSH1 0x0 DUP1 REVERT JUMPDEST DUP1 PUSH4 0x5DCDEF88 EQ PUSH2 0x237 JUMPI DUP1 PUSH4 0x715018A6 EQ PUSH2 0x24A JUMPI DUP1 PUSH4 0x7E598805 EQ PUSH2 0x252 JUMPI DUP1 PUSH4 0x8DA5CB5B EQ PUSH2 0x265 JUMPI PUSH1 0x0 DUP1 REVERT JUMPDEST DUP1 PUSH4 0x27290BD8 GT PUSH2 0xDE JUMPI DUP1 PUSH4 0x27290BD8 EQ PUSH2 0x1AC JUMPI DUP1 PUSH4 0x2EEFB40B EQ PUSH2 0x1C1 JUMPI DUP1 PUSH4 0x37A0CA3E EQ PUSH2 0x1F4 JUMPI DUP1 PUSH4 0x55297F74 EQ PUSH2 0x216 JUMPI PUSH1 0x0 DUP1 REVERT JUMPDEST DUP1 PUSH4 0x5A23E38 EQ PUSH2 0x110 JUMPI DUP1 PUSH4 0x11BE1997 EQ PUSH2 0x139 JUMPI DUP1 PUSH4 0x136BA6AA EQ PUSH2 0x161 JUMPI DUP1 PUSH4 0x23682C47 EQ PUSH2 0x181 JUMPI JUMPDEST PUSH1 0x0 DUP1 REVERT JUMPDEST PUSH2 0x123 PUSH2 0x11E CALLDATASIZE PUSH1 0x4 PUSH2 0x160D JUMP JUMPDEST PUSH2 0x2F1 JUMP JUMPDEST PUSH1 0x40 MLOAD PUSH2 0x130 SWAP2 SWAP1 PUSH2 0x168D JUMP JUMPDEST PUSH1 0x40 MLOAD DUP1 SWAP2 SUB SWAP1 RETURN JUMPDEST PUSH2 0x14C PUSH2 0x147 CALLDATASIZE PUSH1 0x4 PUSH2 0x16CE JUMP JUMPDEST PUSH2 0x3F2 JUMP JUMPDEST PUSH1 0x40 MLOAD PUSH2 0x130 SWAP10 SWAP9 SWAP8 SWAP7 SWAP6 SWAP5 SWAP4 SWAP3 SWAP2 SWAP1 PUSH2 0x16E7 JUMP JUMPDEST PUSH2 0x174 PUSH2 0x16F CALLDATASIZE PUSH1 0x4 PUSH2 0x16CE JUMP JUMPDEST PUSH2 0x5E6 JUMP JUMPDEST PUSH1 0x40 MLOAD PUSH2 0x130 SWAP2 SWAP1 PUSH2 0x1763 JUMP JUMPDEST PUSH1 0x2 SLOAD PUSH2 0x194 SWAP1 PUSH1 0x1 PUSH1 0x1 PUSH1 0xA0 SHL SUB AND DUP2 JUMP JUMPDEST PUSH1 0x40 MLOAD PUSH1 0x1 PUSH1 0x1 PUSH1 0xA0 SHL SUB SWAP1 SWAP2 AND DUP2 MSTORE PUSH1 0x20 ADD PUSH2 0x130 JUMP JUMPDEST PUSH2 0x1BF PUSH2 0x1BA CALLDATASIZE PUSH1 0x4 PUSH2 0x1822 JUMP JUMPDEST PUSH2 0x853 JUMP JUMPDEST STOP JUMPDEST PUSH2 0x1E4 PUSH2 0x1CF CALLDATASIZE PUSH1 0x4 PUSH2 0x1822 JUMP JUMPDEST PUSH1 0x3 PUSH1 0x20 MSTORE PUSH1 0x0 SWAP1 DUP2 MSTORE PUSH1 0x40 SWAP1 KECCAK256 SLOAD PUSH1 0xFF AND DUP2 JUMP JUMPDEST PUSH1 0x40 MLOAD SWAP1 ISZERO ISZERO DUP2 MSTORE PUSH1 0x20 ADD PUSH2 0x130 JUMP JUMPDEST PUSH2 0x207 PUSH2 0x202 CALLDATASIZE PUSH1 0x4 PUSH2 0x160D JUMP JUMPDEST PUSH2 0x8F2 JUMP JUMPDEST PUSH1 0x40 MLOAD PUSH2 0x130 SWAP4 SWAP3 SWAP2 SWAP1 PUSH2 0x1846 JUMP JUMPDEST PUSH2 0x229 PUSH2 0x224 CALLDATASIZE PUSH1 0x4 PUSH2 0x18C4 JUMP JUMPDEST PUSH2 0x9B8 JUMP JUMPDEST PUSH1 0x40 MLOAD SWAP1 DUP2 MSTORE PUSH1 0x20 ADD PUSH2 0x130 JUMP JUMPDEST PUSH2 0x194 PUSH2 0x245 CALLDATASIZE PUSH1 0x4 PUSH2 0x193E JUMP JUMPDEST PUSH2 0xCAF JUMP JUMPDEST PUSH2 0x1BF PUSH2 0xCE7 JUMP JUMPDEST PUSH2 0x1BF PUSH2 0x260 CALLDATASIZE PUSH1 0x4 PUSH2 0x1960 JUMP JUMPDEST PUSH2 0xCFB JUMP JUMPDEST PUSH1 0x0 SLOAD PUSH1 0x1 PUSH1 0x1 PUSH1 0xA0 SHL SUB AND PUSH2 0x194 JUMP JUMPDEST PUSH2 0x289 PUSH2 0x284 CALLDATASIZE PUSH1 0x4 PUSH2 0x16CE JUMP JUMPDEST PUSH2 0xEFB JUMP JUMPDEST PUSH1 0x40 MLOAD PUSH2 0x130 SWAP2 SWAP1 PUSH2 0x19AC JUMP JUMPDEST PUSH2 0x229 PUSH1 0x7 SLOAD DUP2 JUMP JUMPDEST PUSH2 0x1E4 PUSH2 0x2AD CALLDATASIZE PUSH1 0x4 PUSH2 0x1822 JUMP JUMPDEST PUSH1 0x1 PUSH1 0x1 PUSH1 0xA0 SHL SUB AND PUSH1 0x0 SWAP1 DUP2 MSTORE PUSH1 0x3 PUSH1 0x20 MSTORE PUSH1 0x40 SWAP1 KECCAK256 SLOAD PUSH1 0xFF AND SWAP1 JUMP JUMPDEST PUSH1 0x1 SLOAD PUSH2 0x194 SWAP1 PUSH1 0x1 PUSH1 0x1 PUSH1 0xA0 SHL SUB AND DUP2 JUMP JUMPDEST PUSH2 0x1BF PUSH2 0x2EC CALLDATASIZE PUSH1 0x4 PUSH2 0x1822 JUMP JUMPDEST PUSH2 0xF67 JUMP JUMPDEST PUSH1 0x40 DUP1 MLOAD PUSH1 0x60 DUP1 DUP3 ADD DUP4 MSTORE PUSH1 0x0 DUP1 DUP4 MSTORE PUSH1 0x20 DUP4 ADD MSTORE SWAP2 DUP2 ADD SWAP2 SWAP1 SWAP2 MSTORE PUSH1 0x0 DUP4 DUP2 MSTORE PUSH1 0x6 PUSH1 0x20 SWAP1 DUP2 MSTORE PUSH1 0x40 DUP1 DUP4 KECCAK256 PUSH1 0x1 PUSH1 0x1 PUSH1 0xA0 SHL SUB DUP7 DUP2 AND DUP6 MSTORE SWAP1 DUP4 MSTORE SWAP3 DUP2 SWAP1 KECCAK256 DUP2 MLOAD PUSH1 0x60 DUP2 ADD DUP4 MSTORE DUP2 SLOAD SWAP5 DUP6 AND DUP2 MSTORE PUSH1 0x1 PUSH1 0xA0 SHL SWAP1 SWAP5 DIV PUSH1 0xFF AND ISZERO ISZERO SWAP3 DUP5 ADD SWAP3 SWAP1 SWAP3 MSTORE PUSH1 0x1 DUP3 ADD DUP1 SLOAD SWAP2 DUP5 ADD SWAP2 PUSH2 0x368 SWAP1 PUSH2 0x19F9 JUMP JUMPDEST DUP1 PUSH1 0x1F ADD PUSH1 0x20 DUP1 SWAP2 DIV MUL PUSH1 0x20 ADD PUSH1 0x40 MLOAD SWAP1 DUP2 ADD PUSH1 0x40 MSTORE DUP1 SWAP3 SWAP2 SWAP1 DUP2 DUP2 MSTORE PUSH1 0x20 ADD DUP3 DUP1 SLOAD PUSH2 0x394 SWAP1 PUSH2 0x19F9 JUMP JUMPDEST DUP1 ISZERO PUSH2 0x3E1 JUMPI DUP1 PUSH1 0x1F LT PUSH2 0x3B6 JUMPI PUSH2 0x100 DUP1 DUP4 SLOAD DIV MUL DUP4 MSTORE SWAP2 PUSH1 0x20 ADD SWAP2 PUSH2 0x3E1 JUMP JUMPDEST DUP3 ADD SWAP2 SWAP1 PUSH1 0x0 MSTORE PUSH1 0x20 PUSH1 0x0 KECCAK256 SWAP1 JUMPDEST DUP2 SLOAD DUP2 MSTORE SWAP1 PUSH1 0x1 ADD SWAP1 PUSH1 0x20 ADD DUP1 DUP4 GT PUSH2 0x3C4 JUMPI DUP3 SWAP1 SUB PUSH1 0x1F AND DUP3 ADD SWAP2 JUMPDEST POP POP POP POP POP DUP2 MSTORE POP POP SWAP1 POP SWAP3 SWAP2 POP POP JUMP JUMPDEST PUSH1 0x4 PUSH1 0x20 MSTORE PUSH1 0x0 SWAP1 DUP2 MSTORE PUSH1 0x40 SWAP1 KECCAK256 DUP1 SLOAD PUSH1 0x1 DUP3 ADD SLOAD PUSH1 0x2 DUP4 ADD SLOAD PUSH1 0x3 DUP5 ADD DUP1 SLOAD SWAP4 SWAP5 SWAP3 SWAP4 PUSH1 0x1 PUSH1 0x1 PUSH1 0xA0 SHL SUB SWAP1 SWAP3 AND SWAP3 SWAP2 PUSH2 0x42C SWAP1 PUSH2 0x19F9 JUMP JUMPDEST DUP1 PUSH1 0x1F ADD PUSH1 0x20 DUP1 SWAP2 DIV MUL PUSH1 0x20 ADD PUSH1 0x40 MLOAD SWAP1 DUP2 ADD PUSH1 0x40 MSTORE DUP1 SWAP3 SWAP2 SWAP1 DUP2 DUP2 MSTORE PUSH1 0x20 ADD DUP3 DUP1 SLOAD PUSH2 0x458 SWAP1 PUSH2 0x19F9 JUMP JUMPDEST DUP1 ISZERO PUSH2 0x4A5 JUMPI DUP1 PUSH1 0x1F LT PUSH2 0x47A JUMPI PUSH2 0x100 DUP1 DUP4 SLOAD DIV MUL DUP4 MSTORE SWAP2 PUSH1 0x20 ADD SWAP2 PUSH2 0x4A5 JUMP JUMPDEST DUP3 ADD SWAP2 SWAP1 PUSH1 0x0 MSTORE PUSH1 0x20 PUSH1 0x0 KECCAK256 SWAP1 JUMPDEST DUP2 SLOAD DUP2 MSTORE SWAP1 PUSH1 0x1 ADD SWAP1 PUSH1 0x20 ADD DUP1 DUP4 GT PUSH2 0x488 JUMPI DUP3 SWAP1 SUB PUSH1 0x1F AND DUP3 ADD SWAP2 JUMPDEST POP POP POP POP POP SWAP1 DUP1 PUSH1 0x4 ADD DUP1 SLOAD PUSH2 0x4BA SWAP1 PUSH2 0x19F9 JUMP JUMPDEST DUP1 PUSH1 0x1F ADD PUSH1 0x20 DUP1 SWAP2 DIV MUL PUSH1 0x20 ADD PUSH1 0x40 MLOAD SWAP1 DUP2 ADD PUSH1 0x40 MSTORE DUP1 SWAP3 SWAP2 SWAP1 DUP2 DUP2 MSTORE PUSH1 0x20 ADD DUP3 DUP1 SLOAD PUSH2 0x4E6 SWAP1 PUSH2 0x19F9 JUMP JUMPDEST DUP1 ISZERO PUSH2 0x533 JUMPI DUP1 PUSH1 0x1F LT PUSH2 0x508 JUMPI PUSH2 0x100 DUP1 DUP4 SLOAD DIV MUL DUP4 MSTORE SWAP2 PUSH1 0x20 ADD SWAP2 PUSH2 0x533 JUMP JUMPDEST DUP3 ADD SWAP2 SWAP1 PUSH1 0x0 MSTORE PUSH1 0x20 PUSH1 0x0 KECCAK256 SWAP1 JUMPDEST DUP2 SLOAD DUP2 MSTORE SWAP1 PUSH1 0x1 ADD SWAP1 PUSH1 0x20 ADD DUP1 DUP4 GT PUSH2 0x516 JUMPI DUP3 SWAP1 SUB PUSH1 0x1F AND DUP3 ADD SWAP2 JUMPDEST POP POP POP PUSH1 0x5 DUP5 ADD SLOAD PUSH1 0x6 DUP6 ADD DUP1 SLOAD SWAP5 SWAP6 PUSH1 0xFF SWAP1 SWAP3 AND SWAP5 SWAP2 SWAP4 POP SWAP2 POP PUSH2 0x557 SWAP1 PUSH2 0x19F9 JUMP JUMPDEST DUP1 PUSH1 0x1F ADD PUSH1 0x20 DUP1 SWAP2 DIV MUL PUSH1 0x20 ADD PUSH1 0x40 MLOAD SWAP1 DUP2 ADD PUSH1 0x40 MSTORE DUP1 SWAP3 SWAP2 SWAP1 DUP2 DUP2 MSTORE PUSH1 0x20 ADD DUP3 DUP1 SLOAD PUSH2 0x583 SWAP1 PUSH2 0x19F9 JUMP JUMPDEST DUP1 ISZERO PUSH2 0x5D0 JUMPI DUP1 PUSH1 0x1F LT PUSH2 0x5A5 JUMPI PUSH2 0x100 DUP1 DUP4 SLOAD DIV MUL DUP4 MSTORE SWAP2 PUSH1 0x20 ADD SWAP2 PUSH2 0x5D0 JUMP JUMPDEST DUP3 ADD SWAP2 SWAP1 PUSH1 0x0 MSTORE PUSH1 0x20 PUSH1 0x0 KECCAK256 SWAP1 JUMPDEST DUP2 SLOAD DUP2 MSTORE SWAP1 PUSH1 0x1 ADD SWAP1 PUSH1 0x20 ADD DUP1 DUP4 GT PUSH2 0x5B3 JUMPI DUP3 SWAP1 SUB PUSH1 0x1F AND DUP3 ADD SWAP2 JUMPDEST POP POP POP POP POP SWAP1 DUP1 PUSH1 0x7 ADD SLOAD SWAP1 DUP1 PUSH1 0x8 ADD SLOAD SWAP1 POP DUP10 JUMP JUMPDEST PUSH1 0x40 DUP1 MLOAD PUSH2 0x120 DUP1 DUP3 ADD DUP4 MSTORE PUSH1 0x0 DUP1 DUP4 MSTORE PUSH1 0x20 DUP1 DUP5 ADD DUP3 SWAP1 MSTORE DUP4 DUP6 ADD DUP3 SWAP1 MSTORE PUSH1 0x60 DUP1 DUP6 ADD DUP2 SWAP1 MSTORE PUSH1 0x80 DUP6 ADD DUP2 SWAP1 MSTORE PUSH1 0xA0 DUP6 ADD DUP4 SWAP1 MSTORE PUSH1 0xC0 DUP6 ADD DUP2 SWAP1 MSTORE PUSH1 0xE0 DUP6 ADD DUP4 SWAP1 MSTORE PUSH2 0x100 DUP6 ADD DUP4 SWAP1 MSTORE DUP7 DUP4 MSTORE PUSH1 0x4 DUP3 MSTORE SWAP2 DUP6 SWAP1 KECCAK256 DUP6 MLOAD SWAP4 DUP5 ADD DUP7 MSTORE DUP1 SLOAD DUP5 MSTORE PUSH1 0x1 DUP2 ADD SLOAD SWAP2 DUP5 ADD SWAP2 SWAP1 SWAP2 MSTORE PUSH1 0x2 DUP2 ADD SLOAD PUSH1 0x1 PUSH1 0x1 PUSH1 0xA0 SHL SUB AND SWAP5 DUP4 ADD SWAP5 SWAP1 SWAP5 MSTORE PUSH1 0x3 DUP5 ADD DUP1 SLOAD SWAP4 SWAP5 SWAP3 SWAP4 SWAP2 DUP5 ADD SWAP2 PUSH2 0x67F SWAP1 PUSH2 0x19F9 JUMP JUMPDEST DUP1 PUSH1 0x1F ADD PUSH1 0x20 DUP1 SWAP2 DIV MUL PUSH1 0x20 ADD PUSH1 0x40 MLOAD SWAP1 DUP2 ADD PUSH1 0x40 MSTORE DUP1 SWAP3 SWAP2 SWAP1 DUP2 DUP2 MSTORE PUSH1 0x20 ADD DUP3 DUP1 SLOAD PUSH2 0x6AB SWAP1 PUSH2 0x19F9 JUMP JUMPDEST DUP1 ISZERO PUSH2 0x6F8 JUMPI DUP1 PUSH1 0x1F LT PUSH2 0x6CD JUMPI PUSH2 0x100 DUP1 DUP4 SLOAD DIV MUL DUP4 MSTORE SWAP2 PUSH1 0x20 ADD SWAP2 PUSH2 0x6F8 JUMP JUMPDEST DUP3 ADD SWAP2 SWAP1 PUSH1 0x0 MSTORE PUSH1 0x20 PUSH1 0x0 KECCAK256 SWAP1 JUMPDEST DUP2 SLOAD DUP2 MSTORE SWAP1 PUSH1 0x1 ADD SWAP1 PUSH1 0x20 ADD DUP1 DUP4 GT PUSH2 0x6DB JUMPI DUP3 SWAP1 SUB PUSH1 0x1F AND DUP3 ADD SWAP2 JUMPDEST POP POP POP POP POP DUP2 MSTORE PUSH1 0x20 ADD PUSH1 0x4 DUP3 ADD DUP1 SLOAD PUSH2 0x711 SWAP1 PUSH2 0x19F9 JUMP JUMPDEST DUP1 PUSH1 0x1F ADD PUSH1 0x20 DUP1 SWAP2 DIV MUL PUSH1 0x20 ADD PUSH1 0x40 MLOAD SWAP1 DUP2 ADD PUSH1 0x40 MSTORE DUP1 SWAP3 SWAP2 SWAP1 DUP2 DUP2 MSTORE PUSH1 0x20 ADD DUP3 DUP1 SLOAD PUSH2 0x73D SWAP1 PUSH2 0x19F9 JUMP JUMPDEST DUP1 ISZERO PUSH2 0x78A JUMPI DUP1 PUSH1 0x1F LT PUSH2 0x75F JUMPI PUSH2 0x100 DUP1 DUP4 SLOAD DIV MUL DUP4 MSTORE SWAP2 PUSH1 0x20 ADD SWAP2 PUSH2 0x78A JUMP JUMPDEST DUP3 ADD SWAP2 SWAP1 PUSH1 0x0 MSTORE PUSH1 0x20 PUSH1 0x0 KECCAK256 SWAP1 JUMPDEST DUP2 SLOAD DUP2 MSTORE SWAP1 PUSH1 0x1 ADD SWAP1 PUSH1 0x20 ADD DUP1 DUP4 GT PUSH2 0x76D JUMPI DUP3 SWAP1 SUB PUSH1 0x1F AND DUP3 ADD SWAP2 JUMPDEST POP POP POP SWAP2 DUP4 MSTORE POP POP PUSH1 0x5 DUP3 ADD SLOAD PUSH1 0xFF AND ISZERO ISZERO PUSH1 0x20 DUP3 ADD MSTORE PUSH1 0x6 DUP3 ADD DUP1 SLOAD PUSH1 0x40 SWAP1 SWAP3 ADD SWAP2 PUSH2 0x7B6 SWAP1 PUSH2 0x19F9 JUMP JUMPDEST DUP1 PUSH1 0x1F ADD PUSH1 0x20 DUP1 SWAP2 DIV MUL PUSH1 0x20 ADD PUSH1 0x40 MLOAD SWAP1 DUP2 ADD PUSH1 0x40 MSTORE DUP1 SWAP3 SWAP2 SWAP1 DUP2 DUP2 MSTORE PUSH1 0x20 ADD DUP3 DUP1 SLOAD PUSH2 0x7E2 SWAP1 PUSH2 0x19F9 JUMP JUMPDEST DUP1 ISZERO PUSH2 0x82F JUMPI DUP1 PUSH1 0x1F LT PUSH2 0x804 JUMPI PUSH2 0x100 DUP1 DUP4 SLOAD DIV MUL DUP4 MSTORE SWAP2 PUSH1 0x20 ADD SWAP2 PUSH2 0x82F JUMP JUMPDEST DUP3 ADD SWAP2 SWAP1 PUSH1 0x0 MSTORE PUSH1 0x20 PUSH1 0x0 KECCAK256 SWAP1 JUMPDEST DUP2 SLOAD DUP2 MSTORE SWAP1 PUSH1 0x1 ADD SWAP1 PUSH1 0x20 ADD DUP1 DUP4 GT PUSH2 0x812 JUMPI DUP3 SWAP1 SUB PUSH1 0x1F AND DUP3 ADD SWAP2 JUMPDEST POP POP POP POP POP DUP2 MSTORE PUSH1 0x20 ADD PUSH1 0x7 DUP3 ADD SLOAD DUP2 MSTORE PUSH1 0x20 ADD PUSH1 0x8 DUP3 ADD SLOAD DUP2 MSTORE POP POP SWAP1 POP SWAP2 SWAP1 POP JUMP JUMPDEST PUSH2 0x85B PUSH2 0xFA5 JUMP JUMPDEST PUSH1 0x1 PUSH1 0x1 PUSH1 0xA0 SHL SUB DUP2 AND PUSH2 0x8A6 JUMPI PUSH1 0x40 MLOAD PUSH3 0x461BCD PUSH1 0xE5 SHL DUP2 MSTORE PUSH1 0x20 PUSH1 0x4 DUP3 ADD MSTORE PUSH1 0xD PUSH1 0x24 DUP3 ADD MSTORE PUSH13 0x496E76616C6964206A75646765 PUSH1 0x98 SHL PUSH1 0x44 DUP3 ADD MSTORE PUSH1 0x64 ADD JUMPDEST PUSH1 0x40 MLOAD DUP1 SWAP2 SUB SWAP1 REVERT JUMPDEST PUSH1 0x1 PUSH1 0x1 PUSH1 0xA0 SHL SUB DUP2 AND PUSH1 0x0 DUP2 DUP2 MSTORE PUSH1 0x3 PUSH1 0x20 MSTORE PUSH1 0x40 DUP1 DUP3 KECCAK256 DUP1 SLOAD PUSH1 0xFF NOT AND PUSH1 0x1 OR SWAP1 SSTORE MLOAD PUSH32 0x68890463D3D0B807E70013783A20379C749AD85CC45538410019D8D52970D5BE SWAP2 SWAP1 LOG2 POP JUMP JUMPDEST PUSH1 0x6 PUSH1 0x20 SWAP1 DUP2 MSTORE PUSH1 0x0 SWAP3 DUP4 MSTORE PUSH1 0x40 DUP1 DUP5 KECCAK256 SWAP1 SWAP2 MSTORE SWAP1 DUP3 MSTORE SWAP1 KECCAK256 DUP1 SLOAD PUSH1 0x1 DUP3 ADD DUP1 SLOAD PUSH1 0x1 PUSH1 0x1 PUSH1 0xA0 SHL SUB DUP4 AND SWAP4 PUSH1 0x1 PUSH1 0xA0 SHL SWAP1 SWAP4 DIV PUSH1 0xFF AND SWAP3 SWAP2 SWAP1 PUSH2 0x935 SWAP1 PUSH2 0x19F9 JUMP JUMPDEST DUP1 PUSH1 0x1F ADD PUSH1 0x20 DUP1 SWAP2 DIV MUL PUSH1 0x20 ADD PUSH1 0x40 MLOAD SWAP1 DUP2 ADD PUSH1 0x40 MSTORE DUP1 SWAP3 SWAP2 SWAP1 DUP2 DUP2 MSTORE PUSH1 0x20 ADD DUP3 DUP1 SLOAD PUSH2 0x961 SWAP1 PUSH2 0x19F9 JUMP JUMPDEST DUP1 ISZERO PUSH2 0x9AE JUMPI DUP1 PUSH1 0x1F LT PUSH2 0x983 JUMPI PUSH2 0x100 DUP1 DUP4 SLOAD DIV MUL DUP4 MSTORE SWAP2 PUSH1 0x20 ADD SWAP2 PUSH2 0x9AE JUMP JUMPDEST DUP3 ADD SWAP2 SWAP1 PUSH1 0x0 MSTORE PUSH1 0x20 PUSH1 0x0 KECCAK256 SWAP1 JUMPDEST DUP2 SLOAD DUP2 MSTORE SWAP1 PUSH1 0x1 ADD SWAP1 PUSH1 0x20 ADD DUP1 DUP4 GT PUSH2 0x991 JUMPI DUP3 SWAP1 SUB PUSH1 0x1F AND DUP3 ADD SWAP2 JUMPDEST POP POP POP POP POP SWAP1 POP DUP4 JUMP JUMPDEST PUSH1 0x40 MLOAD PUSH6 0x3BB7B935B2B9 PUSH1 0xD1 SHL PUSH1 0x20 DUP3 ADD MSTORE PUSH1 0x0 SWAP1 PUSH1 0x26 ADD PUSH1 0x40 MLOAD PUSH1 0x20 DUP2 DUP4 SUB SUB DUP2 MSTORE SWAP1 PUSH1 0x40 MSTORE DUP1 MLOAD SWAP1 PUSH1 0x20 ADD KECCAK256 DUP4 DUP4 PUSH1 0x40 MLOAD PUSH1 0x20 ADD PUSH2 0x9F9 SWAP3 SWAP2 SWAP1 PUSH2 0x1A33 JUMP JUMPDEST PUSH1 0x40 MLOAD PUSH1 0x20 DUP2 DUP4 SUB SUB DUP2 MSTORE SWAP1 PUSH1 0x40 MSTORE DUP1 MLOAD SWAP1 PUSH1 0x20 ADD KECCAK256 EQ DUP1 PUSH2 0xA6E JUMPI POP PUSH1 0x40 MLOAD PUSH8 0x32B6B83637BCB2B9 PUSH1 0xC1 SHL PUSH1 0x20 DUP3 ADD MSTORE PUSH1 0x28 ADD PUSH1 0x40 MLOAD PUSH1 0x20 DUP2 DUP4 SUB SUB DUP2 MSTORE SWAP1 PUSH1 0x40 MSTORE DUP1 MLOAD SWAP1 PUSH1 0x20 ADD KECCAK256 DUP4 DUP4 PUSH1 0x40 MLOAD PUSH1 0x20 ADD PUSH2 0xA56 SWAP3 SWAP2 SWAP1 PUSH2 0x1A33 JUMP JUMPDEST PUSH1 0x40 MLOAD PUSH1 0x20 DUP2 DUP4 SUB SUB DUP2 MSTORE SWAP1 PUSH1 0x40 MSTORE DUP1 MLOAD SWAP1 PUSH1 0x20 ADD KECCAK256 EQ JUMPDEST PUSH2 0xAAB JUMPI PUSH1 0x40 MLOAD PUSH3 0x461BCD PUSH1 0xE5 SHL DUP2 MSTORE PUSH1 0x20 PUSH1 0x4 DUP3 ADD MSTORE PUSH1 0xE PUSH1 0x24 DUP3 ADD MSTORE PUSH14 0x24B73B30B634B21037B832B732B9 PUSH1 0x91 SHL PUSH1 0x44 DUP3 ADD MSTORE PUSH1 0x64 ADD PUSH2 0x89D JUMP JUMPDEST PUSH1 0x40 DUP1 MLOAD PUSH1 0x20 DUP2 ADD DUP9 SWAP1 MSTORE PUSH12 0xFFFFFFFFFFFFFFFFFFFFFFFF NOT CALLER PUSH1 0x60 SHL AND SWAP2 DUP2 ADD SWAP2 SWAP1 SWAP2 MSTORE TIMESTAMP PUSH1 0x54 DUP3 ADD MSTORE PUSH1 0x0 SWAP1 PUSH1 0x74 ADD PUSH1 0x40 DUP1 MLOAD PUSH1 0x1F NOT DUP2 DUP5 SUB ADD DUP2 MSTORE DUP3 DUP3 MSTORE DUP1 MLOAD PUSH1 0x20 SWAP2 DUP3 ADD KECCAK256 PUSH2 0x120 DUP5 ADD DUP4 MSTORE DUP1 DUP5 MSTORE DUP4 DUP3 ADD DUP12 SWAP1 MSTORE CALLER DUP5 DUP5 ADD MSTORE DUP3 MLOAD PUSH1 0x1F DUP11 ADD DUP4 SWAP1 DIV DUP4 MUL DUP2 ADD DUP4 ADD SWAP1 SWAP4 MSTORE DUP9 DUP4 MSTORE SWAP4 POP PUSH1 0x60 DUP4 ADD SWAP2 SWAP1 DUP10 SWAP1 DUP10 SWAP1 DUP2 SWAP1 DUP5 ADD DUP4 DUP3 DUP1 DUP3 DUP5 CALLDATACOPY PUSH1 0x0 SWAP3 ADD SWAP2 SWAP1 SWAP2 MSTORE POP POP POP SWAP1 DUP3 MSTORE POP PUSH1 0x40 DUP1 MLOAD PUSH1 0x20 PUSH1 0x1F DUP9 ADD DUP2 SWAP1 DIV DUP2 MUL DUP3 ADD DUP2 ADD SWAP1 SWAP3 MSTORE DUP7 DUP2 MSTORE SWAP2 DUP2 ADD SWAP2 SWAP1 DUP8 SWAP1 DUP8 SWAP1 DUP2 SWAP1 DUP5 ADD DUP4 DUP3 DUP1 DUP3 DUP5 CALLDATACOPY PUSH1 0x0 SWAP3 ADD DUP3 SWAP1 MSTORE POP SWAP4 DUP6 MSTORE POP POP POP PUSH1 0x20 DUP1 DUP4 ADD DUP3 SWAP1 MSTORE PUSH1 0x40 DUP1 MLOAD DUP1 DUP4 ADD DUP3 MSTORE DUP4 DUP2 MSTORE DUP2 DUP6 ADD MSTORE TIMESTAMP PUSH1 0x60 DUP1 DUP7 ADD SWAP2 SWAP1 SWAP2 MSTORE PUSH1 0x80 SWAP1 SWAP5 ADD DUP4 SWAP1 MSTORE DUP6 DUP4 MSTORE PUSH1 0x4 DUP3 MSTORE SWAP2 DUP3 SWAP1 KECCAK256 DUP5 MLOAD DUP2 SSTORE SWAP1 DUP5 ADD MLOAD PUSH1 0x1 DUP3 ADD SSTORE SWAP1 DUP4 ADD MLOAD PUSH1 0x2 DUP3 ADD DUP1 SLOAD PUSH1 0x1 PUSH1 0x1 PUSH1 0xA0 SHL SUB NOT AND PUSH1 0x1 PUSH1 0x1 PUSH1 0xA0 SHL SUB SWAP1 SWAP3 AND SWAP2 SWAP1 SWAP2 OR SWAP1 SSTORE SWAP1 DUP3 ADD MLOAD PUSH1 0x3 DUP3 ADD SWAP1 PUSH2 0xBF7 SWAP1 DUP3 PUSH2 0x1AA9 JUMP JUMPDEST POP PUSH1 0x80 DUP3 ADD MLOAD PUSH1 0x4 DUP3 ADD SWAP1 PUSH2 0xC0C SWAP1 DUP3 PUSH2 0x1AA9 JUMP JUMPDEST POP PUSH1 0xA0 DUP3 ADD MLOAD PUSH1 0x5 DUP3 ADD DUP1 SLOAD PUSH1 0xFF NOT AND SWAP2 ISZERO ISZERO SWAP2 SWAP1 SWAP2 OR SWAP1 SSTORE PUSH1 0xC0 DUP3 ADD MLOAD PUSH1 0x6 DUP3 ADD SWAP1 PUSH2 0xC39 SWAP1 DUP3 PUSH2 0x1AA9 JUMP JUMPDEST POP PUSH1 0xE0 DUP3 ADD MLOAD PUSH1 0x7 DUP1 DUP4 ADD SWAP2 SWAP1 SWAP2 SSTORE PUSH2 0x100 SWAP1 SWAP3 ADD MLOAD PUSH1 0x8 SWAP1 SWAP2 ADD SSTORE DUP1 SLOAD SWAP1 PUSH1 0x0 PUSH2 0xC63 DUP4 PUSH2 0x1B69 JUMP JUMPDEST SWAP2 SWAP1 POP SSTORE POP DUP7 DUP2 PUSH32 0x8B8ED6684FF2EFCB9E5067826A5D5EE78C76198756F203117B56E1363A62C4CE CALLER DUP10 DUP10 PUSH1 0x40 MLOAD PUSH2 0xC9D SWAP4 SWAP3 SWAP2 SWAP1 PUSH2 0x1BB9 JUMP JUMPDEST PUSH1 0x40 MLOAD DUP1 SWAP2 SUB SWAP1 LOG3 SWAP7 SWAP6 POP POP POP POP POP POP JUMP JUMPDEST PUSH1 0x5 PUSH1 0x20 MSTORE DUP2 PUSH1 0x0 MSTORE PUSH1 0x40 PUSH1 0x0 KECCAK256 DUP2 DUP2 SLOAD DUP2 LT PUSH2 0xCCB JUMPI PUSH1 0x0 DUP1 REVERT JUMPDEST PUSH1 0x0 SWAP2 DUP3 MSTORE PUSH1 0x20 SWAP1 SWAP2 KECCAK256 ADD SLOAD PUSH1 0x1 PUSH1 0x1 PUSH1 0xA0 SHL SUB AND SWAP2 POP DUP3 SWAP1 POP JUMP JUMPDEST PUSH2 0xCEF PUSH2 0xFA5 JUMP JUMPDEST PUSH2 0xCF9 PUSH1 0x0 PUSH2 0xFD2 JUMP JUMPDEST JUMP JUMPDEST PUSH2 0xD03 PUSH2 0x1022 JUMP JUMPDEST CALLER PUSH1 0x0 SWAP1 DUP2 MSTORE PUSH1 0x3 PUSH1 0x20 MSTORE PUSH1 0x40 SWAP1 KECCAK256 SLOAD PUSH1 0xFF AND PUSH2 0xD59 JUMPI PUSH1 0x40 MLOAD PUSH3 0x461BCD PUSH1 0xE5 SHL DUP2 MSTORE PUSH1 0x20 PUSH1 0x4 DUP3 ADD MSTORE PUSH1 0x14 PUSH1 0x24 DUP3 ADD MSTORE PUSH20 0x4E6F742061207665726966696564206A75646765 PUSH1 0x60 SHL PUSH1 0x44 DUP3 ADD MSTORE PUSH1 0x64 ADD PUSH2 0x89D JUMP JUMPDEST PUSH1 0x0 DUP4 DUP2 MSTORE PUSH1 0x4 PUSH1 0x20 MSTORE PUSH1 0x40 SWAP1 KECCAK256 PUSH1 0x5 DUP2 ADD SLOAD PUSH1 0xFF AND ISZERO PUSH2 0xDBC JUMPI PUSH1 0x40 MLOAD PUSH3 0x461BCD PUSH1 0xE5 SHL DUP2 MSTORE PUSH1 0x20 PUSH1 0x4 DUP3 ADD MSTORE PUSH1 0x18 PUSH1 0x24 DUP3 ADD MSTORE PUSH32 0x4469737075746520616C7265616479207265736F6C7665640000000000000000 PUSH1 0x44 DUP3 ADD MSTORE PUSH1 0x64 ADD PUSH2 0x89D JUMP JUMPDEST PUSH1 0x0 DUP5 DUP2 MSTORE PUSH1 0x6 PUSH1 0x20 SWAP1 DUP2 MSTORE PUSH1 0x40 DUP1 DUP4 KECCAK256 CALLER DUP5 MSTORE SWAP1 SWAP2 MSTORE SWAP1 KECCAK256 DUP1 SLOAD PUSH1 0x1 PUSH1 0xA0 SHL SWAP1 DIV PUSH1 0xFF AND ISZERO PUSH2 0xE24 JUMPI PUSH1 0x40 MLOAD PUSH3 0x461BCD PUSH1 0xE5 SHL DUP2 MSTORE PUSH1 0x20 PUSH1 0x4 DUP3 ADD MSTORE PUSH1 0x13 PUSH1 0x24 DUP3 ADD MSTORE PUSH19 0x129D5919D948185B1C9958591E481C9D5B1959 PUSH1 0x6A SHL PUSH1 0x44 DUP3 ADD MSTORE PUSH1 0x64 ADD PUSH2 0x89D JUMP JUMPDEST DUP1 SLOAD PUSH1 0xFF PUSH1 0xA0 SHL NOT CALLER AND PUSH1 0x1 PUSH1 0x1 PUSH1 0xA8 SHL SUB NOT SWAP1 SWAP2 AND OR PUSH1 0x1 PUSH1 0xA0 SHL OR DUP2 SSTORE PUSH1 0x1 DUP2 ADD PUSH2 0xE52 DUP5 DUP7 DUP4 PUSH2 0x1BDE JUMP JUMPDEST POP PUSH1 0x0 DUP6 DUP2 MSTORE PUSH1 0x5 PUSH1 0x20 SWAP1 DUP2 MSTORE PUSH1 0x40 DUP1 DUP4 KECCAK256 DUP1 SLOAD PUSH1 0x1 DUP2 ADD DUP3 SSTORE SWAP1 DUP5 MSTORE SWAP2 SWAP1 SWAP3 KECCAK256 ADD DUP1 SLOAD PUSH1 0x1 PUSH1 0x1 PUSH1 0xA0 SHL SUB NOT AND CALLER SWAP1 DUP2 OR SWAP1 SWAP2 SSTORE SWAP1 MLOAD DUP7 SWAP1 PUSH32 0x4A02274E718B8D5C530552586C70487F5230AE656CB4504A9CEED61B167728CB SWAP1 PUSH2 0xEBA SWAP1 DUP9 SWAP1 DUP9 SWAP1 PUSH2 0x1C9E JUMP JUMPDEST PUSH1 0x40 MLOAD DUP1 SWAP2 SUB SWAP1 LOG3 PUSH2 0xECB DUP6 PUSH2 0x1050 JUMP JUMPDEST POP POP PUSH2 0xEF6 PUSH1 0x1 PUSH32 0x9B779B17422D0DF92223018B32B4D1FA46E071723D6817E2486D003BECC55F00 SSTORE JUMP JUMPDEST POP POP POP JUMP JUMPDEST PUSH1 0x0 DUP2 DUP2 MSTORE PUSH1 0x5 PUSH1 0x20 SWAP1 DUP2 MSTORE PUSH1 0x40 SWAP2 DUP3 SWAP1 KECCAK256 DUP1 SLOAD DUP4 MLOAD DUP2 DUP5 MUL DUP2 ADD DUP5 ADD SWAP1 SWAP5 MSTORE DUP1 DUP5 MSTORE PUSH1 0x60 SWAP4 SWAP3 DUP4 ADD DUP3 DUP3 DUP1 ISZERO PUSH2 0xF5B JUMPI PUSH1 0x20 MUL DUP3 ADD SWAP2 SWAP1 PUSH1 0x0 MSTORE PUSH1 0x20 PUSH1 0x0 KECCAK256 SWAP1 JUMPDEST DUP2 SLOAD PUSH1 0x1 PUSH1 0x1 PUSH1 0xA0 SHL SUB AND DUP2 MSTORE PUSH1 0x1 SWAP1 SWAP2 ADD SWAP1 PUSH1 0x20 ADD DUP1 DUP4 GT PUSH2 0xF3D JUMPI JUMPDEST POP POP POP POP POP SWAP1 POP SWAP2 SWAP1 POP JUMP JUMPDEST PUSH2 0xF6F PUSH2 0xFA5 JUMP JUMPDEST PUSH1 0x1 PUSH1 0x1 PUSH1 0xA0 SHL SUB DUP2 AND PUSH2 0xF99 JUMPI PUSH1 0x40 MLOAD PUSH4 0x1E4FBDF7 PUSH1 0xE0 SHL DUP2 MSTORE PUSH1 0x0 PUSH1 0x4 DUP3 ADD MSTORE PUSH1 0x24 ADD PUSH2 0x89D JUMP JUMPDEST PUSH2 0xFA2 DUP2 PUSH2 0xFD2 JUMP JUMPDEST POP JUMP JUMPDEST PUSH1 0x0 SLOAD PUSH1 0x1 PUSH1 0x1 PUSH1 0xA0 SHL SUB AND CALLER EQ PUSH2 0xCF9 JUMPI PUSH1 0x40 MLOAD PUSH4 0x118CDAA7 PUSH1 0xE0 SHL DUP2 MSTORE CALLER PUSH1 0x4 DUP3 ADD MSTORE PUSH1 0x24 ADD PUSH2 0x89D JUMP JUMPDEST PUSH1 0x0 DUP1 SLOAD PUSH1 0x1 PUSH1 0x1 PUSH1 0xA0 SHL SUB DUP4 DUP2 AND PUSH1 0x1 PUSH1 0x1 PUSH1 0xA0 SHL SUB NOT DUP4 AND DUP2 OR DUP5 SSTORE PUSH1 0x40 MLOAD SWAP2 SWAP1 SWAP3 AND SWAP3 DUP4 SWAP2 PUSH32 0x8BE0079C531659141344CD1FD0A4F28419497F9722A3DAAFE3B4186F6B6457E0 SWAP2 SWAP1 LOG3 POP POP JUMP JUMPDEST PUSH2 0x102A PUSH2 0x137C JUMP JUMPDEST PUSH1 0x2 PUSH32 0x9B779B17422D0DF92223018B32B4D1FA46E071723D6817E2486D003BECC55F00 SSTORE JUMP JUMPDEST PUSH1 0x0 DUP2 DUP2 MSTORE PUSH1 0x4 PUSH1 0x20 MSTORE PUSH1 0x40 SWAP1 KECCAK256 PUSH1 0x5 DUP2 ADD SLOAD PUSH1 0xFF AND ISZERO PUSH2 0x10A6 JUMPI PUSH1 0x40 MLOAD PUSH3 0x461BCD PUSH1 0xE5 SHL DUP2 MSTORE PUSH1 0x20 PUSH1 0x4 DUP3 ADD MSTORE PUSH1 0x10 PUSH1 0x24 DUP3 ADD MSTORE PUSH16 0x105B1C9958591E481C995CDBDB1D9959 PUSH1 0x82 SHL PUSH1 0x44 DUP3 ADD MSTORE PUSH1 0x64 ADD PUSH2 0x89D JUMP JUMPDEST PUSH1 0x0 DUP3 DUP2 MSTORE PUSH1 0x5 PUSH1 0x20 SWAP1 DUP2 MSTORE PUSH1 0x40 DUP1 DUP4 KECCAK256 DUP1 SLOAD DUP3 MLOAD DUP2 DUP6 MUL DUP2 ADD DUP6 ADD SWAP1 SWAP4 MSTORE DUP1 DUP4 MSTORE SWAP2 SWAP3 SWAP1 SWAP2 SWAP1 DUP4 ADD DUP3 DUP3 DUP1 ISZERO PUSH2 0x1106 JUMPI PUSH1 0x20 MUL DUP3 ADD SWAP2 SWAP1 PUSH1 0x0 MSTORE PUSH1 0x20 PUSH1 0x0 KECCAK256 SWAP1 JUMPDEST DUP2 SLOAD PUSH1 0x1 PUSH1 0x1 PUSH1 0xA0 SHL SUB AND DUP2 MSTORE PUSH1 0x1 SWAP1 SWAP2 ADD SWAP1 PUSH1 0x20 ADD DUP1 DUP4 GT PUSH2 0x10E8 JUMPI JUMPDEST POP POP POP POP POP SWAP1 POP PUSH1 0x2 DUP2 MLOAD LT ISZERO PUSH2 0x111C JUMPI POP POP POP JUMP JUMPDEST PUSH1 0x0 DUP1 PUSH1 0x0 JUMPDEST DUP4 MLOAD DUP2 LT ISZERO PUSH2 0x12E5 JUMPI PUSH1 0x0 DUP7 DUP2 MSTORE PUSH1 0x6 PUSH1 0x20 MSTORE PUSH1 0x40 DUP2 KECCAK256 DUP6 MLOAD DUP3 SWAP1 DUP8 SWAP1 DUP6 SWAP1 DUP2 LT PUSH2 0x114F JUMPI PUSH2 0x114F PUSH2 0x1CB2 JUMP JUMPDEST PUSH1 0x20 MUL PUSH1 0x20 ADD ADD MLOAD PUSH1 0x1 PUSH1 0x1 PUSH1 0xA0 SHL SUB AND PUSH1 0x1 PUSH1 0x1 PUSH1 0xA0 SHL SUB AND DUP2 MSTORE PUSH1 0x20 ADD SWAP1 DUP2 MSTORE PUSH1 0x20 ADD PUSH1 0x0 KECCAK256 PUSH1 0x1 ADD DUP1 SLOAD PUSH2 0x1185 SWAP1 PUSH2 0x19F9 JUMP JUMPDEST DUP1 PUSH1 0x1F ADD PUSH1 0x20 DUP1 SWAP2 DIV MUL PUSH1 0x20 ADD PUSH1 0x40 MLOAD SWAP1 DUP2 ADD PUSH1 0x40 MSTORE DUP1 SWAP3 SWAP2 SWAP1 DUP2 DUP2 MSTORE PUSH1 0x20 ADD DUP3 DUP1 SLOAD PUSH2 0x11B1 SWAP1 PUSH2 0x19F9 JUMP JUMPDEST DUP1 ISZERO PUSH2 0x11FE JUMPI DUP1 PUSH1 0x1F LT PUSH2 0x11D3 JUMPI PUSH2 0x100 DUP1 DUP4 SLOAD DIV MUL DUP4 MSTORE SWAP2 PUSH1 0x20 ADD SWAP2 PUSH2 0x11FE JUMP JUMPDEST DUP3 ADD SWAP2 SWAP1 PUSH1 0x0 MSTORE PUSH1 0x20 PUSH1 0x0 KECCAK256 SWAP1 JUMPDEST DUP2 SLOAD DUP2 MSTORE SWAP1 PUSH1 0x1 ADD SWAP1 PUSH1 0x20 ADD DUP1 DUP4 GT PUSH2 0x11E1 JUMPI DUP3 SWAP1 SUB PUSH1 0x1F AND DUP3 ADD SWAP2 JUMPDEST POP POP POP POP POP SWAP1 POP PUSH1 0x40 MLOAD PUSH1 0x20 ADD PUSH2 0x1221 SWAP1 PUSH6 0x3BB7B935B2B9 PUSH1 0xD1 SHL DUP2 MSTORE PUSH1 0x6 ADD SWAP1 JUMP JUMPDEST PUSH1 0x40 MLOAD PUSH1 0x20 DUP2 DUP4 SUB SUB DUP2 MSTORE SWAP1 PUSH1 0x40 MSTORE DUP1 MLOAD SWAP1 PUSH1 0x20 ADD KECCAK256 DUP2 PUSH1 0x40 MLOAD PUSH1 0x20 ADD PUSH2 0x1248 SWAP2 SWAP1 PUSH2 0x1CC8 JUMP JUMPDEST PUSH1 0x40 MLOAD PUSH1 0x20 DUP2 DUP4 SUB SUB DUP2 MSTORE SWAP1 PUSH1 0x40 MSTORE DUP1 MLOAD SWAP1 PUSH1 0x20 ADD KECCAK256 SUB PUSH2 0x1275 JUMPI DUP4 PUSH2 0x126D DUP2 PUSH2 0x1B69 JUMP JUMPDEST SWAP5 POP POP PUSH2 0x12DC JUMP JUMPDEST PUSH1 0x40 MLOAD PUSH8 0x32B6B83637BCB2B9 PUSH1 0xC1 SHL PUSH1 0x20 DUP3 ADD MSTORE PUSH1 0x28 ADD PUSH1 0x40 MLOAD PUSH1 0x20 DUP2 DUP4 SUB SUB DUP2 MSTORE SWAP1 PUSH1 0x40 MSTORE DUP1 MLOAD SWAP1 PUSH1 0x20 ADD KECCAK256 DUP2 PUSH1 0x40 MLOAD PUSH1 0x20 ADD PUSH2 0x12B3 SWAP2 SWAP1 PUSH2 0x1CC8 JUMP JUMPDEST PUSH1 0x40 MLOAD PUSH1 0x20 DUP2 DUP4 SUB SUB DUP2 MSTORE SWAP1 PUSH1 0x40 MSTORE DUP1 MLOAD SWAP1 PUSH1 0x20 ADD KECCAK256 SUB PUSH2 0x12DC JUMPI DUP3 PUSH2 0x12D8 DUP2 PUSH2 0x1B69 JUMP JUMPDEST SWAP4 POP POP JUMPDEST POP PUSH1 0x1 ADD PUSH2 0x1122 JUMP JUMPDEST POP PUSH1 0x2 DUP3 LT ISZERO DUP1 ISZERO PUSH2 0x12F6 JUMPI POP DUP1 DUP3 GT JUMPDEST ISZERO PUSH2 0x132D JUMPI PUSH2 0x1328 DUP6 PUSH1 0x40 MLOAD DUP1 PUSH1 0x40 ADD PUSH1 0x40 MSTORE DUP1 PUSH1 0xB DUP2 MSTORE PUSH1 0x20 ADD PUSH11 0x1DDBDC9AD95C97DC185A59 PUSH1 0xAA SHL DUP2 MSTORE POP PUSH2 0x13BE JUMP JUMPDEST PUSH2 0x1375 JUMP JUMPDEST PUSH1 0x2 DUP2 LT ISZERO DUP1 ISZERO PUSH2 0x133D JUMPI POP DUP2 DUP2 GT JUMPDEST ISZERO PUSH2 0x1375 JUMPI PUSH2 0x1375 DUP6 PUSH1 0x40 MLOAD DUP1 PUSH1 0x40 ADD PUSH1 0x40 MSTORE DUP1 PUSH1 0x11 DUP2 MSTORE PUSH1 0x20 ADD PUSH17 0x195B5C1B1BDE595C97DC99599D5B991959 PUSH1 0x7A SHL DUP2 MSTORE POP PUSH2 0x13BE JUMP JUMPDEST POP POP POP POP POP JUMP JUMPDEST PUSH32 0x9B779B17422D0DF92223018B32B4D1FA46E071723D6817E2486D003BECC55F00 SLOAD PUSH1 0x2 SUB PUSH2 0xCF9 JUMPI PUSH1 0x40 MLOAD PUSH4 0x3EE5AEB5 PUSH1 0xE0 SHL DUP2 MSTORE PUSH1 0x4 ADD PUSH1 0x40 MLOAD DUP1 SWAP2 SUB SWAP1 REVERT JUMPDEST PUSH1 0x0 DUP3 DUP2 MSTORE PUSH1 0x4 PUSH1 0x20 MSTORE PUSH1 0x40 SWAP1 KECCAK256 PUSH1 0x5 DUP2 ADD DUP1 SLOAD PUSH1 0xFF NOT AND PUSH1 0x1 OR SWAP1 SSTORE PUSH1 0x6 DUP2 ADD PUSH2 0x13E9 DUP4 DUP3 PUSH2 0x1AA9 JUMP JUMPDEST POP TIMESTAMP PUSH1 0x8 DUP3 ADD SSTORE PUSH1 0x1 DUP1 SLOAD SWAP1 DUP3 ADD SLOAD PUSH1 0x40 MLOAD PUSH4 0xF023B811 PUSH1 0xE0 SHL DUP2 MSTORE PUSH1 0x4 DUP2 ADD SWAP2 SWAP1 SWAP2 MSTORE PUSH1 0x0 SWAP2 DUP3 SWAP2 DUP3 SWAP2 PUSH1 0x1 PUSH1 0x1 PUSH1 0xA0 SHL SUB AND SWAP1 PUSH4 0xF023B811 SWAP1 PUSH1 0x24 ADD PUSH1 0xC0 PUSH1 0x40 MLOAD DUP1 DUP4 SUB DUP2 DUP7 GAS STATICCALL ISZERO DUP1 ISZERO PUSH2 0x1444 JUMPI RETURNDATASIZE PUSH1 0x0 DUP1 RETURNDATACOPY RETURNDATASIZE PUSH1 0x0 REVERT JUMPDEST POP POP POP POP PUSH1 0x40 MLOAD RETURNDATASIZE PUSH1 0x1F NOT PUSH1 0x1F DUP3 ADD AND DUP3 ADD DUP1 PUSH1 0x40 MSTORE POP DUP2 ADD SWAP1 PUSH2 0x1468 SWAP2 SWAP1 PUSH2 0x1CF9 JUMP JUMPDEST POP POP POP SWAP3 POP SWAP3 POP SWAP3 POP PUSH1 0x40 MLOAD PUSH1 0x20 ADD PUSH2 0x1492 SWAP1 PUSH11 0x1DDBDC9AD95C97DC185A59 PUSH1 0xAA SHL DUP2 MSTORE PUSH1 0xB ADD SWAP1 JUMP JUMPDEST PUSH1 0x40 MLOAD PUSH1 0x20 DUP2 DUP4 SUB SUB DUP2 MSTORE SWAP1 PUSH1 0x40 MSTORE DUP1 MLOAD SWAP1 PUSH1 0x20 ADD KECCAK256 DUP6 PUSH1 0x40 MLOAD PUSH1 0x20 ADD PUSH2 0x14B9 SWAP2 SWAP1 PUSH2 0x1CC8 JUMP JUMPDEST PUSH1 0x40 MLOAD PUSH1 0x20 DUP2 DUP4 SUB SUB DUP2 MSTORE SWAP1 PUSH1 0x40 MSTORE DUP1 MLOAD SWAP1 PUSH1 0x20 ADD KECCAK256 SUB PUSH2 0x1549 JUMPI PUSH1 0x1 DUP1 SLOAD SWAP1 DUP6 ADD SLOAD PUSH1 0x40 MLOAD PUSH4 0x5AE8DF29 PUSH1 0xE0 SHL DUP2 MSTORE PUSH1 0x1 PUSH1 0x1 PUSH1 0xA0 SHL SUB SWAP1 SWAP3 AND SWAP2 PUSH4 0x5AE8DF29 SWAP2 PUSH2 0x1512 SWAP2 DUP8 SWAP1 PUSH1 0x4 ADD SWAP2 DUP3 MSTORE PUSH1 0x20 DUP3 ADD MSTORE PUSH1 0x40 ADD SWAP1 JUMP JUMPDEST PUSH1 0x0 PUSH1 0x40 MLOAD DUP1 DUP4 SUB DUP2 PUSH1 0x0 DUP8 DUP1 EXTCODESIZE ISZERO DUP1 ISZERO PUSH2 0x152C JUMPI PUSH1 0x0 DUP1 REVERT JUMPDEST POP GAS CALL ISZERO DUP1 ISZERO PUSH2 0x1540 JUMPI RETURNDATASIZE PUSH1 0x0 DUP1 RETURNDATACOPY RETURNDATASIZE PUSH1 0x0 REVERT JUMPDEST POP POP POP POP PUSH2 0x15B3 JUMP JUMPDEST PUSH1 0x1 DUP1 SLOAD SWAP1 DUP6 ADD SLOAD PUSH1 0x40 MLOAD PUSH4 0x5F04FE6D PUSH1 0xE1 SHL DUP2 MSTORE PUSH1 0x1 PUSH1 0x1 PUSH1 0xA0 SHL SUB SWAP1 SWAP3 AND SWAP2 PUSH4 0xBE09FCDA SWAP2 PUSH2 0x1580 SWAP2 PUSH1 0x4 ADD SWAP1 DUP2 MSTORE PUSH1 0x20 ADD SWAP1 JUMP JUMPDEST PUSH1 0x0 PUSH1 0x40 MLOAD DUP1 DUP4 SUB DUP2 PUSH1 0x0 DUP8 DUP1 EXTCODESIZE ISZERO DUP1 ISZERO PUSH2 0x159A JUMPI PUSH1 0x0 DUP1 REVERT JUMPDEST POP GAS CALL ISZERO DUP1 ISZERO PUSH2 0x15AE JUMPI RETURNDATASIZE PUSH1 0x0 DUP1 RETURNDATACOPY RETURNDATASIZE PUSH1 0x0 REVERT JUMPDEST POP POP POP POP JUMPDEST DUP4 PUSH1 0x1 ADD SLOAD DUP7 PUSH32 0x8F60392C366ACC3B3575E4DFE27E80B7FFB1DF6935D0023358E131FFE71C468 DUP8 PUSH1 0x40 MLOAD PUSH2 0x15E8 SWAP2 SWAP1 PUSH2 0x1D64 JUMP JUMPDEST PUSH1 0x40 MLOAD DUP1 SWAP2 SUB SWAP1 LOG3 POP POP POP POP POP POP JUMP JUMPDEST PUSH1 0x1 PUSH1 0x1 PUSH1 0xA0 SHL SUB DUP2 AND DUP2 EQ PUSH2 0xFA2 JUMPI PUSH1 0x0 DUP1 REVERT JUMPDEST PUSH1 0x0 DUP1 PUSH1 0x40 DUP4 DUP6 SUB SLT ISZERO PUSH2 0x1620 JUMPI PUSH1 0x0 DUP1 REVERT JUMPDEST DUP3 CALLDATALOAD SWAP2 POP PUSH1 0x20 DUP4 ADD CALLDATALOAD PUSH2 0x1632 DUP2 PUSH2 0x15F8 JUMP JUMPDEST DUP1 SWAP2 POP POP SWAP3 POP SWAP3 SWAP1 POP JUMP JUMPDEST PUSH1 0x0 JUMPDEST DUP4 DUP2 LT ISZERO PUSH2 0x1658 JUMPI DUP2 DUP2 ADD MLOAD DUP4 DUP3 ADD MSTORE PUSH1 0x20 ADD PUSH2 0x1640 JUMP JUMPDEST POP POP PUSH1 0x0 SWAP2 ADD MSTORE JUMP JUMPDEST PUSH1 0x0 DUP2 MLOAD DUP1 DUP5 MSTORE PUSH2 0x1679 DUP2 PUSH1 0x20 DUP7 ADD PUSH1 0x20 DUP7 ADD PUSH2 0x163D JUMP JUMPDEST PUSH1 0x1F ADD PUSH1 0x1F NOT AND SWAP3 SWAP1 SWAP3 ADD PUSH1 0x20 ADD SWAP3 SWAP2 POP POP JUMP JUMPDEST PUSH1 0x20 DUP2 MSTORE PUSH1 0x1 DUP1 PUSH1 0xA0 SHL SUB DUP3 MLOAD AND PUSH1 0x20 DUP3 ADD MSTORE PUSH1 0x20 DUP3 ADD MLOAD ISZERO ISZERO PUSH1 0x40 DUP3 ADD MSTORE PUSH1 0x0 PUSH1 0x40 DUP4 ADD MLOAD PUSH1 0x60 DUP1 DUP5 ADD MSTORE PUSH2 0x16C6 PUSH1 0x80 DUP5 ADD DUP3 PUSH2 0x1661 JUMP JUMPDEST SWAP5 SWAP4 POP POP POP POP JUMP JUMPDEST PUSH1 0x0 PUSH1 0x20 DUP3 DUP5 SUB SLT ISZERO PUSH2 0x16E0 JUMPI PUSH1 0x0 DUP1 REVERT JUMPDEST POP CALLDATALOAD SWAP2 SWAP1 POP JUMP JUMPDEST DUP10 DUP2 MSTORE PUSH1 0x20 DUP2 ADD DUP10 SWAP1 MSTORE PUSH1 0x1 PUSH1 0x1 PUSH1 0xA0 SHL SUB DUP9 AND PUSH1 0x40 DUP3 ADD MSTORE PUSH2 0x120 PUSH1 0x60 DUP3 ADD DUP2 SWAP1 MSTORE PUSH1 0x0 SWAP1 PUSH2 0x1719 DUP4 DUP3 ADD DUP11 PUSH2 0x1661 JUMP JUMPDEST SWAP1 POP DUP3 DUP2 SUB PUSH1 0x80 DUP5 ADD MSTORE PUSH2 0x172D DUP2 DUP10 PUSH2 0x1661 JUMP JUMPDEST SWAP1 POP DUP7 ISZERO ISZERO PUSH1 0xA0 DUP5 ADD MSTORE DUP3 DUP2 SUB PUSH1 0xC0 DUP5 ADD MSTORE PUSH2 0x1749 DUP2 DUP8 PUSH2 0x1661 JUMP JUMPDEST PUSH1 0xE0 DUP5 ADD SWAP6 SWAP1 SWAP6 MSTORE POP POP PUSH2 0x100 ADD MSTORE SWAP8 SWAP7 POP POP POP POP POP POP POP JUMP JUMPDEST PUSH1 0x20 DUP2 MSTORE DUP2 MLOAD PUSH1 0x20 DUP3 ADD MSTORE PUSH1 0x20 DUP3 ADD MLOAD PUSH1 0x40 DUP3 ADD MSTORE PUSH1 0x0 PUSH1 0x40 DUP4 ADD MLOAD PUSH2 0x1794 PUSH1 0x60 DUP5 ADD DUP3 PUSH1 0x1 PUSH1 0x1 PUSH1 0xA0 SHL SUB AND SWAP1 MSTORE JUMP JUMPDEST POP PUSH1 0x60 DUP4 ADD MLOAD PUSH2 0x120 DUP1 PUSH1 0x80 DUP6 ADD MSTORE PUSH2 0x17B1 PUSH2 0x140 DUP6 ADD DUP4 PUSH2 0x1661 JUMP JUMPDEST SWAP2 POP PUSH1 0x80 DUP6 ADD MLOAD PUSH1 0x1F NOT DUP1 DUP7 DUP6 SUB ADD PUSH1 0xA0 DUP8 ADD MSTORE PUSH2 0x17CF DUP5 DUP4 PUSH2 0x1661 JUMP JUMPDEST SWAP4 POP PUSH1 0xA0 DUP8 ADD MLOAD SWAP2 POP PUSH2 0x17E6 PUSH1 0xC0 DUP8 ADD DUP4 ISZERO ISZERO SWAP1 MSTORE JUMP JUMPDEST PUSH1 0xC0 DUP8 ADD MLOAD SWAP2 POP DUP1 DUP7 DUP6 SUB ADD PUSH1 0xE0 DUP8 ADD MSTORE POP PUSH2 0x1802 DUP4 DUP3 PUSH2 0x1661 JUMP JUMPDEST PUSH1 0xE0 DUP8 ADD MLOAD PUSH2 0x100 DUP8 DUP2 ADD SWAP2 SWAP1 SWAP2 MSTORE SWAP1 SWAP7 ADD MLOAD SWAP2 SWAP1 SWAP5 ADD MSTORE POP SWAP2 SWAP3 SWAP2 POP POP JUMP JUMPDEST PUSH1 0x0 PUSH1 0x20 DUP3 DUP5 SUB SLT ISZERO PUSH2 0x1834 JUMPI PUSH1 0x0 DUP1 REVERT JUMPDEST DUP2 CALLDATALOAD PUSH2 0x183F DUP2 PUSH2 0x15F8 JUMP JUMPDEST SWAP4 SWAP3 POP POP POP JUMP JUMPDEST PUSH1 0x1 PUSH1 0x1 PUSH1 0xA0 SHL SUB DUP5 AND DUP2 MSTORE DUP3 ISZERO ISZERO PUSH1 0x20 DUP3 ADD MSTORE PUSH1 0x60 PUSH1 0x40 DUP3 ADD DUP2 SWAP1 MSTORE PUSH1 0x0 SWAP1 PUSH2 0x1872 SWAP1 DUP4 ADD DUP5 PUSH2 0x1661 JUMP JUMPDEST SWAP6 SWAP5 POP POP POP POP POP JUMP JUMPDEST PUSH1 0x0 DUP1 DUP4 PUSH1 0x1F DUP5 ADD SLT PUSH2 0x188D JUMPI PUSH1 0x0 DUP1 REVERT JUMPDEST POP DUP2 CALLDATALOAD PUSH8 0xFFFFFFFFFFFFFFFF DUP2 GT ISZERO PUSH2 0x18A5 JUMPI PUSH1 0x0 DUP1 REVERT JUMPDEST PUSH1 0x20 DUP4 ADD SWAP2 POP DUP4 PUSH1 0x20 DUP3 DUP6 ADD ADD GT ISZERO PUSH2 0x18BD JUMPI PUSH1 0x0 DUP1 REVERT JUMPDEST SWAP3 POP SWAP3 SWAP1 POP JUMP JUMPDEST PUSH1 0x0 DUP1 PUSH1 0x0 DUP1 PUSH1 0x0 PUSH1 0x60 DUP7 DUP9 SUB SLT ISZERO PUSH2 0x18DC JUMPI PUSH1 0x0 DUP1 REVERT JUMPDEST DUP6 CALLDATALOAD SWAP5 POP PUSH1 0x20 DUP7 ADD CALLDATALOAD PUSH8 0xFFFFFFFFFFFFFFFF DUP1 DUP3 GT ISZERO PUSH2 0x18FB JUMPI PUSH1 0x0 DUP1 REVERT JUMPDEST PUSH2 0x1907 DUP10 DUP4 DUP11 ADD PUSH2 0x187B JUMP JUMPDEST SWAP1 SWAP7 POP SWAP5 POP PUSH1 0x40 DUP9 ADD CALLDATALOAD SWAP2 POP DUP1 DUP3 GT ISZERO PUSH2 0x1920 JUMPI PUSH1 0x0 DUP1 REVERT JUMPDEST POP PUSH2 0x192D DUP9 DUP3 DUP10 ADD PUSH2 0x187B JUMP JUMPDEST SWAP7 SWAP10 SWAP6 SWAP9 POP SWAP4 SWAP7 POP SWAP3 SWAP5 SWAP4 SWAP3 POP POP POP JUMP JUMPDEST PUSH1 0x0 DUP1 PUSH1 0x40 DUP4 DUP6 SUB SLT ISZERO PUSH2 0x1951 JUMPI PUSH1 0x0 DUP1 REVERT JUMPDEST POP POP DUP1 CALLDATALOAD SWAP3 PUSH1 0x20 SWAP1 SWAP2 ADD CALLDATALOAD SWAP2 POP JUMP JUMPDEST PUSH1 0x0 DUP1 PUSH1 0x0 PUSH1 0x40 DUP5 DUP7 SUB SLT ISZERO PUSH2 0x1975 JUMPI PUSH1 0x0 DUP1 REVERT JUMPDEST DUP4 CALLDATALOAD SWAP3 POP PUSH1 0x20 DUP5 ADD CALLDATALOAD PUSH8 0xFFFFFFFFFFFFFFFF DUP2 GT ISZERO PUSH2 0x1993 JUMPI PUSH1 0x0 DUP1 REVERT JUMPDEST PUSH2 0x199F DUP7 DUP3 DUP8 ADD PUSH2 0x187B JUMP JUMPDEST SWAP5 SWAP8 SWAP1 SWAP7 POP SWAP4 SWAP5 POP POP POP POP JUMP JUMPDEST PUSH1 0x20 DUP1 DUP3 MSTORE DUP3 MLOAD DUP3 DUP3 ADD DUP2 SWAP1 MSTORE PUSH1 0x0 SWAP2 SWAP1 DUP5 DUP3 ADD SWAP1 PUSH1 0x40 DUP6 ADD SWAP1 DUP5 JUMPDEST DUP2 DUP2 LT ISZERO PUSH2 0x19ED JUMPI DUP4 MLOAD PUSH1 0x1 PUSH1 0x1 PUSH1 0xA0 SHL SUB AND DUP4 MSTORE SWAP3 DUP5 ADD SWAP3 SWAP2 DUP5 ADD SWAP2 PUSH1 0x1 ADD PUSH2 0x19C8 JUMP JUMPDEST POP SWAP1 SWAP7 SWAP6 POP POP POP POP POP POP JUMP JUMPDEST PUSH1 0x1 DUP2 DUP2 SHR SWAP1 DUP3 AND DUP1 PUSH2 0x1A0D JUMPI PUSH1 0x7F DUP3 AND SWAP2 POP JUMPDEST PUSH1 0x20 DUP3 LT DUP2 SUB PUSH2 0x1A2D JUMPI PUSH4 0x4E487B71 PUSH1 0xE0 SHL PUSH1 0x0 MSTORE PUSH1 0x22 PUSH1 0x4 MSTORE PUSH1 0x24 PUSH1 0x0 REVERT JUMPDEST POP SWAP2 SWAP1 POP JUMP JUMPDEST DUP2 DUP4 DUP3 CALLDATACOPY PUSH1 0x0 SWAP2 ADD SWAP1 DUP2 MSTORE SWAP2 SWAP1 POP JUMP JUMPDEST PUSH4 0x4E487B71 PUSH1 0xE0 SHL PUSH1 0x0 MSTORE PUSH1 0x41 PUSH1 0x4 MSTORE PUSH1 0x24 PUSH1 0x0 REVERT JUMPDEST PUSH1 0x1F DUP3 GT ISZERO PUSH2 0xEF6 JUMPI PUSH1 0x0 DUP2 PUSH1 0x0 MSTORE PUSH1 0x20 PUSH1 0x0 KECCAK256 PUSH1 0x1F DUP6 ADD PUSH1 0x5 SHR DUP2 ADD PUSH1 0x20 DUP7 LT ISZERO PUSH2 0x1A82 JUMPI POP DUP1 JUMPDEST PUSH1 0x1F DUP6 ADD PUSH1 0x5 SHR DUP3 ADD SWAP2 POP JUMPDEST DUP2 DUP2 LT ISZERO PUSH2 0x1AA1 JUMPI DUP3 DUP2 SSTORE PUSH1 0x1 ADD PUSH2 0x1A8E JUMP JUMPDEST POP POP POP POP POP POP JUMP JUMPDEST DUP2 MLOAD PUSH8 0xFFFFFFFFFFFFFFFF DUP2 GT ISZERO PUSH2 0x1AC3 JUMPI PUSH2 0x1AC3 PUSH2 0x1A43 JUMP JUMPDEST PUSH2 0x1AD7 DUP2 PUSH2 0x1AD1 DUP5 SLOAD PUSH2 0x19F9 JUMP JUMPDEST DUP5 PUSH2 0x1A59 JUMP JUMPDEST PUSH1 0x20 DUP1 PUSH1 0x1F DUP4 GT PUSH1 0x1 DUP2 EQ PUSH2 0x1B0C JUMPI PUSH1 0x0 DUP5 ISZERO PUSH2 0x1AF4 JUMPI POP DUP6 DUP4 ADD MLOAD JUMPDEST PUSH1 0x0 NOT PUSH1 0x3 DUP7 SWAP1 SHL SHR NOT AND PUSH1 0x1 DUP6 SWAP1 SHL OR DUP6 SSTORE PUSH2 0x1AA1 JUMP JUMPDEST PUSH1 0x0 DUP6 DUP2 MSTORE PUSH1 0x20 DUP2 KECCAK256 PUSH1 0x1F NOT DUP7 AND SWAP2 JUMPDEST DUP3 DUP2 LT ISZERO PUSH2 0x1B3B JUMPI DUP9 DUP7 ADD MLOAD DUP3 SSTORE SWAP5 DUP5 ADD SWAP5 PUSH1 0x1 SWAP1 SWAP2 ADD SWAP1 DUP5 ADD PUSH2 0x1B1C JUMP JUMPDEST POP DUP6 DUP3 LT ISZERO PUSH2 0x1B59 JUMPI DUP8 DUP6 ADD MLOAD PUSH1 0x0 NOT PUSH1 0x3 DUP9 SWAP1 SHL PUSH1 0xF8 AND SHR NOT AND DUP2 SSTORE JUMPDEST POP POP POP POP POP PUSH1 0x1 SWAP1 DUP2 SHL ADD SWAP1 SSTORE POP JUMP JUMPDEST PUSH1 0x0 PUSH1 0x1 DUP3 ADD PUSH2 0x1B89 JUMPI PUSH4 0x4E487B71 PUSH1 0xE0 SHL PUSH1 0x0 MSTORE PUSH1 0x11 PUSH1 0x4 MSTORE PUSH1 0x24 PUSH1 0x0 REVERT JUMPDEST POP PUSH1 0x1 ADD SWAP1 JUMP JUMPDEST DUP2 DUP4 MSTORE DUP2 DUP2 PUSH1 0x20 DUP6 ADD CALLDATACOPY POP PUSH1 0x0 DUP3 DUP3 ADD PUSH1 0x20 SWAP1 DUP2 ADD SWAP2 SWAP1 SWAP2 MSTORE PUSH1 0x1F SWAP1 SWAP2 ADD PUSH1 0x1F NOT AND SWAP1 SWAP2 ADD ADD SWAP1 JUMP JUMPDEST PUSH1 0x1 PUSH1 0x1 PUSH1 0xA0 SHL SUB DUP5 AND DUP2 MSTORE PUSH1 0x40 PUSH1 0x20 DUP3 ADD DUP2 SWAP1 MSTORE PUSH1 0x0 SWAP1 PUSH2 0x1872 SWAP1 DUP4 ADD DUP5 DUP7 PUSH2 0x1B90 JUMP JUMPDEST PUSH8 0xFFFFFFFFFFFFFFFF DUP4 GT ISZERO PUSH2 0x1BF6 JUMPI PUSH2 0x1BF6 PUSH2 0x1A43 JUMP JUMPDEST PUSH2 0x1C0A DUP4 PUSH2 0x1C04 DUP4 SLOAD PUSH2 0x19F9 JUMP JUMPDEST DUP4 PUSH2 0x1A59 JUMP JUMPDEST PUSH1 0x0 PUSH1 0x1F DUP5 GT PUSH1 0x1 DUP2 EQ PUSH2 0x1C3E JUMPI PUSH1 0x0 DUP6 ISZERO PUSH2 0x1C26 JUMPI POP DUP4 DUP3 ADD CALLDATALOAD JUMPDEST PUSH1 0x0 NOT PUSH1 0x3 DUP8 SWAP1 SHL SHR NOT AND PUSH1 0x1 DUP7 SWAP1 SHL OR DUP4 SSTORE PUSH2 0x1375 JUMP JUMPDEST PUSH1 0x0 DUP4 DUP2 MSTORE PUSH1 0x20 SWAP1 KECCAK256 PUSH1 0x1F NOT DUP7 AND SWAP1 DUP4 JUMPDEST DUP3 DUP2 LT ISZERO PUSH2 0x1C6F JUMPI DUP7 DUP6 ADD CALLDATALOAD DUP3 SSTORE PUSH1 0x20 SWAP5 DUP6 ADD SWAP5 PUSH1 0x1 SWAP1 SWAP3 ADD SWAP2 ADD PUSH2 0x1C4F JUMP JUMPDEST POP DUP7 DUP3 LT ISZERO PUSH2 0x1C8C JUMPI PUSH1 0x0 NOT PUSH1 0xF8 DUP9 PUSH1 0x3 SHL AND SHR NOT DUP5 DUP8 ADD CALLDATALOAD AND DUP2 SSTORE JUMPDEST POP POP PUSH1 0x1 DUP6 PUSH1 0x1 SHL ADD DUP4 SSTORE POP POP POP POP POP JUMP JUMPDEST PUSH1 0x20 DUP2 MSTORE PUSH1 0x0 PUSH2 0x16C6 PUSH1 0x20 DUP4 ADD DUP5 DUP7 PUSH2 0x1B90 JUMP JUMPDEST PUSH4 0x4E487B71 PUSH1 0xE0 SHL PUSH1 0x0 MSTORE PUSH1 0x32 PUSH1 0x4 MSTORE PUSH1 0x24 PUSH1 0x0 REVERT JUMPDEST PUSH1 0x0 DUP3 MLOAD PUSH2 0x1CDA DUP2 DUP5 PUSH1 0x20 DUP8 ADD PUSH2 0x163D JUMP JUMPDEST SWAP2 SWAP1 SWAP2 ADD SWAP3 SWAP2 POP POP JUMP JUMPDEST DUP1 MLOAD DUP1 ISZERO ISZERO DUP2 EQ PUSH2 0x1CF4 JUMPI PUSH1 0x0 DUP1 REVERT JUMPDEST SWAP2 SWAP1 POP JUMP JUMPDEST PUSH1 0x0 DUP1 PUSH1 0x0 DUP1 PUSH1 0x0 DUP1 PUSH1 0xC0 DUP8 DUP10 SUB SLT ISZERO PUSH2 0x1D12 JUMPI PUSH1 0x0 DUP1 REVERT JUMPDEST DUP7 MLOAD SWAP6 POP PUSH1 0x20 DUP8 ADD MLOAD PUSH2 0x1D24 DUP2 PUSH2 0x15F8 JUMP JUMPDEST PUSH1 0x40 DUP9 ADD MLOAD SWAP1 SWAP6 POP PUSH2 0x1D35 DUP2 PUSH2 0x15F8 JUMP JUMPDEST SWAP4 POP PUSH2 0x1D43 PUSH1 0x60 DUP9 ADD PUSH2 0x1CE4 JUMP JUMPDEST SWAP3 POP PUSH2 0x1D51 PUSH1 0x80 DUP9 ADD PUSH2 0x1CE4 JUMP JUMPDEST SWAP2 POP PUSH1 0xA0 DUP8 ADD MLOAD SWAP1 POP SWAP3 SWAP6 POP SWAP3 SWAP6 POP SWAP3 SWAP6 JUMP JUMPDEST PUSH1 0x20 DUP2 MSTORE PUSH1 0x0 PUSH2 0x183F PUSH1 0x20 DUP4 ADD DUP5 PUSH2 0x1661 JUMP INVALID LOG2 PUSH5 0x6970667358 0x22 SLT KECCAK256 EXTCODECOPY SSTORE SGT PUSH25 0xF703F0DA453EA9ED0C5869C1174511748B21D33BA940934CE8 0xE2 XOR CALLDATASIZE PUSH5 0x736F6C6343 STOP ADDMOD XOR STOP CALLER "},"methodIdentifiers":{"disputeJudges(bytes32,uint256)":"5dcdef88","disputes(bytes32)":"11be1997","getDispute(bytes32)":"136ba6aa","getDisputeJudges(bytes32)":"a3524539","getRuling(bytes32,address)":"05a23e38","isJudgeVerified(address)":"dd43b73f","jobRegistry()":"23682c47","openDispute(bytes32,string,string)":"55297f74","owner()":"8da5cb5b","registerJudge(address)":"27290bd8","renounceOwnership()":"715018a6","rulings(bytes32,address)":"37a0ca3e","submitRuling(bytes32,string)":"7e598805","totalDisputes()":"c5e4ccc4","transferOwnership(address)":"f2fde38b","verifiedJudges(address)":"2eefb40b","workEscrow()":"e567bc27"}}}}}