{"contracts/JobRegistry.sol":{"JobRegistry":{"abi":[{"inputs":[],"stateMutability":"nonpayable","type":"constructor"},{"inputs":[{"internalType":"address","name":"owner","type":"address"}],"name":"OwnableInvalidOwner","type":"error"},{"inputs":[{"internalType":"address","name":"account","type":"address"}],"name":"OwnableUnauthorizedAccount","type":"error"},{"inputs":[],"name":"ReentrancyGuardReentrantCall","type":"error"},{"anonymous":false,"inputs":[{"indexed":true,"internalType":"address","name":"employer","type":"address"}],"name":"EmployerVerified","type":"event"},{"anonymous":false,"inputs":[{"indexed":true,"internalType":"bytes32","name":"jobId","type":"bytes32"}],"name":"JobCanceled","type":"event"},{"anonymous":false,"inputs":[{"indexed":true,"internalType":"bytes32","name":"jobId","type":"bytes32"},{"indexed":true,"internalType":"address","name":"worker","type":"address"}],"name":"JobCompleted","type":"event"},{"anonymous":false,"inputs":[{"indexed":true,"internalType":"bytes32","name":"jobId","type":"bytes32"},{"indexed":true,"internalType":"address","name":"employer","type":"address"},{"indexed":false,"internalType":"uint256","name":"dailyRate","type":"uint256"},{"indexed":false,"internalType":"string","name":"location","type":"string"},{"indexed":false,"internalType":"uint256","name":"startDate","type":"uint256"},{"indexed":false,"internalType":"uint256","name":"endDate","type":"uint256"}],"name":"JobCreated","type":"event"},{"anonymous":false,"inputs":[{"indexed":true,"internalType":"address","name":"previousOwner","type":"address"},{"indexed":true,"internalType":"address","name":"newOwner","type":"address"}],"name":"OwnershipTransferred","type":"event"},{"anonymous":false,"inputs":[{"indexed":true,"internalType":"bytes32","name":"jobId","type":"bytes32"},{"indexed":true,"internalType":"address","name":"worker","type":"address"}],"name":"WorkerAssigned","type":"event"},{"inputs":[{"internalType":"bytes32","name":"jobId","type":"bytes32"},{"internalType":"address","name":"worker","type":"address"}],"name":"assignWorker","outputs":[],"stateMutability":"nonpayable","type":"function"},{"inputs":[{"internalType":"bytes32","name":"jobId","type":"bytes32"}],"name":"cancelJob","outputs":[],"stateMutability":"nonpayable","type":"function"},{"inputs":[{"internalType":"bytes32","name":"jobId","type":"bytes32"}],"name":"completeJob","outputs":[],"stateMutability":"nonpayable","type":"function"},{"inputs":[{"internalType":"uint256","name":"dailyRateUSDC","type":"uint256"},{"internalType":"uint256","name":"startDate","type":"uint256"},{"internalType":"uint256","name":"endDate","type":"uint256"},{"internalType":"string","name":"location","type":"string"}],"name":"createJob","outputs":[{"internalType":"bytes32","name":"","type":"bytes32"}],"stateMutability":"nonpayable","type":"function"},{"inputs":[{"internalType":"address","name":"","type":"address"},{"internalType":"uint256","name":"","type":"uint256"}],"name":"employerJobs","outputs":[{"internalType":"bytes32","name":"","type":"bytes32"}],"stateMutability":"view","type":"function"},{"inputs":[{"internalType":"address","name":"employer","type":"address"}],"name":"getEmployerJobs","outputs":[{"internalType":"bytes32[]","name":"","type":"bytes32[]"}],"stateMutability":"view","type":"function"},{"inputs":[{"internalType":"bytes32","name":"jobId","type":"bytes32"}],"name":"getJob","outputs":[{"components":[{"internalType":"bytes32","name":"jobId","type":"bytes32"},{"internalType":"address","name":"employer","type":"address"},{"internalType":"address","name":"worker","type":"address"},{"internalType":"uint256","name":"dailyRateUSDC","type":"uint256"},{"internalType":"uint256","name":"startDate","type":"uint256"},{"internalType":"uint256","name":"endDate","type":"uint256"},{"internalType":"bool","name":"active","type":"bool"},{"internalType":"string","name":"hederaTopicId","type":"string"},{"internalType":"string","name":"location","type":"string"},{"internalType":"uint256","name":"createdAt","type":"uint256"}],"internalType":"struct JobRegistry.Job","name":"","type":"tuple"}],"stateMutability":"view","type":"function"},{"inputs":[{"internalType":"address","name":"worker","type":"address"}],"name":"getWorkerJobs","outputs":[{"internalType":"bytes32[]","name":"","type":"bytes32[]"}],"stateMutability":"view","type":"function"},{"inputs":[{"internalType":"address","name":"employer","type":"address"}],"name":"isEmployerVerified","outputs":[{"internalType":"bool","name":"","type":"bool"}],"stateMutability":"view","type":"function"},{"inputs":[{"internalType":"bytes32","name":"","type":"bytes32"}],"name":"jobs","outputs":[{"internalType":"bytes32","name":"jobId","type":"bytes32"},{"internalType":"address","name":"employer","type":"address"},{"internalType":"address","name":"worker","type":"address"},{"internalType":"uint256","name":"dailyRateUSDC","type":"uint256"},{"internalType":"uint256","name":"startDate","type":"uint256"},{"internalType":"uint256","name":"endDate","type":"uint256"},{"internalType":"bool","name":"active","type":"bool"},{"internalType":"string","name":"hederaTopicId","type":"string"},{"internalType":"string","name":"location","type":"string"},{"internalType":"uint256","name":"createdAt","type":"uint256"}],"stateMutability":"view","type":"function"},{"inputs":[],"name":"owner","outputs":[{"internalType":"address","name":"","type":"address"}],"stateMutability":"view","type":"function"},{"inputs":[],"name":"renounceOwnership","outputs":[],"stateMutability":"nonpayable","type":"function"},{"inputs":[{"internalType":"address","name":"employer","type":"address"}],"name":"setEmployerVerified","outputs":[],"stateMutability":"nonpayable","type":"function"},{"inputs":[{"internalType":"bytes32","name":"jobId","type":"bytes32"},{"internalType":"string","name":"topicId","type":"string"}],"name":"setHederaTopic","outputs":[],"stateMutability":"nonpayable","type":"function"},{"inputs":[{"internalType":"address","name":"newOwner","type":"address"}],"name":"transferOwnership","outputs":[],"stateMutability":"nonpayable","type":"function"},{"inputs":[{"internalType":"address","name":"","type":"address"}],"name":"verifiedEmployers","outputs":[{"internalType":"bool","name":"","type":"bool"}],"stateMutability":"view","type":"function"},{"inputs":[{"internalType":"address","name":"","type":"address"},{"internalType":"uint256","name":"","type":"uint256"}],"name":"workerJobs","outputs":[{"internalType":"bytes32","name":"","type":"bytes32"}],"stateMutability":"view","type":"function"}],"evm":{"bytecode":{"linkReferences":{},"object":"608060405234801561001057600080fd5b50338061003757604051631e4fbdf760e01b81526000600482015260240160405180910390fd5b6100408161006a565b5060017f9b779b17422d0df92223018b32b4d1fa46e071723d6817e2486d003becc55f00556100ba565b600080546001600160a01b038381166001600160a01b0319831681178455604051919092169283917f8be0079c531659141344cd1fd0a4f28419497f9722a3daafe3b4186f6b6457e09190a35050565b611600806100c96000396000f3fe608060405234801561001057600080fd5b506004361061010b5760003560e01c8063715018a6116100a2578063b3cc221d11610071578063b3cc221d14610266578063d6316d7814610279578063f2fde38b1461028c578063f729cf0d1461029f578063fc736cde146102bf57600080fd5b8063715018a6146102045780638da5cb5b1461020c578063991e013914610227578063b12b05411461023a57600080fd5b80635fae1450116100de5780635fae14501461018a5780636204045e1461019d5780636c0f1cf3146101b05780636e59ef7a146101e357600080fd5b806306d004ef14610110578063260a81e01461013957806338ed7cfc1461014e5780635f58cb4f14610177575b600080fd5b61012361011e366004610fee565b6102d2565b6040516101309190611010565b60405180910390f35b61014c61014736600461109d565b61033e565b005b61016161015c3660046110e9565b6103c9565b6040516101309a99989796959493929190611148565b610123610185366004610fee565b61053c565b61014c6101983660046110e9565b6105a6565b61014c6101ab3660046111c6565b610671565b6101d36101be366004610fee565b60026020526000908152604090205460ff1681565b6040519015158152602001610130565b6101f66101f13660046111f2565b6107b8565b604051908152602001610130565b61014c6107e9565b6000546040516001600160a01b039091168152602001610130565b61014c6102353660046110e9565b6107fd565b6101d3610248366004610fee565b6001600160a01b031660009081526002602052604090205460ff1690565b61014c610274366004610fee565b610926565b6101f661028736600461121c565b6109d0565b61014c61029a366004610fee565b610cfd565b6102b26102ad3660046110e9565b610d3b565b604051610130919061127d565b6101f66102cd3660046111f2565b610f39565b6001600160a01b03811660009081526004602090815260409182902080548351818402810184019094528084526060939283018282801561033257602002820191906000526020600020905b81548152602001906001019080831161031e575b50505050509050919050565b6000838152600160208190526040909120908101546001600160a01b031633148061037357506000546001600160a01b031633145b6103b35760405162461bcd60e51b815260206004820152600c60248201526b155b985d5d1a1bdc9a5e995960a21b60448201526064015b60405180910390fd5b600781016103c28385836113db565b5050505050565b6001602081905260009182526040909120805491810154600282015460038301546004840154600585015460068601546007870180546001600160a01b0397881698969097169694959394929360ff9092169261042590611350565b80601f016020809104026020016040519081016040528092919081815260200182805461045190611350565b801561049e5780601f106104735761010080835404028352916020019161049e565b820191906000526020600020905b81548152906001019060200180831161048157829003601f168201915b5050505050908060080180546104b390611350565b80601f01602080910402602001604051908101604052809291908181526020018280546104df90611350565b801561052c5780601f106105015761010080835404028352916020019161052c565b820191906000526020600020905b81548152906001019060200180831161050f57829003601f168201915b505050505090806009015490508a565b6001600160a01b038116600090815260036020908152604091829020805483518184028101840190945280845260609392830182828015610332576020028201919060005260206000209081548152602001906001019080831161031e5750505050509050919050565b6000818152600160208190526040909120908101546001600160a01b031633146106125760405162461bcd60e51b815260206004820152601860248201527f4f6e6c7920656d706c6f7965722063616e2063616e63656c000000000000000060448201526064016103aa565b600681015460ff166106365760405162461bcd60e51b81526004016103aa9061149b565b60068101805460ff1916905560405182907fa740eee78ea8ce39a4c0ffd07410706b007d1275b57d0650f937117596a1694f90600090a25050565b6000828152600160208190526040909120908101546001600160a01b031633146106dd5760405162461bcd60e51b815260206004820152601860248201527f4f6e6c7920656d706c6f7965722063616e2061737369676e000000000000000060448201526064016103aa565b600681015460ff166107015760405162461bcd60e51b81526004016103aa9061149b565b6001600160a01b0382166107485760405162461bcd60e51b815260206004820152600e60248201526d24b73b30b634b2103bb7b935b2b960911b60448201526064016103aa565b6002810180546001600160a01b0319166001600160a01b038416908117909155600081815260046020908152604080832080546001810182559084529183209091018690555185917f99c30ec3de7646217b730979671a5ace0c1d7153dfa864b3dfe61b298d86790d91a3505050565b600460205281600052604060002081815481106107d457600080fd5b90600052602060002001600091509150505481565b6107f1610f55565b6107fb6000610f82565b565b6000818152600160205260409020600681015460ff1661082f5760405162461bcd60e51b81526004016103aa9061149b565b60018101546001600160a01b0316331461088b5760405162461bcd60e51b815260206004820152601a60248201527f4f6e6c7920656d706c6f7965722063616e20636f6d706c65746500000000000060448201526064016103aa565b60028101546001600160a01b03166108da5760405162461bcd60e51b8152602060048201526012602482015271139bc81ddbdc9ad95c88185cdcda59db995960721b60448201526064016103aa565b60068101805460ff1916905560028101546040516001600160a01b039091169083907f2eb232e6016c02184be27a83e4de89963f9a5503522a4f7899aad0fd26f9338390600090a35050565b61092e610f55565b6001600160a01b0381166109845760405162461bcd60e51b815260206004820152601860248201527f496e76616c696420656d706c6f7965722061646472657373000000000000000060448201526064016103aa565b6001600160a01b038116600081815260026020526040808220805460ff19166001179055517fb22cb4b7847577ada45791c29742b76fcf48b4878f409d060ca78414ba93d70d9190a250565b3360008181526002602052604081205490919060ff16610a3c5760405162461bcd60e51b815260206004820152602160248201527f456d706c6f796572206e6f7420766572696669656420627920576f726c6420496044820152601160fa1b60648201526084016103aa565b60008711610a7f5760405162461bcd60e51b815260206004820152601060248201526f052617465206d757374206265203e20360841b60448201526064016103aa565b848610610abe5760405162461bcd60e51b815260206004820152600d60248201526c496e76616c696420646174657360981b60448201526064016103aa565b42861015610b0e5760405162461bcd60e51b815260206004820152601c60248201527f53746172742064617465206d75737420626520696e206675747572650000000060448201526064016103aa565b6040516bffffffffffffffffffffffff193360601b16602082015242603482015243605482015260009060740160408051601f1981840301815282825280516020918201206101408401835280845233848301526000848401819052606085018d9052608085018c905260a085018b9052600160c08601528351808401855290815260e08501528251601f890183900483028101830190935287835293506101008301919088908890819084018382808284376000920182905250938552505042602093840152508381526001808352604091829020845181559284015190830180546001600160a01b03199081166001600160a01b0393841617909155918401516002840180549093169116179055606082015160038201556080820151600482015560a0820151600582015560c082015160068201805460ff191691151591909117905560e08201516007820190610c6890826114c3565b506101008201516008820190610c7e90826114c3565b506101209190910151600990910155336000818152600360209081526040808320805460018101825590845291909220018390555182907f5751b608c1d4830abffbe9077411a3ba61291c6142ae2f670ec055d90fa5d28290610cea908c908a908a908e908e90611583565b60405180910390a3979650505050505050565b610d05610f55565b6001600160a01b038116610d2f57604051631e4fbdf760e01b8152600060048201526024016103aa565b610d3881610f82565b50565b604080516101408101825260008082526020820181905291810182905260608082018390526080820183905260a0820183905260c0820183905260e0820181905261010082015261012081019190915260008281526001602081815260409283902083516101408101855281548152928101546001600160a01b03908116928401929092526002810154909116928201929092526003820154606082015260048201546080820152600582015460a0820152600682015460ff16151560c082015260078201805491929160e084019190610e1490611350565b80601f0160208091040260200160405190810160405280929190818152602001828054610e4090611350565b8015610e8d5780601f10610e6257610100808354040283529160200191610e8d565b820191906000526020600020905b815481529060010190602001808311610e7057829003601f168201915b50505050508152602001600882018054610ea690611350565b80601f0160208091040260200160405190810160405280929190818152602001828054610ed290611350565b8015610f1f5780601f10610ef457610100808354040283529160200191610f1f565b820191906000526020600020905b815481529060010190602001808311610f0257829003601f168201915b505050505081526020016009820154815250509050919050565b600360205281600052604060002081815481106107d457600080fd5b6000546001600160a01b031633146107fb5760405163118cdaa760e01b81523360048201526024016103aa565b600080546001600160a01b038381166001600160a01b0319831681178455604051919092169283917f8be0079c531659141344cd1fd0a4f28419497f9722a3daafe3b4186f6b6457e09190a35050565b80356001600160a01b0381168114610fe957600080fd5b919050565b60006020828403121561100057600080fd5b61100982610fd2565b9392505050565b6020808252825182820181905260009190848201906040850190845b818110156110485783518352928401929184019160010161102c565b50909695505050505050565b60008083601f84011261106657600080fd5b50813567ffffffffffffffff81111561107e57600080fd5b60208301915083602082850101111561109657600080fd5b9250929050565b6000806000604084860312156110b257600080fd5b83359250602084013567ffffffffffffffff8111156110d057600080fd5b6110dc86828701611054565b9497909650939450505050565b6000602082840312156110fb57600080fd5b5035919050565b6000815180845260005b818110156111285760208185018101518683018201520161110c565b506000602082860101526020601f19601f83011685010191505092915050565b8a81526001600160a01b038a8116602083015289166040820152606081018890526080810187905260a0810186905284151560c082015261014060e0820181905260009061119883820187611102565b90508281036101008401526111ad8186611102565b915050826101208301529b9a5050505050505050505050565b600080604083850312156111d957600080fd5b823591506111e960208401610fd2565b90509250929050565b6000806040838503121561120557600080fd5b61120e83610fd2565b946020939093013593505050565b60008060008060006080868803121561123457600080fd5b853594506020860135935060408601359250606086013567ffffffffffffffff81111561126057600080fd5b61126c88828901611054565b969995985093965092949392505050565b6020815281516020820152600060208301516112a460408401826001600160a01b03169052565b5060408301516001600160a01b03811660608401525060608301516080830152608083015160a083015260a083015160c083015260c08301516112eb60e084018215159052565b5060e0830151610140610100818186015261130a610160860184611102565b9250808601519050610120601f19868503018187015261132a8483611102565b9601519190940152509192915050565b634e487b7160e01b600052604160045260246000fd5b600181811c9082168061136457607f821691505b60208210810361138457634e487b7160e01b600052602260045260246000fd5b50919050565b601f8211156113d6576000816000526020600020601f850160051c810160208610156113b35750805b601f850160051c820191505b818110156113d2578281556001016113bf565b5050505b505050565b67ffffffffffffffff8311156113f3576113f361133a565b611407836114018354611350565b8361138a565b6000601f84116001811461143b57600085156114235750838201355b600019600387901b1c1916600186901b1783556103c2565b600083815260209020601f19861690835b8281101561146c578685013582556020948501946001909201910161144c565b50868210156114895760001960f88860031b161c19848701351681555b505060018560011b0183555050505050565b6020808252600e908201526d4a6f62206e6f742061637469766560901b604082015260600190565b815167ffffffffffffffff8111156114dd576114dd61133a565b6114f1816114eb8454611350565b8461138a565b602080601f831160018114611526576000841561150e5750858301515b600019600386901b1c1916600185901b1785556113d2565b600085815260208120601f198616915b8281101561155557888601518255948401946001909101908401611536565b50858210156115735787850151600019600388901b60f8161c191681555b5050505050600190811b01905550565b85815260806020820152836080820152838560a0830137600060a08583010152600060a0601f19601f8701168301019050836040830152826060830152969550505050505056fea2646970667358221220413d19eedd608cd04b7ebb68829c184f05654e6be96d8b1e5f7cf0a23257cdee64736f6c63430008180033","opcodes":"PUSH1 0x80 PUSH1 0x40 MSTORE CALLVALUE DUP1 ISZERO PUSH2 0x10 JUMPI PUSH1 0x0 DUP1 REVERT JUMPDEST POP CALLER DUP1 PUSH2 0x37 JUMPI PUSH1 0x40 MLOAD PUSH4 0x1E4FBDF7 PUSH1 0xE0 SHL DUP2 MSTORE PUSH1 0x0 PUSH1 0x4 DUP3 ADD MSTORE PUSH1 0x24 ADD PUSH1 0x40 MLOAD DUP1 SWAP2 SUB SWAP1 REVERT JUMPDEST PUSH2 0x40 DUP2 PUSH2 0x6A JUMP JUMPDEST POP PUSH1 0x1 PUSH32 0x9B779B17422D0DF92223018B32B4D1FA46E071723D6817E2486D003BECC55F00 SSTORE PUSH2 0xBA JUMP JUMPDEST PUSH1 0x0 DUP1 SLOAD PUSH1 0x1 PUSH1 0x1 PUSH1 0xA0 SHL SUB DUP4 DUP2 AND PUSH1 0x1 PUSH1 0x1 PUSH1 0xA0 SHL SUB NOT DUP4 AND DUP2 OR DUP5 SSTORE PUSH1 0x40 MLOAD SWAP2 SWAP1 SWAP3 AND SWAP3 DUP4 SWAP2 PUSH32 0x8BE0079C531659141344CD1FD0A4F28419497F9722A3DAAFE3B4186F6B6457E0 SWAP2 SWAP1 LOG3 POP POP JUMP JUMPDEST PUSH2 0x1600 DUP1 PUSH2 0xC9 PUSH1 0x0 CODECOPY PUSH1 0x0 RETURN INVALID PUSH1 0x80 PUSH1 0x40 MSTORE CALLVALUE DUP1 ISZERO PUSH2 0x10 JUMPI PUSH1 0x0 DUP1 REVERT JUMPDEST POP PUSH1 0x4 CALLDATASIZE LT PUSH2 0x10B JUMPI PUSH1 0x0 CALLDATALOAD PUSH1 0xE0 SHR DUP1 PUSH4 0x715018A6 GT PUSH2 0xA2 JUMPI DUP1 PUSH4 0xB3CC221D GT PUSH2 0x71 JUMPI DUP1 PUSH4 0xB3CC221D EQ PUSH2 0x266 JUMPI DUP1 PUSH4 0xD6316D78 EQ PUSH2 0x279 JUMPI DUP1 PUSH4 0xF2FDE38B EQ PUSH2 0x28C JUMPI DUP1 PUSH4 0xF729CF0D EQ PUSH2 0x29F JUMPI DUP1 PUSH4 0xFC736CDE EQ PUSH2 0x2BF JUMPI PUSH1 0x0 DUP1 REVERT JUMPDEST DUP1 PUSH4 0x715018A6 EQ PUSH2 0x204 JUMPI DUP1 PUSH4 0x8DA5CB5B EQ PUSH2 0x20C JUMPI DUP1 PUSH4 0x991E0139 EQ PUSH2 0x227 JUMPI DUP1 PUSH4 0xB12B0541 EQ PUSH2 0x23A JUMPI PUSH1 0x0 DUP1 REVERT JUMPDEST DUP1 PUSH4 0x5FAE1450 GT PUSH2 0xDE JUMPI DUP1 PUSH4 0x5FAE1450 EQ PUSH2 0x18A JUMPI DUP1 PUSH4 0x6204045E EQ PUSH2 0x19D JUMPI DUP1 PUSH4 0x6C0F1CF3 EQ PUSH2 0x1B0 JUMPI DUP1 PUSH4 0x6E59EF7A EQ PUSH2 0x1E3 JUMPI PUSH1 0x0 DUP1 REVERT JUMPDEST DUP1 PUSH4 0x6D004EF EQ PUSH2 0x110 JUMPI DUP1 PUSH4 0x260A81E0 EQ PUSH2 0x139 JUMPI DUP1 PUSH4 0x38ED7CFC EQ PUSH2 0x14E JUMPI DUP1 PUSH4 0x5F58CB4F EQ PUSH2 0x177 JUMPI JUMPDEST PUSH1 0x0 DUP1 REVERT JUMPDEST PUSH2 0x123 PUSH2 0x11E CALLDATASIZE PUSH1 0x4 PUSH2 0xFEE JUMP JUMPDEST PUSH2 0x2D2 JUMP JUMPDEST PUSH1 0x40 MLOAD PUSH2 0x130 SWAP2 SWAP1 PUSH2 0x1010 JUMP JUMPDEST PUSH1 0x40 MLOAD DUP1 SWAP2 SUB SWAP1 RETURN JUMPDEST PUSH2 0x14C PUSH2 0x147 CALLDATASIZE PUSH1 0x4 PUSH2 0x109D JUMP JUMPDEST PUSH2 0x33E JUMP JUMPDEST STOP JUMPDEST PUSH2 0x161 PUSH2 0x15C CALLDATASIZE PUSH1 0x4 PUSH2 0x10E9 JUMP JUMPDEST PUSH2 0x3C9 JUMP JUMPDEST PUSH1 0x40 MLOAD PUSH2 0x130 SWAP11 SWAP10 SWAP9 SWAP8 SWAP7 SWAP6 SWAP5 SWAP4 SWAP3 SWAP2 SWAP1 PUSH2 0x1148 JUMP JUMPDEST PUSH2 0x123 PUSH2 0x185 CALLDATASIZE PUSH1 0x4 PUSH2 0xFEE JUMP JUMPDEST PUSH2 0x53C JUMP JUMPDEST PUSH2 0x14C PUSH2 0x198 CALLDATASIZE PUSH1 0x4 PUSH2 0x10E9 JUMP JUMPDEST PUSH2 0x5A6 JUMP JUMPDEST PUSH2 0x14C PUSH2 0x1AB CALLDATASIZE PUSH1 0x4 PUSH2 0x11C6 JUMP JUMPDEST PUSH2 0x671 JUMP JUMPDEST PUSH2 0x1D3 PUSH2 0x1BE CALLDATASIZE PUSH1 0x4 PUSH2 0xFEE JUMP JUMPDEST PUSH1 0x2 PUSH1 0x20 MSTORE PUSH1 0x0 SWAP1 DUP2 MSTORE PUSH1 0x40 SWAP1 KECCAK256 SLOAD PUSH1 0xFF AND DUP2 JUMP JUMPDEST PUSH1 0x40 MLOAD SWAP1 ISZERO ISZERO DUP2 MSTORE PUSH1 0x20 ADD PUSH2 0x130 JUMP JUMPDEST PUSH2 0x1F6 PUSH2 0x1F1 CALLDATASIZE PUSH1 0x4 PUSH2 0x11F2 JUMP JUMPDEST PUSH2 0x7B8 JUMP JUMPDEST PUSH1 0x40 MLOAD SWAP1 DUP2 MSTORE PUSH1 0x20 ADD PUSH2 0x130 JUMP JUMPDEST PUSH2 0x14C PUSH2 0x7E9 JUMP JUMPDEST PUSH1 0x0 SLOAD PUSH1 0x40 MLOAD PUSH1 0x1 PUSH1 0x1 PUSH1 0xA0 SHL SUB SWAP1 SWAP2 AND DUP2 MSTORE PUSH1 0x20 ADD PUSH2 0x130 JUMP JUMPDEST PUSH2 0x14C PUSH2 0x235 CALLDATASIZE PUSH1 0x4 PUSH2 0x10E9 JUMP JUMPDEST PUSH2 0x7FD JUMP JUMPDEST PUSH2 0x1D3 PUSH2 0x248 CALLDATASIZE PUSH1 0x4 PUSH2 0xFEE JUMP JUMPDEST PUSH1 0x1 PUSH1 0x1 PUSH1 0xA0 SHL SUB AND PUSH1 0x0 SWAP1 DUP2 MSTORE PUSH1 0x2 PUSH1 0x20 MSTORE PUSH1 0x40 SWAP1 KECCAK256 SLOAD PUSH1 0xFF AND SWAP1 JUMP JUMPDEST PUSH2 0x14C PUSH2 0x274 CALLDATASIZE PUSH1 0x4 PUSH2 0xFEE JUMP JUMPDEST PUSH2 0x926 JUMP JUMPDEST PUSH2 0x1F6 PUSH2 0x287 CALLDATASIZE PUSH1 0x4 PUSH2 0x121C JUMP JUMPDEST PUSH2 0x9D0 JUMP JUMPDEST PUSH2 0x14C PUSH2 0x29A CALLDATASIZE PUSH1 0x4 PUSH2 0xFEE JUMP JUMPDEST PUSH2 0xCFD JUMP JUMPDEST PUSH2 0x2B2 PUSH2 0x2AD CALLDATASIZE PUSH1 0x4 PUSH2 0x10E9 JUMP JUMPDEST PUSH2 0xD3B JUMP JUMPDEST PUSH1 0x40 MLOAD PUSH2 0x130 SWAP2 SWAP1 PUSH2 0x127D JUMP JUMPDEST PUSH2 0x1F6 PUSH2 0x2CD CALLDATASIZE PUSH1 0x4 PUSH2 0x11F2 JUMP JUMPDEST PUSH2 0xF39 JUMP JUMPDEST PUSH1 0x1 PUSH1 0x1 PUSH1 0xA0 SHL SUB DUP2 AND PUSH1 0x0 SWAP1 DUP2 MSTORE PUSH1 0x4 PUSH1 0x20 SWAP1 DUP2 MSTORE PUSH1 0x40 SWAP2 DUP3 SWAP1 KECCAK256 DUP1 SLOAD DUP4 MLOAD DUP2 DUP5 MUL DUP2 ADD DUP5 ADD SWAP1 SWAP5 MSTORE DUP1 DUP5 MSTORE PUSH1 0x60 SWAP4 SWAP3 DUP4 ADD DUP3 DUP3 DUP1 ISZERO PUSH2 0x332 JUMPI PUSH1 0x20 MUL DUP3 ADD SWAP2 SWAP1 PUSH1 0x0 MSTORE PUSH1 0x20 PUSH1 0x0 KECCAK256 SWAP1 JUMPDEST DUP2 SLOAD DUP2 MSTORE PUSH1 0x20 ADD SWAP1 PUSH1 0x1 ADD SWAP1 DUP1 DUP4 GT PUSH2 0x31E JUMPI JUMPDEST POP POP POP POP POP SWAP1 POP SWAP2 SWAP1 POP JUMP JUMPDEST PUSH1 0x0 DUP4 DUP2 MSTORE PUSH1 0x1 PUSH1 0x20 DUP2 SWAP1 MSTORE PUSH1 0x40 SWAP1 SWAP2 KECCAK256 SWAP1 DUP2 ADD SLOAD PUSH1 0x1 PUSH1 0x1 PUSH1 0xA0 SHL SUB AND CALLER EQ DUP1 PUSH2 0x373 JUMPI POP PUSH1 0x0 SLOAD PUSH1 0x1 PUSH1 0x1 PUSH1 0xA0 SHL SUB AND CALLER EQ JUMPDEST PUSH2 0x3B3 JUMPI PUSH1 0x40 MLOAD PUSH3 0x461BCD PUSH1 0xE5 SHL DUP2 MSTORE PUSH1 0x20 PUSH1 0x4 DUP3 ADD MSTORE PUSH1 0xC PUSH1 0x24 DUP3 ADD MSTORE PUSH12 0x155B985D5D1A1BDC9A5E9959 PUSH1 0xA2 SHL PUSH1 0x44 DUP3 ADD MSTORE PUSH1 0x64 ADD JUMPDEST PUSH1 0x40 MLOAD DUP1 SWAP2 SUB SWAP1 REVERT JUMPDEST PUSH1 0x7 DUP2 ADD PUSH2 0x3C2 DUP4 DUP6 DUP4 PUSH2 0x13DB JUMP JUMPDEST POP POP POP POP POP JUMP JUMPDEST PUSH1 0x1 PUSH1 0x20 DUP2 SWAP1 MSTORE PUSH1 0x0 SWAP2 DUP3 MSTORE PUSH1 0x40 SWAP1 SWAP2 KECCAK256 DUP1 SLOAD SWAP2 DUP2 ADD SLOAD PUSH1 0x2 DUP3 ADD SLOAD PUSH1 0x3 DUP4 ADD SLOAD PUSH1 0x4 DUP5 ADD SLOAD PUSH1 0x5 DUP6 ADD SLOAD PUSH1 0x6 DUP7 ADD SLOAD PUSH1 0x7 DUP8 ADD DUP1 SLOAD PUSH1 0x1 PUSH1 0x1 PUSH1 0xA0 SHL SUB SWAP8 DUP9 AND SWAP9 SWAP7 SWAP1 SWAP8 AND SWAP7 SWAP5 SWAP6 SWAP4 SWAP5 SWAP3 SWAP4 PUSH1 0xFF SWAP1 SWAP3 AND SWAP3 PUSH2 0x425 SWAP1 PUSH2 0x1350 JUMP JUMPDEST DUP1 PUSH1 0x1F ADD PUSH1 0x20 DUP1 SWAP2 DIV MUL PUSH1 0x20 ADD PUSH1 0x40 MLOAD SWAP1 DUP2 ADD PUSH1 0x40 MSTORE DUP1 SWAP3 SWAP2 SWAP1 DUP2 DUP2 MSTORE PUSH1 0x20 ADD DUP3 DUP1 SLOAD PUSH2 0x451 SWAP1 PUSH2 0x1350 JUMP JUMPDEST DUP1 ISZERO PUSH2 0x49E JUMPI DUP1 PUSH1 0x1F LT PUSH2 0x473 JUMPI PUSH2 0x100 DUP1 DUP4 SLOAD DIV MUL DUP4 MSTORE SWAP2 PUSH1 0x20 ADD SWAP2 PUSH2 0x49E JUMP JUMPDEST DUP3 ADD SWAP2 SWAP1 PUSH1 0x0 MSTORE PUSH1 0x20 PUSH1 0x0 KECCAK256 SWAP1 JUMPDEST DUP2 SLOAD DUP2 MSTORE SWAP1 PUSH1 0x1 ADD SWAP1 PUSH1 0x20 ADD DUP1 DUP4 GT PUSH2 0x481 JUMPI DUP3 SWAP1 SUB PUSH1 0x1F AND DUP3 ADD SWAP2 JUMPDEST POP POP POP POP POP SWAP1 DUP1 PUSH1 0x8 ADD DUP1 SLOAD PUSH2 0x4B3 SWAP1 PUSH2 0x1350 JUMP JUMPDEST DUP1 PUSH1 0x1F ADD PUSH1 0x20 DUP1 SWAP2 DIV MUL PUSH1 0x20 ADD PUSH1 0x40 MLOAD SWAP1 DUP2 ADD PUSH1 0x40 MSTORE DUP1 SWAP3 SWAP2 SWAP1 DUP2 DUP2 MSTORE PUSH1 0x20 ADD DUP3 DUP1 SLOAD PUSH2 0x4DF SWAP1 PUSH2 0x1350 JUMP JUMPDEST DUP1 ISZERO PUSH2 0x52C JUMPI DUP1 PUSH1 0x1F LT PUSH2 0x501 JUMPI PUSH2 0x100 DUP1 DUP4 SLOAD DIV MUL DUP4 MSTORE SWAP2 PUSH1 0x20 ADD SWAP2 PUSH2 0x52C JUMP JUMPDEST DUP3 ADD SWAP2 SWAP1 PUSH1 0x0 MSTORE PUSH1 0x20 PUSH1 0x0 KECCAK256 SWAP1 JUMPDEST DUP2 SLOAD DUP2 MSTORE SWAP1 PUSH1 0x1 ADD SWAP1 PUSH1 0x20 ADD DUP1 DUP4 GT PUSH2 0x50F JUMPI DUP3 SWAP1 SUB PUSH1 0x1F AND DUP3 ADD SWAP2 JUMPDEST POP POP POP POP POP SWAP1 DUP1 PUSH1 0x9 ADD SLOAD SWAP1 POP DUP11 JUMP JUMPDEST PUSH1 0x1 PUSH1 0x1 PUSH1 0xA0 SHL SUB DUP2 AND PUSH1 0x0 SWAP1 DUP2 MSTORE PUSH1 0x3 PUSH1 0x20 SWAP1 DUP2 MSTORE PUSH1 0x40 SWAP2 DUP3 SWAP1 KECCAK256 DUP1 SLOAD DUP4 MLOAD DUP2 DUP5 MUL DUP2 ADD DUP5 ADD SWAP1 SWAP5 MSTORE DUP1 DUP5 MSTORE PUSH1 0x60 SWAP4 SWAP3 DUP4 ADD DUP3 DUP3 DUP1 ISZERO PUSH2 0x332 JUMPI PUSH1 0x20 MUL DUP3 ADD SWAP2 SWAP1 PUSH1 0x0 MSTORE PUSH1 0x20 PUSH1 0x0 KECCAK256 SWAP1 DUP2 SLOAD DUP2 MSTORE PUSH1 0x20 ADD SWAP1 PUSH1 0x1 ADD SWAP1 DUP1 DUP4 GT PUSH2 0x31E JUMPI POP POP POP POP POP SWAP1 POP SWAP2 SWAP1 POP JUMP JUMPDEST PUSH1 0x0 DUP2 DUP2 MSTORE PUSH1 0x1 PUSH1 0x20 DUP2 SWAP1 MSTORE PUSH1 0x40 SWAP1 SWAP2 KECCAK256 SWAP1 DUP2 ADD SLOAD PUSH1 0x1 PUSH1 0x1 PUSH1 0xA0 SHL SUB AND CALLER EQ PUSH2 0x612 JUMPI PUSH1 0x40 MLOAD PUSH3 0x461BCD PUSH1 0xE5 SHL DUP2 MSTORE PUSH1 0x20 PUSH1 0x4 DUP3 ADD MSTORE PUSH1 0x18 PUSH1 0x24 DUP3 ADD MSTORE PUSH32 0x4F6E6C7920656D706C6F7965722063616E2063616E63656C0000000000000000 PUSH1 0x44 DUP3 ADD MSTORE PUSH1 0x64 ADD PUSH2 0x3AA JUMP JUMPDEST PUSH1 0x6 DUP2 ADD SLOAD PUSH1 0xFF AND PUSH2 0x636 JUMPI PUSH1 0x40 MLOAD PUSH3 0x461BCD PUSH1 0xE5 SHL DUP2 MSTORE PUSH1 0x4 ADD PUSH2 0x3AA SWAP1 PUSH2 0x149B JUMP JUMPDEST PUSH1 0x6 DUP2 ADD DUP1 SLOAD PUSH1 0xFF NOT AND SWAP1 SSTORE PUSH1 0x40 MLOAD DUP3 SWAP1 PUSH32 0xA740EEE78EA8CE39A4C0FFD07410706B007D1275B57D0650F937117596A1694F SWAP1 PUSH1 0x0 SWAP1 LOG2 POP POP JUMP JUMPDEST PUSH1 0x0 DUP3 DUP2 MSTORE PUSH1 0x1 PUSH1 0x20 DUP2 SWAP1 MSTORE PUSH1 0x40 SWAP1 SWAP2 KECCAK256 SWAP1 DUP2 ADD SLOAD PUSH1 0x1 PUSH1 0x1 PUSH1 0xA0 SHL SUB AND CALLER EQ PUSH2 0x6DD JUMPI PUSH1 0x40 MLOAD PUSH3 0x461BCD PUSH1 0xE5 SHL DUP2 MSTORE PUSH1 0x20 PUSH1 0x4 DUP3 ADD MSTORE PUSH1 0x18 PUSH1 0x24 DUP3 ADD MSTORE PUSH32 0x4F6E6C7920656D706C6F7965722063616E2061737369676E0000000000000000 PUSH1 0x44 DUP3 ADD MSTORE PUSH1 0x64 ADD PUSH2 0x3AA JUMP JUMPDEST PUSH1 0x6 DUP2 ADD SLOAD PUSH1 0xFF AND PUSH2 0x701 JUMPI PUSH1 0x40 MLOAD PUSH3 0x461BCD PUSH1 0xE5 SHL DUP2 MSTORE PUSH1 0x4 ADD PUSH2 0x3AA SWAP1 PUSH2 0x149B JUMP JUMPDEST PUSH1 0x1 PUSH1 0x1 PUSH1 0xA0 SHL SUB DUP3 AND PUSH2 0x748 JUMPI PUSH1 0x40 MLOAD PUSH3 0x461BCD PUSH1 0xE5 SHL DUP2 MSTORE PUSH1 0x20 PUSH1 0x4 DUP3 ADD MSTORE PUSH1 0xE PUSH1 0x24 DUP3 ADD MSTORE PUSH14 0x24B73B30B634B2103BB7B935B2B9 PUSH1 0x91 SHL PUSH1 0x44 DUP3 ADD MSTORE PUSH1 0x64 ADD PUSH2 0x3AA JUMP JUMPDEST PUSH1 0x2 DUP2 ADD DUP1 SLOAD PUSH1 0x1 PUSH1 0x1 PUSH1 0xA0 SHL SUB NOT AND PUSH1 0x1 PUSH1 0x1 PUSH1 0xA0 SHL SUB DUP5 AND SWAP1 DUP2 OR SWAP1 SWAP2 SSTORE PUSH1 0x0 DUP2 DUP2 MSTORE PUSH1 0x4 PUSH1 0x20 SWAP1 DUP2 MSTORE PUSH1 0x40 DUP1 DUP4 KECCAK256 DUP1 SLOAD PUSH1 0x1 DUP2 ADD DUP3 SSTORE SWAP1 DUP5 MSTORE SWAP2 DUP4 KECCAK256 SWAP1 SWAP2 ADD DUP7 SWAP1 SSTORE MLOAD DUP6 SWAP2 PUSH32 0x99C30EC3DE7646217B730979671A5ACE0C1D7153DFA864B3DFE61B298D86790D SWAP2 LOG3 POP POP POP JUMP JUMPDEST PUSH1 0x4 PUSH1 0x20 MSTORE DUP2 PUSH1 0x0 MSTORE PUSH1 0x40 PUSH1 0x0 KECCAK256 DUP2 DUP2 SLOAD DUP2 LT PUSH2 0x7D4 JUMPI PUSH1 0x0 DUP1 REVERT JUMPDEST SWAP1 PUSH1 0x0 MSTORE PUSH1 0x20 PUSH1 0x0 KECCAK256 ADD PUSH1 0x0 SWAP2 POP SWAP2 POP POP SLOAD DUP2 JUMP JUMPDEST PUSH2 0x7F1 PUSH2 0xF55 JUMP JUMPDEST PUSH2 0x7FB PUSH1 0x0 PUSH2 0xF82 JUMP JUMPDEST JUMP JUMPDEST PUSH1 0x0 DUP2 DUP2 MSTORE PUSH1 0x1 PUSH1 0x20 MSTORE PUSH1 0x40 SWAP1 KECCAK256 PUSH1 0x6 DUP2 ADD SLOAD PUSH1 0xFF AND PUSH2 0x82F JUMPI PUSH1 0x40 MLOAD PUSH3 0x461BCD PUSH1 0xE5 SHL DUP2 MSTORE PUSH1 0x4 ADD PUSH2 0x3AA SWAP1 PUSH2 0x149B JUMP JUMPDEST PUSH1 0x1 DUP2 ADD SLOAD PUSH1 0x1 PUSH1 0x1 PUSH1 0xA0 SHL SUB AND CALLER EQ PUSH2 0x88B JUMPI PUSH1 0x40 MLOAD PUSH3 0x461BCD PUSH1 0xE5 SHL DUP2 MSTORE PUSH1 0x20 PUSH1 0x4 DUP3 ADD MSTORE PUSH1 0x1A PUSH1 0x24 DUP3 ADD MSTORE PUSH32 0x4F6E6C7920656D706C6F7965722063616E20636F6D706C657465000000000000 PUSH1 0x44 DUP3 ADD MSTORE PUSH1 0x64 ADD PUSH2 0x3AA JUMP JUMPDEST PUSH1 0x2 DUP2 ADD SLOAD PUSH1 0x1 PUSH1 0x1 PUSH1 0xA0 SHL SUB AND PUSH2 0x8DA JUMPI PUSH1 0x40 MLOAD PUSH3 0x461BCD PUSH1 0xE5 SHL DUP2 MSTORE PUSH1 0x20 PUSH1 0x4 DUP3 ADD MSTORE PUSH1 0x12 PUSH1 0x24 DUP3 ADD MSTORE PUSH18 0x139BC81DDBDC9AD95C88185CDCDA59DB9959 PUSH1 0x72 SHL PUSH1 0x44 DUP3 ADD MSTORE PUSH1 0x64 ADD PUSH2 0x3AA JUMP JUMPDEST PUSH1 0x6 DUP2 ADD DUP1 SLOAD PUSH1 0xFF NOT AND SWAP1 SSTORE PUSH1 0x2 DUP2 ADD SLOAD PUSH1 0x40 MLOAD PUSH1 0x1 PUSH1 0x1 PUSH1 0xA0 SHL SUB SWAP1 SWAP2 AND SWAP1 DUP4 SWAP1 PUSH32 0x2EB232E6016C02184BE27A83E4DE89963F9A5503522A4F7899AAD0FD26F93383 SWAP1 PUSH1 0x0 SWAP1 LOG3 POP POP JUMP JUMPDEST PUSH2 0x92E PUSH2 0xF55 JUMP JUMPDEST PUSH1 0x1 PUSH1 0x1 PUSH1 0xA0 SHL SUB DUP2 AND PUSH2 0x984 JUMPI PUSH1 0x40 MLOAD PUSH3 0x461BCD PUSH1 0xE5 SHL DUP2 MSTORE PUSH1 0x20 PUSH1 0x4 DUP3 ADD MSTORE PUSH1 0x18 PUSH1 0x24 DUP3 ADD MSTORE PUSH32 0x496E76616C696420656D706C6F79657220616464726573730000000000000000 PUSH1 0x44 DUP3 ADD MSTORE PUSH1 0x64 ADD PUSH2 0x3AA JUMP JUMPDEST PUSH1 0x1 PUSH1 0x1 PUSH1 0xA0 SHL SUB DUP2 AND PUSH1 0x0 DUP2 DUP2 MSTORE PUSH1 0x2 PUSH1 0x20 MSTORE PUSH1 0x40 DUP1 DUP3 KECCAK256 DUP1 SLOAD PUSH1 0xFF NOT AND PUSH1 0x1 OR SWAP1 SSTORE MLOAD PUSH32 0xB22CB4B7847577ADA45791C29742B76FCF48B4878F409D060CA78414BA93D70D SWAP2 SWAP1 LOG2 POP JUMP JUMPDEST CALLER PUSH1 0x0 DUP2 DUP2 MSTORE PUSH1 0x2 PUSH1 0x20 MSTORE PUSH1 0x40 DUP2 KECCAK256 SLOAD SWAP1 SWAP2 SWAP1 PUSH1 0xFF AND PUSH2 0xA3C JUMPI PUSH1 0x40 MLOAD PUSH3 0x461BCD PUSH1 0xE5 SHL DUP2 MSTORE PUSH1 0x20 PUSH1 0x4 DUP3 ADD MSTORE PUSH1 0x21 PUSH1 0x24 DUP3 ADD MSTORE PUSH32 0x456D706C6F796572206E6F7420766572696669656420627920576F726C642049 PUSH1 0x44 DUP3 ADD MSTORE PUSH1 0x11 PUSH1 0xFA SHL PUSH1 0x64 DUP3 ADD MSTORE PUSH1 0x84 ADD PUSH2 0x3AA JUMP JUMPDEST PUSH1 0x0 DUP8 GT PUSH2 0xA7F JUMPI PUSH1 0x40 MLOAD PUSH3 0x461BCD PUSH1 0xE5 SHL DUP2 MSTORE PUSH1 0x20 PUSH1 0x4 DUP3 ADD MSTORE PUSH1 0x10 PUSH1 0x24 DUP3 ADD MSTORE PUSH16 0x52617465206D757374206265203E203 PUSH1 0x84 SHL PUSH1 0x44 DUP3 ADD MSTORE PUSH1 0x64 ADD PUSH2 0x3AA JUMP JUMPDEST DUP5 DUP7 LT PUSH2 0xABE JUMPI PUSH1 0x40 MLOAD PUSH3 0x461BCD PUSH1 0xE5 SHL DUP2 MSTORE PUSH1 0x20 PUSH1 0x4 DUP3 ADD MSTORE PUSH1 0xD PUSH1 0x24 DUP3 ADD MSTORE PUSH13 0x496E76616C6964206461746573 PUSH1 0x98 SHL PUSH1 0x44 DUP3 ADD MSTORE PUSH1 0x64 ADD PUSH2 0x3AA JUMP JUMPDEST TIMESTAMP DUP7 LT ISZERO PUSH2 0xB0E JUMPI PUSH1 0x40 MLOAD PUSH3 0x461BCD PUSH1 0xE5 SHL DUP2 MSTORE PUSH1 0x20 PUSH1 0x4 DUP3 ADD MSTORE PUSH1 0x1C PUSH1 0x24 DUP3 ADD MSTORE PUSH32 0x53746172742064617465206D75737420626520696E2066757475726500000000 PUSH1 0x44 DUP3 ADD MSTORE PUSH1 0x64 ADD PUSH2 0x3AA JUMP JUMPDEST PUSH1 0x40 MLOAD PUSH12 0xFFFFFFFFFFFFFFFFFFFFFFFF NOT CALLER PUSH1 0x60 SHL AND PUSH1 0x20 DUP3 ADD MSTORE TIMESTAMP PUSH1 0x34 DUP3 ADD MSTORE NUMBER PUSH1 0x54 DUP3 ADD MSTORE PUSH1 0x0 SWAP1 PUSH1 0x74 ADD PUSH1 0x40 DUP1 MLOAD PUSH1 0x1F NOT DUP2 DUP5 SUB ADD DUP2 MSTORE DUP3 DUP3 MSTORE DUP1 MLOAD PUSH1 0x20 SWAP2 DUP3 ADD KECCAK256 PUSH2 0x140 DUP5 ADD DUP4 MSTORE DUP1 DUP5 MSTORE CALLER DUP5 DUP4 ADD MSTORE PUSH1 0x0 DUP5 DUP5 ADD DUP2 SWAP1 MSTORE PUSH1 0x60 DUP6 ADD DUP14 SWAP1 MSTORE PUSH1 0x80 DUP6 ADD DUP13 SWAP1 MSTORE PUSH1 0xA0 DUP6 ADD DUP12 SWAP1 MSTORE PUSH1 0x1 PUSH1 0xC0 DUP7 ADD MSTORE DUP4 MLOAD DUP1 DUP5 ADD DUP6 MSTORE SWAP1 DUP2 MSTORE PUSH1 0xE0 DUP6 ADD MSTORE DUP3 MLOAD PUSH1 0x1F DUP10 ADD DUP4 SWAP1 DIV DUP4 MUL DUP2 ADD DUP4 ADD SWAP1 SWAP4 MSTORE DUP8 DUP4 MSTORE SWAP4 POP PUSH2 0x100 DUP4 ADD SWAP2 SWAP1 DUP9 SWAP1 DUP9 SWAP1 DUP2 SWAP1 DUP5 ADD DUP4 DUP3 DUP1 DUP3 DUP5 CALLDATACOPY PUSH1 0x0 SWAP3 ADD DUP3 SWAP1 MSTORE POP SWAP4 DUP6 MSTORE POP POP TIMESTAMP PUSH1 0x20 SWAP4 DUP5 ADD MSTORE POP DUP4 DUP2 MSTORE PUSH1 0x1 DUP1 DUP4 MSTORE PUSH1 0x40 SWAP2 DUP3 SWAP1 KECCAK256 DUP5 MLOAD DUP2 SSTORE SWAP3 DUP5 ADD MLOAD SWAP1 DUP4 ADD DUP1 SLOAD PUSH1 0x1 PUSH1 0x1 PUSH1 0xA0 SHL SUB NOT SWAP1 DUP2 AND PUSH1 0x1 PUSH1 0x1 PUSH1 0xA0 SHL SUB SWAP4 DUP5 AND OR SWAP1 SWAP2 SSTORE SWAP2 DUP5 ADD MLOAD PUSH1 0x2 DUP5 ADD DUP1 SLOAD SWAP1 SWAP4 AND SWAP2 AND OR SWAP1 SSTORE PUSH1 0x60 DUP3 ADD MLOAD PUSH1 0x3 DUP3 ADD SSTORE PUSH1 0x80 DUP3 ADD MLOAD PUSH1 0x4 DUP3 ADD SSTORE PUSH1 0xA0 DUP3 ADD MLOAD PUSH1 0x5 DUP3 ADD SSTORE PUSH1 0xC0 DUP3 ADD MLOAD PUSH1 0x6 DUP3 ADD DUP1 SLOAD PUSH1 0xFF NOT AND SWAP2 ISZERO ISZERO SWAP2 SWAP1 SWAP2 OR SWAP1 SSTORE PUSH1 0xE0 DUP3 ADD MLOAD PUSH1 0x7 DUP3 ADD SWAP1 PUSH2 0xC68 SWAP1 DUP3 PUSH2 0x14C3 JUMP JUMPDEST POP PUSH2 0x100 DUP3 ADD MLOAD PUSH1 0x8 DUP3 ADD SWAP1 PUSH2 0xC7E SWAP1 DUP3 PUSH2 0x14C3 JUMP JUMPDEST POP PUSH2 0x120 SWAP2 SWAP1 SWAP2 ADD MLOAD PUSH1 0x9 SWAP1 SWAP2 ADD SSTORE CALLER PUSH1 0x0 DUP2 DUP2 MSTORE PUSH1 0x3 PUSH1 0x20 SWAP1 DUP2 MSTORE PUSH1 0x40 DUP1 DUP4 KECCAK256 DUP1 SLOAD PUSH1 0x1 DUP2 ADD DUP3 SSTORE SWAP1 DUP5 MSTORE SWAP2 SWAP1 SWAP3 KECCAK256 ADD DUP4 SWAP1 SSTORE MLOAD DUP3 SWAP1 PUSH32 0x5751B608C1D4830ABFFBE9077411A3BA61291C6142AE2F670EC055D90FA5D282 SWAP1 PUSH2 0xCEA SWAP1 DUP13 SWAP1 DUP11 SWAP1 DUP11 SWAP1 DUP15 SWAP1 DUP15 SWAP1 PUSH2 0x1583 JUMP JUMPDEST PUSH1 0x40 MLOAD DUP1 SWAP2 SUB SWAP1 LOG3 SWAP8 SWAP7 POP POP POP POP POP POP POP JUMP JUMPDEST PUSH2 0xD05 PUSH2 0xF55 JUMP JUMPDEST PUSH1 0x1 PUSH1 0x1 PUSH1 0xA0 SHL SUB DUP2 AND PUSH2 0xD2F JUMPI PUSH1 0x40 MLOAD PUSH4 0x1E4FBDF7 PUSH1 0xE0 SHL DUP2 MSTORE PUSH1 0x0 PUSH1 0x4 DUP3 ADD MSTORE PUSH1 0x24 ADD PUSH2 0x3AA JUMP JUMPDEST PUSH2 0xD38 DUP2 PUSH2 0xF82 JUMP JUMPDEST POP JUMP JUMPDEST PUSH1 0x40 DUP1 MLOAD PUSH2 0x140 DUP2 ADD DUP3 MSTORE PUSH1 0x0 DUP1 DUP3 MSTORE PUSH1 0x20 DUP3 ADD DUP2 SWAP1 MSTORE SWAP2 DUP2 ADD DUP3 SWAP1 MSTORE PUSH1 0x60 DUP1 DUP3 ADD DUP4 SWAP1 MSTORE PUSH1 0x80 DUP3 ADD DUP4 SWAP1 MSTORE PUSH1 0xA0 DUP3 ADD DUP4 SWAP1 MSTORE PUSH1 0xC0 DUP3 ADD DUP4 SWAP1 MSTORE PUSH1 0xE0 DUP3 ADD DUP2 SWAP1 MSTORE PUSH2 0x100 DUP3 ADD MSTORE PUSH2 0x120 DUP2 ADD SWAP2 SWAP1 SWAP2 MSTORE PUSH1 0x0 DUP3 DUP2 MSTORE PUSH1 0x1 PUSH1 0x20 DUP2 DUP2 MSTORE PUSH1 0x40 SWAP3 DUP4 SWAP1 KECCAK256 DUP4 MLOAD PUSH2 0x140 DUP2 ADD DUP6 MSTORE DUP2 SLOAD DUP2 MSTORE SWAP3 DUP2 ADD SLOAD PUSH1 0x1 PUSH1 0x1 PUSH1 0xA0 SHL SUB SWAP1 DUP2 AND SWAP3 DUP5 ADD SWAP3 SWAP1 SWAP3 MSTORE PUSH1 0x2 DUP2 ADD SLOAD SWAP1 SWAP2 AND SWAP3 DUP3 ADD SWAP3 SWAP1 SWAP3 MSTORE PUSH1 0x3 DUP3 ADD SLOAD PUSH1 0x60 DUP3 ADD MSTORE PUSH1 0x4 DUP3 ADD SLOAD PUSH1 0x80 DUP3 ADD MSTORE PUSH1 0x5 DUP3 ADD SLOAD PUSH1 0xA0 DUP3 ADD MSTORE PUSH1 0x6 DUP3 ADD SLOAD PUSH1 0xFF AND ISZERO ISZERO PUSH1 0xC0 DUP3 ADD MSTORE PUSH1 0x7 DUP3 ADD DUP1 SLOAD SWAP2 SWAP3 SWAP2 PUSH1 0xE0 DUP5 ADD SWAP2 SWAP1 PUSH2 0xE14 SWAP1 PUSH2 0x1350 JUMP JUMPDEST DUP1 PUSH1 0x1F ADD PUSH1 0x20 DUP1 SWAP2 DIV MUL PUSH1 0x20 ADD PUSH1 0x40 MLOAD SWAP1 DUP2 ADD PUSH1 0x40 MSTORE DUP1 SWAP3 SWAP2 SWAP1 DUP2 DUP2 MSTORE PUSH1 0x20 ADD DUP3 DUP1 SLOAD PUSH2 0xE40 SWAP1 PUSH2 0x1350 JUMP JUMPDEST DUP1 ISZERO PUSH2 0xE8D JUMPI DUP1 PUSH1 0x1F LT PUSH2 0xE62 JUMPI PUSH2 0x100 DUP1 DUP4 SLOAD DIV MUL DUP4 MSTORE SWAP2 PUSH1 0x20 ADD SWAP2 PUSH2 0xE8D JUMP JUMPDEST DUP3 ADD SWAP2 SWAP1 PUSH1 0x0 MSTORE PUSH1 0x20 PUSH1 0x0 KECCAK256 SWAP1 JUMPDEST DUP2 SLOAD DUP2 MSTORE SWAP1 PUSH1 0x1 ADD SWAP1 PUSH1 0x20 ADD DUP1 DUP4 GT PUSH2 0xE70 JUMPI DUP3 SWAP1 SUB PUSH1 0x1F AND DUP3 ADD SWAP2 JUMPDEST POP POP POP POP POP DUP2 MSTORE PUSH1 0x20 ADD PUSH1 0x8 DUP3 ADD DUP1 SLOAD PUSH2 0xEA6 SWAP1 PUSH2 0x1350 JUMP JUMPDEST DUP1 PUSH1 0x1F ADD PUSH1 0x20 DUP1 SWAP2 DIV MUL PUSH1 0x20 ADD PUSH1 0x40 MLOAD SWAP1 DUP2 ADD PUSH1 0x40 MSTORE DUP1 SWAP3 SWAP2 SWAP1 DUP2 DUP2 MSTORE PUSH1 0x20 ADD DUP3 DUP1 SLOAD PUSH2 0xED2 SWAP1 PUSH2 0x1350 JUMP JUMPDEST DUP1 ISZERO PUSH2 0xF1F JUMPI DUP1 PUSH1 0x1F LT PUSH2 0xEF4 JUMPI PUSH2 0x100 DUP1 DUP4 SLOAD DIV MUL DUP4 MSTORE SWAP2 PUSH1 0x20 ADD SWAP2 PUSH2 0xF1F JUMP JUMPDEST DUP3 ADD SWAP2 SWAP1 PUSH1 0x0 MSTORE PUSH1 0x20 PUSH1 0x0 KECCAK256 SWAP1 JUMPDEST DUP2 SLOAD DUP2 MSTORE SWAP1 PUSH1 0x1 ADD SWAP1 PUSH1 0x20 ADD DUP1 DUP4 GT PUSH2 0xF02 JUMPI DUP3 SWAP1 SUB PUSH1 0x1F AND DUP3 ADD SWAP2 JUMPDEST POP POP POP POP POP DUP2 MSTORE PUSH1 0x20 ADD PUSH1 0x9 DUP3 ADD SLOAD DUP2 MSTORE POP POP SWAP1 POP SWAP2 SWAP1 POP JUMP JUMPDEST PUSH1 0x3 PUSH1 0x20 MSTORE DUP2 PUSH1 0x0 MSTORE PUSH1 0x40 PUSH1 0x0 KECCAK256 DUP2 DUP2 SLOAD DUP2 LT PUSH2 0x7D4 JUMPI PUSH1 0x0 DUP1 REVERT JUMPDEST PUSH1 0x0 SLOAD PUSH1 0x1 PUSH1 0x1 PUSH1 0xA0 SHL SUB AND CALLER EQ PUSH2 0x7FB JUMPI PUSH1 0x40 MLOAD PUSH4 0x118CDAA7 PUSH1 0xE0 SHL DUP2 MSTORE CALLER PUSH1 0x4 DUP3 ADD MSTORE PUSH1 0x24 ADD PUSH2 0x3AA JUMP JUMPDEST PUSH1 0x0 DUP1 SLOAD PUSH1 0x1 PUSH1 0x1 PUSH1 0xA0 SHL SUB DUP4 DUP2 AND PUSH1 0x1 PUSH1 0x1 PUSH1 0xA0 SHL SUB NOT DUP4 AND DUP2 OR DUP5 SSTORE PUSH1 0x40 MLOAD SWAP2 SWAP1 SWAP3 AND SWAP3 DUP4 SWAP2 PUSH32 0x8BE0079C531659141344CD1FD0A4F28419497F9722A3DAAFE3B4186F6B6457E0 SWAP2 SWAP1 LOG3 POP POP JUMP JUMPDEST DUP1 CALLDATALOAD PUSH1 0x1 PUSH1 0x1 PUSH1 0xA0 SHL SUB DUP2 AND DUP2 EQ PUSH2 0xFE9 JUMPI PUSH1 0x0 DUP1 REVERT JUMPDEST SWAP2 SWAP1 POP JUMP JUMPDEST PUSH1 0x0 PUSH1 0x20 DUP3 DUP5 SUB SLT ISZERO PUSH2 0x1000 JUMPI PUSH1 0x0 DUP1 REVERT JUMPDEST PUSH2 0x1009 DUP3 PUSH2 0xFD2 JUMP JUMPDEST SWAP4 SWAP3 POP POP POP JUMP JUMPDEST PUSH1 0x20 DUP1 DUP3 MSTORE DUP3 MLOAD DUP3 DUP3 ADD DUP2 SWAP1 MSTORE PUSH1 0x0 SWAP2 SWAP1 DUP5 DUP3 ADD SWAP1 PUSH1 0x40 DUP6 ADD SWAP1 DUP5 JUMPDEST DUP2 DUP2 LT ISZERO PUSH2 0x1048 JUMPI DUP4 MLOAD DUP4 MSTORE SWAP3 DUP5 ADD SWAP3 SWAP2 DUP5 ADD SWAP2 PUSH1 0x1 ADD PUSH2 0x102C JUMP JUMPDEST POP SWAP1 SWAP7 SWAP6 POP POP POP POP POP POP JUMP JUMPDEST PUSH1 0x0 DUP1 DUP4 PUSH1 0x1F DUP5 ADD SLT PUSH2 0x1066 JUMPI PUSH1 0x0 DUP1 REVERT JUMPDEST POP DUP2 CALLDATALOAD PUSH8 0xFFFFFFFFFFFFFFFF DUP2 GT ISZERO PUSH2 0x107E JUMPI PUSH1 0x0 DUP1 REVERT JUMPDEST PUSH1 0x20 DUP4 ADD SWAP2 POP DUP4 PUSH1 0x20 DUP3 DUP6 ADD ADD GT ISZERO PUSH2 0x1096 JUMPI PUSH1 0x0 DUP1 REVERT JUMPDEST SWAP3 POP SWAP3 SWAP1 POP JUMP JUMPDEST PUSH1 0x0 DUP1 PUSH1 0x0 PUSH1 0x40 DUP5 DUP7 SUB SLT ISZERO PUSH2 0x10B2 JUMPI PUSH1 0x0 DUP1 REVERT JUMPDEST DUP4 CALLDATALOAD SWAP3 POP PUSH1 0x20 DUP5 ADD CALLDATALOAD PUSH8 0xFFFFFFFFFFFFFFFF DUP2 GT ISZERO PUSH2 0x10D0 JUMPI PUSH1 0x0 DUP1 REVERT JUMPDEST PUSH2 0x10DC DUP7 DUP3 DUP8 ADD PUSH2 0x1054 JUMP JUMPDEST SWAP5 SWAP8 SWAP1 SWAP7 POP SWAP4 SWAP5 POP POP POP POP JUMP JUMPDEST PUSH1 0x0 PUSH1 0x20 DUP3 DUP5 SUB SLT ISZERO PUSH2 0x10FB JUMPI PUSH1 0x0 DUP1 REVERT JUMPDEST POP CALLDATALOAD SWAP2 SWAP1 POP JUMP JUMPDEST PUSH1 0x0 DUP2 MLOAD DUP1 DUP5 MSTORE PUSH1 0x0 JUMPDEST DUP2 DUP2 LT ISZERO PUSH2 0x1128 JUMPI PUSH1 0x20 DUP2 DUP6 ADD DUP2 ADD MLOAD DUP7 DUP4 ADD DUP3 ADD MSTORE ADD PUSH2 0x110C JUMP JUMPDEST POP PUSH1 0x0 PUSH1 0x20 DUP3 DUP7 ADD ADD MSTORE PUSH1 0x20 PUSH1 0x1F NOT PUSH1 0x1F DUP4 ADD AND DUP6 ADD ADD SWAP2 POP POP SWAP3 SWAP2 POP POP JUMP JUMPDEST DUP11 DUP2 MSTORE PUSH1 0x1 PUSH1 0x1 PUSH1 0xA0 SHL SUB DUP11 DUP2 AND PUSH1 0x20 DUP4 ADD MSTORE DUP10 AND PUSH1 0x40 DUP3 ADD MSTORE PUSH1 0x60 DUP2 ADD DUP9 SWAP1 MSTORE PUSH1 0x80 DUP2 ADD DUP8 SWAP1 MSTORE PUSH1 0xA0 DUP2 ADD DUP7 SWAP1 MSTORE DUP5 ISZERO ISZERO PUSH1 0xC0 DUP3 ADD MSTORE PUSH2 0x140 PUSH1 0xE0 DUP3 ADD DUP2 SWAP1 MSTORE PUSH1 0x0 SWAP1 PUSH2 0x1198 DUP4 DUP3 ADD DUP8 PUSH2 0x1102 JUMP JUMPDEST SWAP1 POP DUP3 DUP2 SUB PUSH2 0x100 DUP5 ADD MSTORE PUSH2 0x11AD DUP2 DUP7 PUSH2 0x1102 JUMP JUMPDEST SWAP2 POP POP DUP3 PUSH2 0x120 DUP4 ADD MSTORE SWAP12 SWAP11 POP POP POP POP POP POP POP POP POP POP POP JUMP JUMPDEST PUSH1 0x0 DUP1 PUSH1 0x40 DUP4 DUP6 SUB SLT ISZERO PUSH2 0x11D9 JUMPI PUSH1 0x0 DUP1 REVERT JUMPDEST DUP3 CALLDATALOAD SWAP2 POP PUSH2 0x11E9 PUSH1 0x20 DUP5 ADD PUSH2 0xFD2 JUMP JUMPDEST SWAP1 POP SWAP3 POP SWAP3 SWAP1 POP JUMP JUMPDEST PUSH1 0x0 DUP1 PUSH1 0x40 DUP4 DUP6 SUB SLT ISZERO PUSH2 0x1205 JUMPI PUSH1 0x0 DUP1 REVERT JUMPDEST PUSH2 0x120E DUP4 PUSH2 0xFD2 JUMP JUMPDEST SWAP5 PUSH1 0x20 SWAP4 SWAP1 SWAP4 ADD CALLDATALOAD SWAP4 POP POP POP JUMP JUMPDEST PUSH1 0x0 DUP1 PUSH1 0x0 DUP1 PUSH1 0x0 PUSH1 0x80 DUP7 DUP9 SUB SLT ISZERO PUSH2 0x1234 JUMPI PUSH1 0x0 DUP1 REVERT JUMPDEST DUP6 CALLDATALOAD SWAP5 POP PUSH1 0x20 DUP7 ADD CALLDATALOAD SWAP4 POP PUSH1 0x40 DUP7 ADD CALLDATALOAD SWAP3 POP PUSH1 0x60 DUP7 ADD CALLDATALOAD PUSH8 0xFFFFFFFFFFFFFFFF DUP2 GT ISZERO PUSH2 0x1260 JUMPI PUSH1 0x0 DUP1 REVERT JUMPDEST PUSH2 0x126C DUP9 DUP3 DUP10 ADD PUSH2 0x1054 JUMP JUMPDEST SWAP7 SWAP10 SWAP6 SWAP9 POP SWAP4 SWAP7 POP SWAP3 SWAP5 SWAP4 SWAP3 POP POP POP JUMP JUMPDEST PUSH1 0x20 DUP2 MSTORE DUP2 MLOAD PUSH1 0x20 DUP3 ADD MSTORE PUSH1 0x0 PUSH1 0x20 DUP4 ADD MLOAD PUSH2 0x12A4 PUSH1 0x40 DUP5 ADD DUP3 PUSH1 0x1 PUSH1 0x1 PUSH1 0xA0 SHL SUB AND SWAP1 MSTORE JUMP JUMPDEST POP PUSH1 0x40 DUP4 ADD MLOAD PUSH1 0x1 PUSH1 0x1 PUSH1 0xA0 SHL SUB DUP2 AND PUSH1 0x60 DUP5 ADD MSTORE POP PUSH1 0x60 DUP4 ADD MLOAD PUSH1 0x80 DUP4 ADD MSTORE PUSH1 0x80 DUP4 ADD MLOAD PUSH1 0xA0 DUP4 ADD MSTORE PUSH1 0xA0 DUP4 ADD MLOAD PUSH1 0xC0 DUP4 ADD MSTORE PUSH1 0xC0 DUP4 ADD MLOAD PUSH2 0x12EB PUSH1 0xE0 DUP5 ADD DUP3 ISZERO ISZERO SWAP1 MSTORE JUMP JUMPDEST POP PUSH1 0xE0 DUP4 ADD MLOAD PUSH2 0x140 PUSH2 0x100 DUP2 DUP2 DUP7 ADD MSTORE PUSH2 0x130A PUSH2 0x160 DUP7 ADD DUP5 PUSH2 0x1102 JUMP JUMPDEST SWAP3 POP DUP1 DUP7 ADD MLOAD SWAP1 POP PUSH2 0x120 PUSH1 0x1F NOT DUP7 DUP6 SUB ADD DUP2 DUP8 ADD MSTORE PUSH2 0x132A DUP5 DUP4 PUSH2 0x1102 JUMP JUMPDEST SWAP7 ADD MLOAD SWAP2 SWAP1 SWAP5 ADD MSTORE POP SWAP2 SWAP3 SWAP2 POP POP JUMP JUMPDEST PUSH4 0x4E487B71 PUSH1 0xE0 SHL PUSH1 0x0 MSTORE PUSH1 0x41 PUSH1 0x4 MSTORE PUSH1 0x24 PUSH1 0x0 REVERT JUMPDEST PUSH1 0x1 DUP2 DUP2 SHR SWAP1 DUP3 AND DUP1 PUSH2 0x1364 JUMPI PUSH1 0x7F DUP3 AND SWAP2 POP JUMPDEST PUSH1 0x20 DUP3 LT DUP2 SUB PUSH2 0x1384 JUMPI PUSH4 0x4E487B71 PUSH1 0xE0 SHL PUSH1 0x0 MSTORE PUSH1 0x22 PUSH1 0x4 MSTORE PUSH1 0x24 PUSH1 0x0 REVERT JUMPDEST POP SWAP2 SWAP1 POP JUMP JUMPDEST PUSH1 0x1F DUP3 GT ISZERO PUSH2 0x13D6 JUMPI PUSH1 0x0 DUP2 PUSH1 0x0 MSTORE PUSH1 0x20 PUSH1 0x0 KECCAK256 PUSH1 0x1F DUP6 ADD PUSH1 0x5 SHR DUP2 ADD PUSH1 0x20 DUP7 LT ISZERO PUSH2 0x13B3 JUMPI POP DUP1 JUMPDEST PUSH1 0x1F DUP6 ADD PUSH1 0x5 SHR DUP3 ADD SWAP2 POP JUMPDEST DUP2 DUP2 LT ISZERO PUSH2 0x13D2 JUMPI DUP3 DUP2 SSTORE PUSH1 0x1 ADD PUSH2 0x13BF JUMP JUMPDEST POP POP POP JUMPDEST POP POP POP JUMP JUMPDEST PUSH8 0xFFFFFFFFFFFFFFFF DUP4 GT ISZERO PUSH2 0x13F3 JUMPI PUSH2 0x13F3 PUSH2 0x133A JUMP JUMPDEST PUSH2 0x1407 DUP4 PUSH2 0x1401 DUP4 SLOAD PUSH2 0x1350 JUMP JUMPDEST DUP4 PUSH2 0x138A JUMP JUMPDEST PUSH1 0x0 PUSH1 0x1F DUP5 GT PUSH1 0x1 DUP2 EQ PUSH2 0x143B JUMPI PUSH1 0x0 DUP6 ISZERO PUSH2 0x1423 JUMPI POP DUP4 DUP3 ADD CALLDATALOAD JUMPDEST PUSH1 0x0 NOT PUSH1 0x3 DUP8 SWAP1 SHL SHR NOT AND PUSH1 0x1 DUP7 SWAP1 SHL OR DUP4 SSTORE PUSH2 0x3C2 JUMP JUMPDEST PUSH1 0x0 DUP4 DUP2 MSTORE PUSH1 0x20 SWAP1 KECCAK256 PUSH1 0x1F NOT DUP7 AND SWAP1 DUP4 JUMPDEST DUP3 DUP2 LT ISZERO PUSH2 0x146C JUMPI DUP7 DUP6 ADD CALLDATALOAD DUP3 SSTORE PUSH1 0x20 SWAP5 DUP6 ADD SWAP5 PUSH1 0x1 SWAP1 SWAP3 ADD SWAP2 ADD PUSH2 0x144C JUMP JUMPDEST POP DUP7 DUP3 LT ISZERO PUSH2 0x1489 JUMPI PUSH1 0x0 NOT PUSH1 0xF8 DUP9 PUSH1 0x3 SHL AND SHR NOT DUP5 DUP8 ADD CALLDATALOAD AND DUP2 SSTORE JUMPDEST POP POP PUSH1 0x1 DUP6 PUSH1 0x1 SHL ADD DUP4 SSTORE POP POP POP POP POP JUMP JUMPDEST PUSH1 0x20 DUP1 DUP3 MSTORE PUSH1 0xE SWAP1 DUP3 ADD MSTORE PUSH14 0x4A6F62206E6F7420616374697665 PUSH1 0x90 SHL PUSH1 0x40 DUP3 ADD MSTORE PUSH1 0x60 ADD SWAP1 JUMP JUMPDEST DUP2 MLOAD PUSH8 0xFFFFFFFFFFFFFFFF DUP2 GT ISZERO PUSH2 0x14DD JUMPI PUSH2 0x14DD PUSH2 0x133A JUMP JUMPDEST PUSH2 0x14F1 DUP2 PUSH2 0x14EB DUP5 SLOAD PUSH2 0x1350 JUMP JUMPDEST DUP5 PUSH2 0x138A JUMP JUMPDEST PUSH1 0x20 DUP1 PUSH1 0x1F DUP4 GT PUSH1 0x1 DUP2 EQ PUSH2 0x1526 JUMPI PUSH1 0x0 DUP5 ISZERO PUSH2 0x150E JUMPI POP DUP6 DUP4 ADD MLOAD JUMPDEST PUSH1 0x0 NOT PUSH1 0x3 DUP7 SWAP1 SHL SHR NOT AND PUSH1 0x1 DUP6 SWAP1 SHL OR DUP6 SSTORE PUSH2 0x13D2 JUMP JUMPDEST PUSH1 0x0 DUP6 DUP2 MSTORE PUSH1 0x20 DUP2 KECCAK256 PUSH1 0x1F NOT DUP7 AND SWAP2 JUMPDEST DUP3 DUP2 LT ISZERO PUSH2 0x1555 JUMPI DUP9 DUP7 ADD MLOAD DUP3 SSTORE SWAP5 DUP5 ADD SWAP5 PUSH1 0x1 SWAP1 SWAP2 ADD SWAP1 DUP5 ADD PUSH2 0x1536 JUMP JUMPDEST POP DUP6 DUP3 LT ISZERO PUSH2 0x1573 JUMPI DUP8 DUP6 ADD MLOAD PUSH1 0x0 NOT PUSH1 0x3 DUP9 SWAP1 SHL PUSH1 0xF8 AND SHR NOT AND DUP2 SSTORE JUMPDEST POP POP POP POP POP PUSH1 0x1 SWAP1 DUP2 SHL ADD SWAP1 SSTORE POP JUMP JUMPDEST DUP6 DUP2 MSTORE PUSH1 0x80 PUSH1 0x20 DUP3 ADD MSTORE DUP4 PUSH1 0x80 DUP3 ADD MSTORE DUP4 DUP6 PUSH1 0xA0 DUP4 ADD CALLDATACOPY PUSH1 0x0 PUSH1 0xA0 DUP6 DUP4 ADD ADD MSTORE PUSH1 0x0 PUSH1 0xA0 PUSH1 0x1F NOT PUSH1 0x1F DUP8 ADD AND DUP4 ADD ADD SWAP1 POP DUP4 PUSH1 0x40 DUP4 ADD MSTORE DUP3 PUSH1 0x60 DUP4 ADD MSTORE SWAP7 SWAP6 POP POP POP POP POP POP JUMP INVALID LOG2 PUSH5 0x6970667358 0x22 SLT KECCAK256 COINBASE RETURNDATASIZE NOT 0xEE 0xDD PUSH1 0x8C 0xD0 0x4B PUSH31 0xBB68829C184F05654E6BE96D8B1E5F7CF0A23257CDEE64736F6C6343000818 STOP CALLER "},"methodIdentifiers":{"assignWorker(bytes32,address)":"6204045e","cancelJob(bytes32)":"5fae1450","completeJob(bytes32)":"991e0139","createJob(uint256,uint256,uint256,string)":"d6316d78","employerJobs(address,uint256)":"fc736cde","getEmployerJobs(address)":"5f58cb4f","getJob(bytes32)":"f729cf0d","getWorkerJobs(address)":"06d004ef","isEmployerVerified(address)":"b12b0541","jobs(bytes32)":"38ed7cfc","owner()":"8da5cb5b","renounceOwnership()":"715018a6","setEmployerVerified(address)":"b3cc221d","setHederaTopic(bytes32,string)":"260a81e0","transferOwnership(address)":"f2fde38b","verifiedEmployers(address)":"6c0f1cf3","workerJobs(address,uint256)":"6e59ef7a"}}}}}