{
  "_format": "hh-sol-artifact-1",
  "contractName": "WorkEscrow",
  "sourceName": "contracts/WorkEscrow.sol",
  "abi": [
    {
      "inputs": [
        {
          "internalType": "address",
          "name": "_usdc",
          "type": "address"
        },
        {
          "internalType": "address",
          "name": "_jobRegistry",
          "type": "address"
        },
        {
          "internalType": "address",
          "name": "_disrupteCourt",
          "type": "address"
        }
      ],
      "stateMutability": "nonpayable",
      "type": "constructor"
    },
    {
      "inputs": [
        {
          "internalType": "address",
          "name": "owner",
          "type": "address"
        }
      ],
      "name": "OwnableInvalidOwner",
      "type": "error"
    },
    {
      "inputs": [
        {
          "internalType": "address",
          "name": "account",
          "type": "address"
        }
      ],
      "name": "OwnableUnauthorizedAccount",
      "type": "error"
    },
    {
      "inputs": [],
      "name": "ReentrancyGuardReentrantCall",
      "type": "error"
    },
    {
      "anonymous": false,
      "inputs": [
        {
          "indexed": true,
          "internalType": "bytes32",
          "name": "jobId",
          "type": "bytes32"
        },
        {
          "indexed": false,
          "internalType": "address",
          "name": "employer",
          "type": "address"
        },
        {
          "indexed": false,
          "internalType": "uint256",
          "name": "amount",
          "type": "uint256"
        }
      ],
      "name": "FundsLocked",
      "type": "event"
    },
    {
      "anonymous": false,
      "inputs": [
        {
          "indexed": true,
          "internalType": "bytes32",
          "name": "jobId",
          "type": "bytes32"
        },
        {
          "indexed": false,
          "internalType": "address",
          "name": "employer",
          "type": "address"
        },
        {
          "indexed": false,
          "internalType": "uint256",
          "name": "amount",
          "type": "uint256"
        }
      ],
      "name": "FundsRefunded",
      "type": "event"
    },
    {
      "anonymous": false,
      "inputs": [
        {
          "indexed": true,
          "internalType": "bytes32",
          "name": "jobId",
          "type": "bytes32"
        },
        {
          "indexed": false,
          "internalType": "address",
          "name": "worker",
          "type": "address"
        },
        {
          "indexed": false,
          "internalType": "uint256",
          "name": "amount",
          "type": "uint256"
        }
      ],
      "name": "FundsReleased",
      "type": "event"
    },
    {
      "anonymous": false,
      "inputs": [
        {
          "indexed": true,
          "internalType": "address",
          "name": "previousOwner",
          "type": "address"
        },
        {
          "indexed": true,
          "internalType": "address",
          "name": "newOwner",
          "type": "address"
        }
      ],
      "name": "OwnershipTransferred",
      "type": "event"
    },
    {
      "inputs": [],
      "name": "disrupteCourt",
      "outputs": [
        {
          "internalType": "address",
          "name": "",
          "type": "address"
        }
      ],
      "stateMutability": "view",
      "type": "function"
    },
    {
      "inputs": [
        {
          "internalType": "bytes32",
          "name": "",
          "type": "bytes32"
        }
      ],
      "name": "escrows",
      "outputs": [
        {
          "internalType": "uint256",
          "name": "amount",
          "type": "uint256"
        },
        {
          "internalType": "address",
          "name": "employer",
          "type": "address"
        },
        {
          "internalType": "address",
          "name": "worker",
          "type": "address"
        },
        {
          "internalType": "bool",
          "name": "released",
          "type": "bool"
        },
        {
          "internalType": "bool",
          "name": "refunded",
          "type": "bool"
        },
        {
          "internalType": "uint256",
          "name": "createdAt",
          "type": "uint256"
        }
      ],
      "stateMutability": "view",
      "type": "function"
    },
    {
      "inputs": [
        {
          "internalType": "bytes32",
          "name": "jobId",
          "type": "bytes32"
        }
      ],
      "name": "getEscrow",
      "outputs": [
        {
          "components": [
            {
              "internalType": "uint256",
              "name": "amount",
              "type": "uint256"
            },
            {
              "internalType": "address",
              "name": "employer",
              "type": "address"
            },
            {
              "internalType": "address",
              "name": "worker",
              "type": "address"
            },
            {
              "internalType": "bool",
              "name": "released",
              "type": "bool"
            },
            {
              "internalType": "bool",
              "name": "refunded",
              "type": "bool"
            },
            {
              "internalType": "uint256",
              "name": "createdAt",
              "type": "uint256"
            }
          ],
          "internalType": "struct WorkEscrow.EscrowInfo",
          "name": "",
          "type": "tuple"
        }
      ],
      "stateMutability": "view",
      "type": "function"
    },
    {
      "inputs": [
        {
          "internalType": "bytes32",
          "name": "jobId",
          "type": "bytes32"
        }
      ],
      "name": "getReleasedAmount",
      "outputs": [
        {
          "internalType": "uint256",
          "name": "",
          "type": "uint256"
        }
      ],
      "stateMutability": "view",
      "type": "function"
    },
    {
      "inputs": [],
      "name": "jobRegistry",
      "outputs": [
        {
          "internalType": "contract IJobRegistry",
          "name": "",
          "type": "address"
        }
      ],
      "stateMutability": "view",
      "type": "function"
    },
    {
      "inputs": [
        {
          "internalType": "bytes32",
          "name": "jobId",
          "type": "bytes32"
        },
        {
          "internalType": "uint256",
          "name": "amount",
          "type": "uint256"
        }
      ],
      "name": "lockFunds",
      "outputs": [],
      "stateMutability": "nonpayable",
      "type": "function"
    },
    {
      "inputs": [],
      "name": "owner",
      "outputs": [
        {
          "internalType": "address",
          "name": "",
          "type": "address"
        }
      ],
      "stateMutability": "view",
      "type": "function"
    },
    {
      "inputs": [
        {
          "internalType": "bytes32",
          "name": "jobId",
          "type": "bytes32"
        }
      ],
      "name": "refundEmployer",
      "outputs": [],
      "stateMutability": "nonpayable",
      "type": "function"
    },
    {
      "inputs": [
        {
          "internalType": "bytes32",
          "name": "jobId",
          "type": "bytes32"
        },
        {
          "internalType": "uint256",
          "name": "amount",
          "type": "uint256"
        }
      ],
      "name": "releaseToWorker",
      "outputs": [],
      "stateMutability": "nonpayable",
      "type": "function"
    },
    {
      "inputs": [
        {
          "internalType": "bytes32",
          "name": "",
          "type": "bytes32"
        }
      ],
      "name": "releasedAmounts",
      "outputs": [
        {
          "internalType": "uint256",
          "name": "",
          "type": "uint256"
        }
      ],
      "stateMutability": "view",
      "type": "function"
    },
    {
      "inputs": [],
      "name": "renounceOwnership",
      "outputs": [],
      "stateMutability": "nonpayable",
      "type": "function"
    },
    {
      "inputs": [
        {
          "internalType": "address",
          "name": "_disrupteCourt",
          "type": "address"
        }
      ],
      "name": "setDisputeCourt",
      "outputs": [],
      "stateMutability": "nonpayable",
      "type": "function"
    },
    {
      "inputs": [
        {
          "internalType": "address",
          "name": "newOwner",
          "type": "address"
        }
      ],
      "name": "transferOwnership",
      "outputs": [],
      "stateMutability": "nonpayable",
      "type": "function"
    },
    {
      "inputs": [],
      "name": "usdc",
      "outputs": [
        {
          "internalType": "contract IERC20",
          "name": "",
          "type": "address"
        }
      ],
      "stateMutability": "view",
      "type": "function"
    }
  ],
  "bytecode": "0x608060405234801561001057600080fd5b50604051610fa0380380610fa083398101604081905261002f91610131565b338061005557604051631e4fbdf760e01b81526000600482015260240160405180910390fd5b61005e816100c5565b5060017f9b779b17422d0df92223018b32b4d1fa46e071723d6817e2486d003becc55f0055600180546001600160a01b039485166001600160a01b031991821617909155600280549385169382169390931790925560038054919093169116179055610174565b600080546001600160a01b038381166001600160a01b0319831681178455604051919092169283917f8be0079c531659141344cd1fd0a4f28419497f9722a3daafe3b4186f6b6457e09190a35050565b80516001600160a01b038116811461012c57600080fd5b919050565b60008060006060848603121561014657600080fd5b61014f84610115565b925061015d60208501610115565b915061016b60408501610115565b90509250925092565b610e1d806101836000396000f3fe608060405234801561001057600080fd5b50600436106100ea5760003560e01c80639e2d2e2f1161008c578063be09fcda11610066578063be09fcda14610269578063e039bff21461027c578063f023b8111461028f578063f2fde38b1461039d57600080fd5b80639e2d2e2f146102235780639ec6eb9414610236578063aa9474bb1461025657600080fd5b80633e413bee116100c85780633e413bee146101e25780635ae8df29146101f5578063715018a61461020a5780638da5cb5b1461021257600080fd5b806323682c47146100ef578063298151501461011f5780632d83549c1461014d575b600080fd5b600254610102906001600160a01b031681565b6040516001600160a01b0390911681526020015b60405180910390f35b61013f61012d366004610ccf565b60009081526005602052604090205490565b604051908152602001610116565b6101a561015b366004610ccf565b600460205260009081526040902080546001820154600283015460039093015491926001600160a01b03918216929181169160ff600160a01b8304811692600160a81b9004169086565b604080519687526001600160a01b0395861660208801529390941692850192909252151560608401521515608083015260a082015260c001610116565b600154610102906001600160a01b031681565b610208610203366004610ce8565b6103b0565b005b6102086106d1565b6000546001600160a01b0316610102565b600354610102906001600160a01b031681565b61013f610244366004610ccf565b60056020526000908152604090205481565b610208610264366004610d0a565b6106e5565b610208610277366004610ccf565b61070f565b61020861028a366004610ce8565b61098e565b61034461029d366004610ccf565b6040805160c081018252600080825260208201819052918101829052606081018290526080810182905260a081019190915250600090815260046020908152604091829020825160c0810184528154815260018201546001600160a01b039081169382019390935260028201549283169381019390935260ff600160a01b8304811615156060850152600160a81b909204909116151560808301526003015460a082015290565b60408051825181526020808401516001600160a01b039081169183019190915283830151169181019190915260608083015115159082015260808083015115159082015260a0918201519181019190915260c001610116565b6102086103ab366004610d0a565b610bcb565b6103b8610c06565b6003546001600160a01b03163314806103db57506002546001600160a01b031633145b61041b5760405162461bcd60e51b815260206004820152600c60248201526b155b985d5d1a1bdc9a5e995960a21b60448201526064015b60405180910390fd5b600082815260046020526040902080546104695760405162461bcd60e51b815260206004820152600f60248201526e139bc8195cd8dc9bddc8199bdd5b99608a1b6044820152606401610412565b6002810154600160a01b900460ff16156104b85760405162461bcd60e51b815260206004820152601060248201526f105b1c9958591e481c995b19585cd95960821b6044820152606401610412565b6002810154600160a81b900460ff16156105075760405162461bcd60e51b815260206004820152601060248201526f105b1c9958591e481c99599d5b99195960821b6044820152606401610412565b80548211156105505760405162461bcd60e51b8152602060048201526015602482015274416d6f756e74206578636565647320657363726f7760581b6044820152606401610412565b60028101546001600160a01b0316806105a05760405162461bcd60e51b8152602060048201526012602482015271139bc81ddbdc9ad95c88185cdcda59db995960721b6044820152606401610412565b60028201805460ff60a01b1916600160a01b179055600084815260056020526040812080548592906105d3908490610d50565b909155505060015460405163a9059cbb60e01b81526001600160a01b03838116600483015260248201869052600092169063a9059cbb906044016020604051808303816000875af115801561062c573d6000803e3d6000fd5b505050506040513d601f19601f820116820180604052508101906106509190610d69565b90508061066f5760405162461bcd60e51b815260040161041290610d8b565b604080516001600160a01b03841681526020810186905286917f75d86e5bfa1175e2dc677f3abe3aebba3069f2db6ae492f1734d4b4bc65f61c1910160405180910390a25050506106cd6001600080516020610dc883398151915255565b5050565b6106d9610c22565b6106e36000610c4f565b565b6106ed610c22565b600380546001600160a01b0319166001600160a01b0392909216919091179055565b610717610c06565b6003546001600160a01b031633148061073a57506002546001600160a01b031633145b6107755760405162461bcd60e51b815260206004820152600c60248201526b155b985d5d1a1bdc9a5e995960a21b6044820152606401610412565b600081815260046020526040902080546107c35760405162461bcd60e51b815260206004820152600f60248201526e139bc8195cd8dc9bddc8199bdd5b99608a1b6044820152606401610412565b6002810154600160a81b900460ff16156108125760405162461bcd60e51b815260206004820152601060248201526f105b1c9958591e481c99599d5b99195960821b6044820152606401610412565b60028101805460ff60a81b1916600160a81b17905560008281526005602052604081205482546108429190610db4565b9050600081116108885760405162461bcd60e51b8152602060048201526011602482015270139bdd1a1a5b99c81d1bc81c99599d5b99607a1b6044820152606401610412565b600180549083015460405163a9059cbb60e01b81526001600160a01b03918216600482015260248101849052600092919091169063a9059cbb906044016020604051808303816000875af11580156108e4573d6000803e3d6000fd5b505050506040513d601f19601f820116820180604052508101906109089190610d69565b9050806109275760405162461bcd60e51b815260040161041290610d8b565b6001830154604080516001600160a01b0390921682526020820184905285917fbb0af7321a16834399146ab3819202a61859e53d69bd9cf889c444dfe69f1bb2910160405180910390a250505061098b6001600080516020610dc883398151915255565b50565b610996610c06565b600081116109db5760405162461bcd60e51b81526020600482015260126024820152710416d6f756e74206d757374206265203e20360741b6044820152606401610412565b60008281526004602052604090205415610a2e5760405162461bcd60e51b8152602060048201526014602482015273119d5b991cc8185b1c9958591e481b1bd8dad95960621b6044820152606401610412565b6001546040516323b872dd60e01b8152336004820152306024820152604481018390526000916001600160a01b0316906323b872dd906064016020604051808303816000875af1158015610a86573d6000803e3d6000fd5b505050506040513d601f19601f82011682018060405250810190610aaa9190610d69565b905080610ac95760405162461bcd60e51b815260040161041290610d8b565b6040805160c081018252838152336020808301828152600084860181815260608601828152608087018381524260a089019081528c855260048752938990209751885593516001880180546001600160a01b039283166001600160a01b03199091161790559151600288018054925195511515600160a81b0260ff60a81b19961515600160a01b026001600160a81b0319909416929094169190911791909117939093161790915551600390930192909255825190815290810184905284917f15144217405064631de951752111334f6d9db4be6cfff45346f7068ea857fcad910160405180910390a2506106cd6001600080516020610dc883398151915255565b610bd3610c22565b6001600160a01b038116610bfd57604051631e4fbdf760e01b815260006004820152602401610412565b61098b81610c4f565b610c0e610c9f565b6002600080516020610dc883398151915255565b6000546001600160a01b031633146106e35760405163118cdaa760e01b8152336004820152602401610412565b600080546001600160a01b038381166001600160a01b0319831681178455604051919092169283917f8be0079c531659141344cd1fd0a4f28419497f9722a3daafe3b4186f6b6457e09190a35050565b600080516020610dc8833981519152546002036106e357604051633ee5aeb560e01b815260040160405180910390fd5b600060208284031215610ce157600080fd5b5035919050565b60008060408385031215610cfb57600080fd5b50508035926020909101359150565b600060208284031215610d1c57600080fd5b81356001600160a01b0381168114610d3357600080fd5b9392505050565b634e487b7160e01b600052601160045260246000fd5b80820180821115610d6357610d63610d3a565b92915050565b600060208284031215610d7b57600080fd5b81518015158114610d3357600080fd5b6020808252600f908201526e151c985b9cd9995c8819985a5b1959608a1b604082015260600190565b81810381811115610d6357610d63610d3a56fe9b779b17422d0df92223018b32b4d1fa46e071723d6817e2486d003becc55f00a26469706673582212200267ac3079b71dcef1ef4fbe9ba120a5ba70c89dfc8c0640e94bc1fd0b15a1c064736f6c63430008180033",
  "linkReferences": {},
  "deployedLinkReferences": {}
}